:020000040800F2
:1000000000A00020E9410008A90E0008AB0E00087E
:10001000AD0E0008AF0E0008B10E00080000000091
:10002000000000000000000000000000B30E000807
:10003000B50E000800000000B70E0008B90E000859
:1000400039420008394200083942000839420008A4
:100050003942000839420008394200083942000894
:100060003942000839420008394200083942000884
:100070003942000839420008394200083942000874
:100080003942000839420008394200083942000864
:100090003942000839420008394200083942000854
:1000A0003942000839420008394200083942000844
:1000B0003942000839420008394200083942000834
:1000C0003942000839420008394200083942000824
:1000D0003942000839420008394200083942000814
:1000E0003942000839420008394200083942000804
:1000F00039420008394200083942000839420008F4
:10010000000000000000000000000000394200086C
:1001100039420008394200083942000839420008D3
:1001200039420008394200083942000839420008C3
:1001300039420008394200080000000000000000B9
:100140003942000839420008394200080000000026
:10015000000000000000000000000000000000009F
:100160000000000000000000394200083942000889
:1001700039420008000000000000000000000000FC
:080180000000000039420008F4
:1001900010B5054C237833B9044B13B10448AFF3C1
:1001A00000800123237010BD980000200000000093
:1001B000FC51000808B5034B1BB103490348AFF3DA
:1001C000008008BD000000009C000020FC510008D9
:1001D000034613F8012B002AFBD1181A0138704787
:1001E00001F0FF01102A2BDB10F0070F08D010F8E8
:1001F000013B013A8B422DD010F0070F42B3F6D1EC
:10020000F0B441EA012141EA014122F007047FF004
:1002100000070023F0E80256083C85EA010586EA5B
:10022000010685FA47F5A3FA87F586FA47F6A5FA97
:1002300087F68EB9EED1F0BC01F0FF0102F00702A3
:1002400032B110F8013B013A83EA010313B1F8D14E
:100250000020704701387047002D06BF354603382F
:10026000073815F0010F07D1013015F4807F02BF68
:10027000013015F4C03F0130F0BC0138704700BFB9
:10028000012B03D0012B0AD000207047012AF9D19D
:1002900009A3D3E90023C1E90023012070470B2AF9
:1002A00001D00020704706A3D3E90023C1E9002351
:1002B00001207047AFF300809E6AC421818A46EE18
:1002C000D5A4D139F922B6A7002302E0C3540133E3
:1002D000DBB20F2BFAD9704730B583B00446002546
:1002E0008DF807508DF806500560C0F8035001F0F6
:1002F00043FD0E4BA3FB0030800902AB43F8080D11
:1003000020222946204603F0D3FA0DF107030222EA
:100310002021204603F0CCFA0DF10603032222210E
:10032000204603F0C5FA03B030BD00BFD34D6210C4
:10033000F0B583B0044640F27912002103F0DDFFEE
:100340002046FFF7C9FF0123E37100222272637286
:1003500002AB104A43F8042D20225021204603F01E
:10036000A7FA04F11800FFF7AFFF0B4E293406F18E
:10037000200735460FCD20606160A260E3602E4605
:100380001034BD42F5D1286820602B7923714E20AE
:1003900003B0F0BD1C0173EA3C52000800000000ED
:1003A00030B5E7B0044607AD40F279120021284687
:1003B00003F0A3FF2846FFF7BBFFE17E05900495FD
:1003C00000230393A37E0293193401940123009325
:1003D00004A3D3E90023024803F0CDF867B030BD91
:1003E000B40000209E6AC421818A46EEF0B585B033
:1003F00002F0FCF800230293ADF80C303E4CA4FB55
:100400000034A40C0923591CB4FBF1F201FB124285
:1004100022B1022B4BD9013BDBB2F4E7B4FBF1F183
:100420004A1EB2F5806F42D2C3EBC306F21C082409
:1004300092FBF4F2D5B25F1BFFB2AB421DD9D2B230
:100440004FF47A7402FB04443A440132B4FBF2F2F2
:1004500092B2B2F5617F06D9751E082695FBF6F5B6
:10046000EDB25B1BDFB26B1EDBB20F2B0CD8002F83
:1004700037D0082F37D9002207E0204B204A40F21E
:100480001511204803F0DAFE0022EB1903FB0113DB
:10049000B0FBF3F01C4B984227D132B3ADF80810F3
:1004A00001238DF80C308DF80A508DF80B70002167
:1004B00002A803F0DBFC002102A803F0D7FC134CD8
:1004C00000230193124B0093124B4FF480621249A8
:1004D000204602F0A5FF6F21204602F0C9FF05B0BB
:1004E000F0BD0022D1E70122CFE70C4B044A40F2D5
:1004F0002F11044803F0A2FE83DE1B436452000860
:10050000145200087852000840420F00B400002046
:1005100081020008890A0008D80000201C55000844
:1005200008B5084803F075F802E0064803F071F8D2
:1005300038B103F07FFD0028F7DD024803F06FF8C3
:10054000F3E708BDB400002000B585B0684603F0AD
:10055000FBFD10B905B05DF804FB01F00DFC4FF494
:100560007A7202FB00F200236946024803F026FA81
:10057000F0E700BFB400002010B588B001F0FCFB2C
:10058000174B1B6803F57A73984201D208B010BD6F
:1005900001F0F2FB124B186001214FF0904002F085
:1005A00054FA01214FF0904002F04FFA06AC204679
:1005B000FFF792FE07230493039418230293094B39
:1005C000019340F25513009303A3D3E90023064897
:1005D00002F06EFFDAE700BFF1C6A7C1D068080FCE
:1005E000D8040020DC040020B400002070B582B0E4
:1005F0000C4600238DF8073001238DF806300028C3
:1006000065D005460DF1070305220021204603F0C1
:100610004FF90DF1060303220521204603F048F9A6
:1006200005F1080340220821204603F041F90DF1AD
:10063000070305224821204603F03AF90DF106038D
:1006400003224D21204603F033F905F12003402217
:100650005021204603F02CF90DF1070306229021CA
:10066000204603F025F90DF10603022296212046CB
:1006700003F01EF905F1180340229821204603F0EB
:1006800017F90DF107030622D821204603F010F9CF
:100690000DF106030222DE21204603F009F905F1DF
:1006A00010034022E021204603F002F924342E6892
:1006B0003046FFF78DFD02463146204603F012FE1C
:1006C0002868FFF785FD243080B202B070BD002598
:1006D0008DF806500DF1070305222946204603F048
:1006E000E7F80DF1060303220521204603F0E0F8A8
:1006F0000DF1070306220821204603F0D9F80DF179
:10070000060302220E21204603F0D2F80DF1070362
:1007100006221021204603F0CBF80DF10603022239
:100720001621204603F0C4F8E5700420CDE730B56B
:100730009FB00024179419941A940F941094119454
:10074000129413943C222146684603F0D6FD0125FD
:1007500014954FF4803315931695189502221B9229
:100760001C934FF4E0131D9314A801F01FFB0F23FB
:100770000F93109511944FF48063129313942146B4
:100780000FA801F05DFE8423009304944FF480735E
:100790000993684601F056FF1FB030BD08B51341FC
:1007A00013F0010F04D1002289B202F049F908BD0B
:1007B000012289B202F044F9F9E7000070B501F0B6
:1007C000BDFAFFF7B4FF534B1B68534AA2FB032348
:1007D0009B09013BB3F1807F09D2504A5360504BD3
:1007E000F02183F82310002393600723136000F0A7
:1007F00063F900F0D3F900F017FA00F0B1FA00F055
:1008000001FB484C00224FF48051204602F018F9B9
:1008100000224FF40051204602F012F9002408E0B3
:1008200001214FF0904002F010F9322001F0AAFAB5
:100830000134052CF4DDFFF7D9FD60E004EB840200
:10084000D300394AD5582846FFF7C2FC024629464C
:10085000364804F021F810B10134A4B256E004EB9C
:100860008406F300304C1C442E4DA36800224FF444
:1008700080412846FFF792FFA36801224FF4004110
:100880002846FFF78BFFA36802224FF480614FF0E8
:100890009040FFF783FFA36803224FF400714FF0ED
:1008A0009040FFF77BFFA36804224FF480714FF064
:1008B0009040FFF773FFA36805224FF480514FF07B
:1008C0009040FFF76BFFA36806224FF400614FF0E2
:1008D0009040FFF763FFA36807224FF400511448CC
:1008E000FFF75CFFA368082201212846FFF756FFA7
:1008F000A368092208214FF09040FFF74FFFFFF750
:100900000FFEFFF721FEFFF737FE0024002C95D0E5
:100910000024A9E730000020D34D621010E000E071
:1009200000ED00E000040048000000203452000800
:100930000008004800000000F0B59FB007464FF6E1
:10094000FF73ADF8763000248DF875400022002347
:10095000CDE91A230DF17603009323460D2221469B
:1009600002F066FE0DF175030093234603220D216C
:10097000384602F05DFE9DF87530012B0FD0102532
:10098000BB8A2E46002D14DBF610764213FA86F64B
:10099000B6B20024169417941894199416E01AAB62
:1009A0000093234640221021384602F041FE502594
:1009B000E6E7EE1DE8E716AB234400930023082288
:1009C0002946384602F034FE08350134A642F2DCEE
:1009D0009DF85830002B42D1BDF87630002B48D11D
:1009E00003EB8303DA00264D15441DB19DF87530E5
:1009F000012B39D0002406943C22214607A803F09D
:100A00007CFC06AE31462846FFF7F0FDF97E0590E6
:100A100004960394BB7E0293193701970B2300932E
:100A200015A3D3E90023174802F0A5FD1FB0F0BDC0
:100A300004EB8402D300124AD5582846FFF7C8FBBE
:100A40000246294616A803F027FF10B10134A4B2CC
:100A500006E004EB8406F300094D1D44C5E70024BD
:100A6000002CE5D00025C0E7DDE91A23C5E9022303
:100A7000C0E70025BEE700BFD5A4D139F922B6A74B
:100A800000000020B400002010B50C460B7E012BA6
:100A900003D0237E012B07D010BDCB8A012BF8D1C8
:100AA0000846FFF77DFCF4E7E38A0B2BF4D12046E0
:100AB000FFF742FFF0E77047F0B58BB000240594D4
:100AC0000694079408940994314B5A6942F4002221
:100AD0005A615A6902F400220192019A5A6942F459
:100AE00080025A615A6902F480020292029A5A699B
:100AF00042F400325A615A6902F400320392039AB6
:100B00005A6942F480225A615B6903F4802304939A
:100B1000049B204F22464FF40051384601F090FFCD
:100B2000224641F609714FF0904001F089FF1A4DBD
:100B300022464FF20701284601F082FF4FF400538E
:100B40000593012606960794089405A9384601F0F6
:100B5000ADFE41F60973059306960794089405A91E
:100B60004FF0904001F0A2FE4FF207030593069666
:100B70000794089405A9284601F098FEF0230593F0
:100B80000694079405A9284601F090FE0BB0F0BD2D
:100B900000100240000800480004004800B58BB077
:100BA00000230793089309930193029303930493FB
:100BB000059306931B484FF0A04202604360836098
:100BC0000361C361436203630122C262C3600262C4
:100BD0004363042242618361836300F0C9F9C0B9B1
:100BE0000AA9002341F80C3D0E4800F0DFFC98B93B
:100BF000102301930123029300230493039305938D
:100C0000069301A9074800F0FBFA40B90BB05DF864
:100C100004FBFFF750FFE3E7FFF74DFFE8E7FFF7BF
:100C20004AFFF3E75805002000B587B00023009382
:100C3000019302930393049305931648164A0260A6
:100C4000436083600361C361436203630122C26244
:100C5000C36002624363042242618361836300F0E4
:100C600087F980B9042300930123019300230393A0
:100C70000293049305936946064800F0C1FA28B927
:100C800007B05DF804FBFFF716FFEBE7FFF713FF74
:100C9000F6E700BF040500200001005000B58BB04E
:100CA0000023059306930793089309930368B3F110
:100CB000A04F05D0274A934227D00BB05DF804FB24
:100CC000254A136801331360012B13D0234B5A6953
:100CD00042F400325A615B6903F400330293029BD1
:100CE000062305930323069305A94FF0904001F0D6
:100CF000DDFDE2E7194B5A6942F080525A615B69A7
:100D000003F080530193019BE0E7134A136801331A
:100D10001360012B13D0114B5A6942F400325A610F
:100D20005B6903F400330493049BF02305930323CE
:100D3000069305A94FF0904001F0B8FDBDE7074BC1
:100D40005A6942F080525A615B6903F08053039301
:100D5000039BE0E700010050E00400200010024087
:100D600008B50B480B4B03601023436000238360DE
:100D7000C36003614361037643768376C37603776A
:100D8000437700F0BDFC00B908BDFFF794FEFBE718
:100D9000AC0500200064004000B589B00023039337
:100DA00004930593069307930268144B9A4202D06A
:100DB00009B05DF804FB03F5D633DA6942F000723E
:100DC000DA61DA6902F000720192019A5A6942F41A
:100DD00080225A615B6903F480230293029B4FF4E3
:100DE0004073039302230493032306930923079379
:100DF00003A9034801F05AFDDAE700BF0064004090
:100E00000004004808B50B480B4B03604FF4164331
:100E1000436000238360C36003610C2242618361ED
:100E2000C3610362436200F02FFF00B908BDFFF702
:100E300042FEFBE7D40500200048004000B589B021
:100E40000023039304930593069307930268144BBE
:100E50009A4202D009B05DF804FB03F5E433DA6985
:100E600042F48022DA61DA6902F480220192019A66
:100E70005A6942F480225A615B6903F48023029329
:100E8000029B4FF4406303930223049303230693CE
:100E90000723079303A9034801F008FDDAE700BF21
:100EA00000480040000400487047FEE7FEE7FEE708
:100EB000FEE770477047704708B500F051FF08BD66
:100EC00082B00A4B9A6942F001029A619A6902F073
:100ED00001020092009ADA6942F08052DA61DB691D
:100EE00003F080530193019B02B070470010024051
:100EF00038B50268936803F00303012B01D000208A
:100F000038BD136813F0010F2FD0936803F00D0361
:100F1000012B09D0436C43F010034364836C43F00E
:100F2000010383640120EBE70446936843F0020366
:100F30009360036803221A6000F01EFF05462368D1
:100F40009B6813F0010F0ED000F016FF401B022823
:100F5000F5D9636C43F010036364A36C43F00103A1
:100F6000A3640120CCE70020CAE70020C8E7000006
:100F700030B597B000230093002800F02E8104467E
:100F8000436C13F0100F52D1436CABB100202368B7
:100F90009A6812F0805F03D09B6813F0005F47D01F
:100FA000636C23F0120343F010036364A36C43F0FB
:100FB0000103A36401203BE083640365C36480F8FC
:100FC0004030FFF76BFE23689B6813F0805F01D011
:100FD0000020DCE72046FFF78BFF636C13F0100F57
:100FE000D5D10028D3D1636C23F4885323F00203B6
:100FF00043F0020363642268936823F040539360D4
:101000002268936843F080539360754B1B68754A60
:10101000A2FB03239B0C03EB83035A00009202E024
:10102000009B013B0093009B002BF9D1AFE7002010
:10103000636C13F0100F40F0C780002840F0C480AC
:1010400023689A6812F0040240F0BE80616C21F4BB
:10105000817141F002016164B3F1A04F15D0624982
:101060008B420FD06149B3F1A04F10D05E4DAB421F
:1010700068D05F4DAB4269D05E4DAB4269D0002372
:10108000019307E001F50071EDE75B49EBE703F53C
:10109000807301932568AB6803F00303012B5BD0D9
:1010A000019B23B19D6805F00305012D59D08B6884
:1010B00023F4403365682B438B60E1694B03A56BD8
:1010C000012D01D04FF480521343E2681343A2680C
:1010D0001343626A012A49D0E26A012A0AD02168D0
:1010E000434DA94255D005F58075A94251D0216BD9
:1010F0000A4313432268916811F00C0F0BD1D16899
:1011000021F4804121F00201D160A169626B52009B
:1011100042EA813213432168CD68384A2A4013439A
:10112000CB602369012B46D02268136B23F00F0399
:1011300013630023A364636C23F0030343F00103F0
:10114000636448E04FF0A0430193A3E7294B019368
:10115000A0E7274B01939DE72B6813F0010FACD15B
:101160009EE71B6813F0010FA7D1A0E731B9A26A6F
:10117000013A43EA424343F48033ADE7626C22F024
:10118000220242F020026264A26C42F00102A264D8
:10119000A2E7B2F5307F08D0B2F5807F08D0B2F573
:1011A000E07FA4D14FF48072A1E74FF4E0729EE794
:1011B0004FF430729BE721680B6B23F00F03226A18
:1011C000013A13430B63B4E7636C23F0120343F05B
:1011D00010036364012017B030BD0120FBE700BF9E
:1011E0003000002083DE1B43000100500007005048
:1011F00000040050000500500003005007C0F0FF3D
:1012000030B496B00022009290F84020012A00F0FD
:10121000BB810346012280F840200068826812F0FA
:10122000040F40F0A6814A68042A31D8046B02EB0F
:10123000420255001F22AA4024EA02020C68AC4078
:10124000224302631868826812F00C0F68D10A68A2
:10125000092A4ED9846902EB42021E3A07259540BD
:1012600024EA05048D6805FA02F222438261486986
:101270001C68E268C2F3C102520000FA02F2086977
:101280000138032800F29580DFE800F040727D8885
:10129000092A0ED8446B02EB420255001E3D1F2264
:1012A000AA4024EA02020C6804FA05F52A434263C4
:1012B000C8E70E2A0ED8846B02EB420255003C3D73
:1012C0001F22AA4024EA02020C6804FA05F52A4308
:1012D0008263B7E7C46B02EB420255005A3D1F22FE
:1012E000AA4024EA02020C6804FA05F52A43C26304
:1012F000A8E7446902EB42020725954024EA050469
:101300008D6805FA02F222434261B0E7206E9F4DDC
:101310000540086842EA8062154345F000452566AD
:101320001868826802F00302012A75D0CA68012A8F
:1013300078D0D0F8B0200D680124AC4022EA040235
:10134000C0F8B0201A68B2F1A04F00F09680904823
:10135000824200F090808F4C0868102800F08F8047
:10136000112800F0A080122800F0A280002005E1E2
:10137000606E864D0540086842EA8062154345F07C
:1013800000456566CCE7A06E804D0540086842EADE
:101390008062154345F00045A566C1E7E56E7B48D0
:1013A00028400D6842EA8562024342F00042E2664C
:1013B000B6E7226E02F0F8420868B2EB806F1CD0EC
:1013C0001868426E02F0F8420C68B2EB846F19D0D4
:1013D0001868826E02F0F8420C68B2EB846F16D087
:1013E0001868C26E02F0F8420C68B2EB846F97D1B5
:1013F000C26E22F00042C26692E7226E22F00042E4
:101400002266DDE7426E22F000424266E0E7826E2D
:1014100022F000428266E3E7026812F0010F85D0F5
:101420000020ABE0D0F8B0200D680124AC4022438E
:10143000C0F8B0200A68092A0ED91D68A86902EB15
:1014400042021B3A0724944020EA04008C6804FA04
:1014500002F20243AA6175E71D686869013202EB76
:1014600042020724944020EA04008C6804FA02F245
:1014700002436A6166E7484C6EE7474C6CE7A56833
:1014800015F4000F7FF46CAFB2F1A04F16D04048B6
:1014900082422CD0414882422DD0414882422DD0F8
:1014A000002201920DE0A56815F0807FECD05AE78C
:1014B000A06810F4800FE7D000205FE002F5807292
:1014C00001921868826802F00302012A19D0019A79
:1014D00022B1956805F00305012D1CD00A68102A79
:1014E0001ED0112A36D0122A3DD0002046E04FF0FF
:1014F000A0420192E5E72A4A0192E2E7274A0192D7
:10150000DFE7026812F0010FE1D05A6C42F02002CE
:101510005A64012032E0126812F0010FF5D1DDE7C4
:10152000B0F1A04FDDD1A26842F40002A2601D4AD2
:1015300012681D49A1FB0212920C02EB82025100BB
:10154000009102E0009A013A0092009A002AF9D133
:10155000002013E0B0F1A04FC5D1A26842F0807224
:10156000A26000200AE0A26842F48002A26000208B
:1015700004E05A6C42F020025A640120002283F8F1
:10158000402016B030BC70470220FAE700F0FF831D
:1015900000010050000700500003005000040050FC
:1015A000000500503000002083DE1B4370B497B06C
:1015B00003460268B2F1A04F0BD04C48824249D09A
:1015C0004B4882424AD04B4882424AD00022019284
:1015D00002E002F580720192019A002A00F08280F6
:1015E00093F8400001287FD0012083F8400018685C
:1015F000846814F0040F6AD1946814F0040F66D163
:10160000B0F1A04F32D0394CA0422DD03A480C68EE
:10161000002C39D0846824F460444D685E6B45EA40
:1016200046352C4384601D68AC6804F00304012C2B
:101630001ED0946804F00304012C1FD0826822F4A9
:10164000716222F00F020C68896821430A438260AC
:10165000002041E04FF0A0420192BDE7254A0192EF
:10166000BAE7234A0192B7E72448D0E72348CEE7F8
:101670002C6814F0010FDCD000202DE0126812F06D
:10168000010FDBD0002027E0816821F460418160F8
:101690001C68A16801F0030101290CD0916801F0D8
:1016A000030101290DD0826822F4716222F00F0239
:1016B0008260002010E0216811F0010FEED00020C0
:1016C0000AE0126812F0010FEDD0002004E05A6C1D
:1016D00042F020025A640120002283F8402017B013
:1016E00070BC70470120FAE70220F8E700010050C3
:1016F0000004005000050050000700500003005097
:10170000002800F0A18038B5044690F82030D3B10D
:101710002268136823F00203136000F02DFB0546D6
:1017200023685A6812F0020F10D000F025FB401B0E
:101730000A28F5D9636A43F400336362052384F809
:101740002030012038BDFFF727FBE1E71A6842F09F
:1017500001021A6000F010FB054623685A6812F077
:10176000010F0DD100F008FB401B0A28F5D9636A70
:1017700043F400336362052384F820300120E1E75D
:10178000227E012A3DD01A6822F080021A60637E10
:10179000012B3BD02268136823F040031360A37E23
:1017A000012B39D02268136823F020031360E37EF5
:1017B000012B37D02268136843F010031360237F96
:1017C000012B35D02268136823F008031360637F70
:1017D000012B33D02268136823F004031360A3683D
:1017E000E268134322691343626913436268013A52
:1017F00021681343CB6100206062012384F820300C
:10180000A0E71A6842F080021A60C0E722681368F5
:1018100043F040031360C2E72268136843F02003DB
:101820001360C4E72268136823F010031360C6E74F
:101830002268136843F008031360C8E7226813683E
:1018400043F004031360CAE70120704710B5044653
:1018500083680269134342691343C2691A430168EA
:101860000B6823F4164323F00C0313430B60026848
:10187000536823F44053C1680B4353608369026A81
:101880001A4301688B6823F4306313438B60036849
:10189000914A93421FD0914A93422FD0904A93424B
:1018A00046D0904A93425DD08F4A934274D0102222
:1018B000E169B1F5004F00F08B80082A00F20A813F
:1018C000DFE812F0CE00DA00E6000801F2000801BD
:1018D00008010801FE0002F55842126B02F00302F3
:1018E000032A09D8DFE802F0020406720122DFE7CA
:1018F0000422DDE70822DBE71022D9E702F5E63211
:10190000126B02F44032B2F5803F0BD007D9B2F52A
:10191000003F09D0B2F5403F08D10222C8E72AB9FA
:101920000022C5E70422C3E70822C1E71022BFE76F
:1019300002F5E432126B02F44022B2F5802F0BD094
:1019400007D9B2F5002F09D0B2F5402F08D10222F5
:10195000AEE72AB90022ABE70422A9E70822A7E7ED
:101960001022A5E702F5E232126B02F44012B2F542
:10197000801F0BD007D9B2F5001F09D0B2F5401F68
:1019800008D1022294E72AB9002291E704228FE7C6
:1019900008228DE710228BE702F5E032126B02F489
:1019A0004002B2F5800F0BD007D9B2F5000F09D075
:1019B000B2F5400F08D102227AE72AB9002277E770
:1019C000042275E7082273E7102271E702226FE70D
:1019D000082A42D8DFE802F0051722412D41414193
:1019E000380000F003FE6268530803EB4003B3FBCA
:1019F000F2F39BB2002023F00F02C3F34203134320
:101A00002268D36010BD00F007FE6268530803EB44
:101A10004003B3FBF2F39BB20020ECE7626853088B
:101A200003F5740303F51053B3FBF2F39BB20020EC
:101A3000E1E700F0C7FC6268530803EB4003B3FB27
:101A4000F2F39BB20020D6E76268530803F58033B7
:101A5000B3FBF2F39BB20020CDE701200023CAE7DD
:101A600000F0C4FD636800EB5300B0FBF3F02368A3
:101A700080B2D8600020C5E700F0CEFD636800EBBF
:101A80005300B0FBF3F0236880B2D8600020B9E7C0
:101A900061684A0802F5F40202F59052B2FBF1F2D5
:101AA00092B2DA600020ADE700F08CFC636800EBD6
:101AB0005300B0FBF3F0236880B2D8600020A1E7A8
:101AC00061684A0802F50042B2FBF1F292B2DA60B4
:101AD000002097E7012095E70038014000440040CE
:101AE00000480040004C004000500040436A13F0A2
:101AF000010F06D00268536823F40033816A0B4358
:101B00005360436A13F0020F06D00268536823F44F
:101B10008033C16A0B435360436A13F0040F06D04D
:101B20000268536823F48023016B0B435360436ABC
:101B300013F0080F06D00268536823F40043416B8A
:101B40000B435360436A13F0100F06D0026893688A
:101B500023F48053816B0B439360436A13F0200F8F
:101B600006D00268936823F40053C16B0B43936063
:101B7000436A13F0400F0AD00268536823F48013BD
:101B8000016C0B435360036CB3F5801F0BD0436AA9
:101B900013F0800F06D00268536823F40023816C91
:101BA0000B43536070470268536823F4C003416CD1
:101BB0000B435360EBE72DE9F04105460F4616460F
:101BC0009846069C2B68DB6937EA03030CBF0123A8
:101BD0000023B3421DD1B4F1FF3FF3D02CB100F08C
:101BE000CBF8A0EB0800A042ECD92A68136823F4D4
:101BF000D07313602A68936823F001039360202355
:101C000085F8693085F86A30002385F8683003204C
:101C100000E00020BDE8F08130B583B00446002329
:101C2000C36600F0A9F8054623681B6813F0080F87
:101C30000ED123681B6813F0040F17D1202384F8FA
:101C4000693084F86A30002084F8680003B030BD41
:101C50006FF07E430093034600224FF400112046AC
:101C6000FFF7A9FF0028E4D00320EFE76FF07E43E1
:101C700000932B4600224FF480012046FFF79BFF84
:101C80000028DBD00320E1E778B310B5044690F8D4
:101C900069300BB3242384F869302268136823F079
:101CA000010313602046FFF7D1FD012813D0636ABA
:101CB000BBB92268536823F4904353602268936849
:101CC00023F02A0393602268136843F00103136032
:101CD0002046FFF7A1FF10BD80F86830FFF7AEF88F
:101CE000D8E72046FFF702FFE3E701207047000036
:101CF00010B504460E4B18784FF47A73B3FBF0F32B
:101D00000C4A1068B0FBF3F000F0EAFE68B90F2C43
:101D100001D901200AE0002221464FF0FF3000F0F7
:101D2000ABFE054B1C60002000E0012010BD00BF91
:101D300028000020300000202C00002008B5074AB1
:101D4000136843F010031360032000F083FE0020AB
:101D5000FFF7CEFFFFF7B4F8002008BD00200240D7
:101D6000034A1168034B1B780B441360704700BF94
:101D70004406002028000020014B1868704700BF6F
:101D80004406002038B50446FFF7F6FF0546B4F1D7
:101D9000FF3F02D0044B1B781C44FFF7EDFF401BB4
:101DA000A042FAD338BD00BF28000020002800F070
:101DB000F58270B582B00446036813F0010F3BD082
:101DC000B54B5B6803F00C03042B1ED0B24B5B6871
:101DD00003F00C03082B13D06368B3F5803F68D081
:101DE000002B40F0928003F1804303F504331A681E
:101DF00022F480321A601A6822F480221A605DE0B0
:101E0000A54B5B6813F4803FE6D04FF4003393FAA0
:101E1000A3F3A14B19684FF4003393FAA3F3B3FA79
:101E200083F303F01F03012202FA03F30B4203D0F2
:101E30006368002B00F0B482236813F0020F00F0F7
:101E4000C680954B5B6813F00C0F00F09C80924BA2
:101E50005B6803F00C03082B00F08F802369002BD4
:101E600000F0F380012292FAA2F3B3FA83F303F1B4
:101E7000845303F584139B001A60FFF77DFF05462A
:101E8000022393FAA3F3844B1968022393FAA3F372
:101E9000B3FA83F303F01F03012202FA03F30B42A8
:101EA00040F0C480FFF768FF401B0228E8D90320F8
:101EB00083E2794A136843F480331360764AD36A25
:101EC00023F00F03A1680B43D3626368002B36D065
:101ED000FFF752FF05464FF4003393FAA3F36E4B1E
:101EE00019684FF4003393FAA3F3B3FA83F303F0C2
:101EF0001F03012202FA03F30B429DD1FFF73CFFBF
:101F0000401B6428E7D9032057E2B3F5A02F09D07E
:101F1000614B1A6822F480321A601A6822F4802217
:101F20001A60CBE703F18043A3F53C331A6842F40F
:101F300080221A601A6842F480321A60BEE7FFF706
:101F40001BFF05464FF4003393FAA3F3524B196875
:101F50004FF4003393FAA3F3B3FA83F303F01F03B0
:101F6000012202FA03F30B423FF466AFFFF704FFCE
:101F7000401B6428E6D903201FE2474B5B6813F43B
:101F8000803F7FF46BAF022393FAA3F3424B1968AF
:101F9000022393FAA3F3B3FA83F303F01F0301229E
:101FA00002FA03F30B4204D02369934201D00120CB
:101FB00003E23948036823F0F8036169F82292FAD2
:101FC000A2F2B2FA82F201FA02F21343036023682A
:101FD00013F0080F00F08C80A369002B60D0012162
:101FE00091FAA1F2B2FA82F22C4B13449B001960D1
:101FF000FFF7C2FE0546022393FAA3F293FAA3F277
:1020000093FAA3F2244A516A93FAA3F3B3FA83F33F
:1020100003F01F03012202FA03F30B4268D1FFF71A
:10202000ABFE401B0228E6D90320C6E11A4803682C
:1020300023F0F8036169F82292FAA2F2B2FA82F26E
:1020400001FA02F213430360C1E7012393FAA3F3F9
:10205000B3FA83F303F1845303F584139B00002246
:102060001A60FFF789FE0546022393FAA3F30A4B91
:102070001968022393FAA3F3B3FA83F303F01F035F
:10208000012202FA03F30B42A1D0FFF775FE401BB9
:102090000228E9D9032090E100100240208190102D
:1020A000012292FAA2F2B2FA82F2C04B13449B00D0
:1020B00000221A60FFF760FE0546022393FAA3F29E
:1020C00093FAA3F293FAA3F2B94A516A93FAA3F3EB
:1020D000B3FA83F303F01F03012202FA03F30B4266
:1020E00006D0FFF749FE401B0228E6D9032064E131
:1020F000236813F0040F00F0B380AD4BDB6913F0DD
:10210000805F20D1AA4BDA6942F08052DA61DB6944
:1021100003F080530193019B0125A64B1B6813F428
:10212000807F12D0E368012B23D073BB03F180437F
:1021300003F504331A6A22F001021A621A6A22F0C5
:1021400004021A621AE00025E7E79A4A136843F48A
:1021500080731360FFF710FE0646964B1B6813F45E
:10216000807FDFD1FFF708FE801B6428F5D90320AC
:1021700023E18F4A136A43F001031362E368002BE3
:1021800041D0FFF7F9FD06462BE0052B09D0884B1F
:102190001A6A22F001021A621A6A22F004021A6212
:1021A000ECE7834B1A6A42F004021A621A6A42F0A0
:1021B00001021A62E2E77E4B196A022393FAA3F343
:1021C000B3FA83F303F01F03012202FA03F3194267
:1021D00045D1FFF7D1FD801B41F28833984200F2D0
:1021E000E180022393FAA3F293FAA3F3B3FA83F301
:1021F0005B0943F00203022BDDD0022393FAA3F321
:102200006B4B596AD9E7FFF7B7FD064615E0684BF7
:10221000196A022393FAA3F3B3FA83F303F01F03BB
:10222000012202FA03F3194219D0FFF7A5FD801B22
:1022300041F28833984200F2B780022393FAA3F266
:1022400093FAA3F3B3FA83F35B0943F00203022B7F
:10225000DDD0022393FAA3F3554B596AD9E7B5BBF6
:10226000E369002B00F0A880514A526802F00C028A
:10227000082A00F0A480022B2FD04FF0807393FA2D
:10228000A3F3B3FA83F303F1845303F584139B00A0
:1022900000221A60FFF770FD04464FF0007393FAB6
:1022A000A3F3434B19684FF0007393FAA3F3B3FA07
:1022B00083F303F01F03012202FA03F319426BD0E8
:1022C000FFF75AFD001B0228E7D9032075E0384AC2
:1022D000D36923F08053D361C2E74FF0807393FA40
:1022E000A3F3B3FA83F303F1845303F584139B0040
:1022F00000221A60FFF740FD05464FF0007393FA85
:10230000A3F32B4B19684FF0007393FAA3F3B3FABE
:1023100083F303F01F03012202FA03F3194206D0EC
:10232000FFF72AFD401B0228E7D9032045E020499A
:102330004B6823F47413626A206A024313434B60B0
:102340004FF0807393FAA3F3B3FA83F303F184534A
:1023500003F584139B0001221A60FFF70DFD04466C
:102360004FF0007393FAA3F3114B19684FF0007309
:1023700093FAA3F3B3FA83F303F01F03012202FAE3
:1023800003F3194206D1FFF7F7FC001B0228E7D937
:10239000032012E0002010E000200EE00120704732
:1023A00001200AE0032008E0032006E020819010CD
:1023B0000010024000700040002002B070BD0120FB
:1023C000FBE700BF184B5B6803F00C02042A03D044
:1023D000082A03D0154870471548704703F4701158
:1023E0004FF4701292FAA2F2B2FA82F221FA02F2D9
:1023F0001049885C0C4AD26A02F00F020F2191FA50
:10240000A1F1B1FA81F1CA400B498A5C13F4803F13
:1024100005D0074BB3FBF2F300FB03F07047074B0B
:1024200003FB00F0704700BF0010024000127A006A
:102430000024F400A4520008B452000800093D0032
:10244000002800F0C08070B50446614B1B6803F0A3
:1024500007038B420CD25E4A136823F007030B4339
:102460001360136803F007038B4201D0012070BD95
:10247000236813F0020F06D0564A536823F0F00386
:10248000A068034353600D46236813F0010F5AD030
:102490006368012B2DD0022B40D0022292FAA2F2C7
:1024A0004C4A1068022292FAA2F2B2FA82F202F0C8
:1024B0001F02012101FA02F2104200F08680454914
:1024C0004A6822F0030213434B60FFF755FC0646AF
:1024D000404B5B6803F00C036268B3EB820F32D0B1
:1024E000FFF74AFC801B41F288339842F0D9032061
:1024F000BDE74FF4003292FAA2F2364A10684FF468
:10250000003292FAA2F2B2FA82F202F01F02012124
:1025100001FA02F20242D2D10120A8E74FF0007284
:1025200092FAA2F22B4A10684FF0007292FAA2F2CD
:10253000B2FA82F202F01F02012101FA02F2104205
:10254000BDD1012093E7224B1B6803F00703AB4288
:102550000CD91F4A136823F007032B431360136839
:1025600003F00703AB4201D0012080E7236813F09A
:10257000040F06D0174A536823F4E063E1680B4365
:102580005360236813F0080F07D0124A536823F4EE
:102590006053216943EAC1035360FFF713FF0D4BFA
:1025A0005B6803F0F003F02292FAA2F2B2FA82F230
:1025B000D340094AD35CD840084B18600020FFF78D
:1025C00097FB002053E70120704701204FE700BF31
:1025D0000020024000100240C452000830000020D9
:1025E000014B1868704700BF3000002008B5FFF7A6
:1025F000F7FF074B5B6803F4E0634FF4E06292FA85
:10260000A2F2B2FA82F2D340024AD35CD84008BDAB
:1026100000100240D452000808B5FFF7E1FF074B55
:102620005B6803F460534FF4605292FAA2F2B2FA7C
:1026300082F2D340024AD35CD84008BD0010024069
:10264000D4520008F0B583B00446036813F4803F09
:1026500048D0934BDB6913F0805F40F0D580904BFE
:10266000DA6942F08052DA61DB6903F0805301934A
:10267000019B01258B4B1B6813F4807F00F0C68003
:10268000874B1B6A13F4407322D0626802F44072D5
:102690009A421DD08248016A21F440764FF480337B
:1026A00093FAA3F2B2FA82F27F4F3A4492004FF0CB
:1026B000010CC2F800C093FAA3F3B3FA83F33B44CE
:1026C0009B0000221A60066211F0010F40F0B380F7
:1026D000734A136A23F4407361680B431362002D3D
:1026E00040F0D580236813F0010F06D06C4A136BBD
:1026F00023F00303A1680B431363236813F0020F55
:1027000006D0674A136B23F44033E1680B4313632D
:10271000236813F0040F06D0614A136B23F440239F
:1027200021690B431363236813F0200F06D05C4A22
:10273000136B23F01003E1690B431363236813F455
:10274000003F06D0564A536823F48003A16B0B4325
:102750005360236813F0400F06D0514A136B23F0E7
:102760002003216A0B431363236813F0080F06D07C
:102770004B4A136B23F4401361690B4313632368C3
:1027800013F0100F06D0464A136B23F44003A169DF
:102790000B431363236813F4007F06D0404A536849
:1027A00023F40003E16A0B435360236813F0800FA6
:1027B00006D03B4AD36A23F4F873616A0B43D362B1
:1027C000236813F4807F06D0354AD36A23F4785304
:1027D000A16A0B43D362236813F4805F06D0304AAA
:1027E000136B23F48073216B0B431363236813F47F
:1027F000005F53D02A4A136B23F40073616B0B43C1
:102800001363002003B0F0BD002533E7254A1368A9
:1028100043F480731360FFF7AFFA0646214B1B6841
:1028200013F4807F7FF42CAFFFF7A6FA801B642897
:10283000F4D90320E6E7FFF79FFA064615E0184BA8
:10284000196A022393FAA3F3B3FA83F303F01F0385
:10285000012202FA03F30B427FF43AAFFFF78CFA3E
:10286000801B41F28833984216D8022393FAA3F2D0
:1028700093FAA3F3B3FA83F35B0943F00203022B49
:10288000DDD0022393FAA3F3054B596AD9E7D36944
:1028900023F08053D36125E70320B3E70020B1E79D
:1028A000001002400070004000819010F0B482B02F
:1028B000002336E0042400E00024B4403C43023509
:1028C0005B4E46F825405B4C2568D44304EA050678
:1028D0004F6817F4803F01D042EA0506554D2E603F
:1028E0006D6804EA05064F6817F4003F01D042EA1C
:1028F0000506504D6E60AD6804EA05064F6817F492
:10290000801F01D042EA05064A4DAE60ED682C40BA
:102910004E6816F4001F01D042EA0504454AD4600F
:1029200001330A6832FA03F47ED001249C4022402D
:10293000F6D04D68022D01D0122D10D1DE080836D8
:1029400050F826C003F00705AF000F25BD402CEA64
:10295000050C0D69BD4045EA0C0540F82650066897
:102960005F000325BD40ED4305EA060C4E6806F006
:102970000306BE4046EA0C0606604E6806F1FF3CC0
:10298000BCF1010F03D9112E01D0122E10D186688F
:1029900005EA060CCE68BE4046EA0C06866046682C
:1029A00026EA04044E68C6F300169E40264346609D
:1029B000C46825408C68BC402C43C4604C6814F04B
:1029C000805FADD01C4CA56945F00105A561A469E7
:1029D00004F001040194019C9D08AE1C144C54F8B1
:1029E000267003F00304A6000F24B44027EA04076E
:1029F000B0F1904F3FF460AF104CA0420ED004F500
:102A00008064A0420CD004F58064A0420AD004F592
:102A10008064A0423FF44EAF05244EE701244CE70A
:102A200002244AE7032448E702B0F0BC704700BF25
:102A30000000014000040140001002400004004872
:102A40000AB98162704781617047436959404161A9
:102A500070470000074AD36823F4E0631B041B0C93
:102A6000000200F4E060184340F0BF6040F4003022
:102A7000D060704700ED00E030B4174BDB68C3F363
:102A80000223C3F10704042C28BF04241D1D062DB6
:102A900018D9033B4FF0FF3505FA04F421EA04018D
:102AA000994005FA03F322EA0303194300280BDBDC
:102AB0000901C9B200F1604000F5614080F80013DF
:102AC00030BC70470023E5E700F00F000901C9B2F0
:102AD000024B1954F4E700BF00ED00E014ED00E0F4
:102AE0000138B0F1807F0AD2064B5860064AF021C7
:102AF00082F823100020986007221A607047012096
:102B0000704700BF10E000E000ED00E01549D1F88B
:102B1000883043F47003C1F88830134B1A6842F0D0
:102B200001021A605868114A02405A601A6822F07D
:102B3000847222F480321A601A6822F480221A60A9
:102B40005A6822F4FE025A60DA6A22F00F02DA6250
:102B5000186B074A02401A6300229A604FF0006324
:102B60008B60704700ED00E0001002400CC07FF861
:102B7000CCFC00FF091A89B208B2002800DB7047BC
:102B8000203108B2FBE710B421F0604420F060422D
:102B9000C30FB3EBD17F11D000290BDB00280BDB77
:102BA000944203D094422CBF0023012318465DF8C1
:102BB000044B7047A40CF1E7920CF1E7C1F380716C
:102BC000C0F38073944204D094422CBF00230123AD
:102BD000ECE79942EAD1F7E710F0800F06D010F445
:102BE000004F01D10020704701207047022070473C
:102BF00010B50446FFF7F0FF022802D0C4F30740E7
:102C000010BDC4F30F2014F07F0FF9D100F00300C2
:102C1000F6E720B103698B4201D00068F9E77047FD
:102C20000020704780EA0120002307E0400080B2C6
:102C300080F4815080F001000133DBB2072B05D80E
:102C400010F4004FF2D1400080B2F5E7704770B544
:102C500016461D46002410E0C4F12002A4F1200312
:102C600026FA04F105FA02F2114325FA03F3194397
:102C7000C9B2FFF7D7FF0834A4B23F2CECD970BD1E
:102C800038B505E04D1C0978FFF7CCFF22462946F0
:102C9000541E002AF6D138BD30B40546002304E0A6
:102CA00001EB43142C60254601339A42F8D80023E7
:102CB0002B608280C380038130BC7047024600686D
:102CC00050B103681360D38801339BB2D38011895C
:102CD0008B4202D9138170470020704708B5FFF777
:102CE000EDFF034608B100220260184608BD2DE939
:102CF000F84FCC8AC4F30904062C1CD0264625467E
:102D00000024052D02D89FB2A7420AD89DB2A54241
:102D100012D83544CB8A65F30903CB820120BDE884
:102D2000F88F12F804C04F1987F81AC00135ADB2F8
:102D30000134A4B2E5E70024994693460E46824644
:102D4000CD8AC5F30905AA1F1C23B2FBF3F803FBC8
:102D500018281FFA88F84F687FBBFFF7BFFF0746A8
:102D60007060002846D04FF000081FFA89F1A14298
:102D70003CD8F28AC2F309030B4463F30902F282DE
:102D80000120CCE7013292B21F463B68002BF9D1FB
:102D900009EB0503063B1C25B3FBF5F39BB201339E
:102DA0009BB29A42E1D2B8F1000FDED15046FFF754
:102DB00095FF386008B30746D7E70122E5E71BF81F
:102DC0000400BB181871013292B20134A4B21B2A5C
:102DD00001D8A142F3D8A1420AD95046FFF77EFF9D
:102DE000386068B14FF000080746BEE74246EEE79C
:102DF0003846F9E76FF0020091E76FF002008EE7C6
:102E00006FF002008BE700002DE9F04190B10D4614
:102E100080460B7CABB1C769D7B13E463C46CCB1CE
:102E200069686068FFF7AFFEB0B923682646E3B172
:102E30001C46F4E70E4B0F4A4FF46F710E4801F039
:102E4000FDF90E4B0B4A40F2BD310B4801F0F6F98B
:102E5000C8F81C10BDE8F081A74202D035602C6094
:102E6000F8E72C60C8F81C50F4E72560F2E700BFD3
:102E7000EC54000860530008B4560008CC56000813
:102E800008B540B103780133DBB203701F2B01D9C1
:102E90000023037008BD034B034A40F25531034839
:102EA00001F0CCF9745600083C530008B4560008F1
:102EB00008B503680B600160C38813B1013BC38090
:102EC00008BD034B034A40F22F61034801F0B6F9F5
:102ED00044560008C0530008B456000870B50646B2
:102EE0000C4605E00D6806F10C00FFF7E1FF656098
:102EF00061680029F6D1E38A6FF30903E3820020B9
:102F0000002170BD08B5436883B9C37DC3F3840253
:102F1000013262F38603C375C38A6FF30903C38268
:102F2000C3F307236FF3C713C37508BD034B044AEC
:102F300040F22641034801F081F900BF9056000895
:102F40006C530008B45600082DE9F843089F4AB1B5
:102F50004FEAD10C03EBD70301F0070107F0070795
:102F60000A4431E01A4B1B4A4FF4A6611A4801F09B
:102F700065F901F0070807F0070E4646F04538BF2F
:102F80007646C6F10806541AA64228BF26464FF4D4
:102F90007F45F540EDB245FA0EF5CC0800EB0C0983
:102FA00019F8044004FA08F424FA0EF4E4B24FEAE3
:102FB000D70813F808E08EEA04042C408EEA040EC9
:102FC00003F808E0314437449142D2D1BDE8F88398
:102FD0000055000884530008B45600082DE9F04F4E
:102FE00087B0059203930490002840D08846049B44
:102FF0009B8ADA008A4240F2ED80059941448A4278
:1030000005D2D0B25FFA88F3C01AC3B20593059B0C
:10301000002B33D0049BDB68002B36D0B8F12F0F88
:1030200044D8C8F13003059A9A423CD35FFA88F33A
:10303000C3F13003DBB20293049B98680023009332
:10304000039B029C22464146FFF77EFFA044059A5F
:10305000141BE4B2049B9F8A07F10057063FFF0050
:10306000D3F80CA04FF03009A346544644E05A4B25
:103070005A4A40F252515A4801F0E0F8594B574A27
:1030800040F25E51564801F0D9F8049B1B69002BB1
:10309000C4D1049B986800230093039B059A414682
:1030A000FFF752FF6EE0059B0293C5E7059C0023E6
:1030B0000293CFE74C4B494A40F27F51484801F018
:1030C000BDF85D46C84530D3029B0093039B2A465A
:1030D000A8EB0901201DFFF737FFA844029B2B44F2
:1030E000DBB20293ABEB050B5FFA8BFBB14523D24E
:1030F000A7EB0A072468B1462CB3BBF1000F22D01E
:10310000002FD7D0BA46E02F28BF4FF0E00A0AEBD5
:103110000906B045EAD2A6EB08039B45D1D3F5B228
:103120005FFA88F3ED1AEDB2CCE7304B2B4A4FF43F
:10313000B1612B4801F082F82D4B284A40F29251A0
:10314000274801F07BF85C46BB4520D8049B1869F2
:1031500078B174B1C84521D3029E0096039B2246E4
:10316000A8EB0901FFF7F0FED8443444E3B2029320
:103170000024049B9B8AB8EBC30F16D8029B402BFC
:103180001AD804BBBDF9140007B0BDE8F08F194B85
:10319000124A4FF4B361124801F050F8134B0F4A32
:1031A00040F29D510E4801F049F8134B0B4A4FF481
:1031B000B5610B4801F042F8104B084A40F2A951A2
:1031C000074801F03BF80E4B044A40F2AA5104486C
:1031D00001F034F80020D7E7105500089453000898
:1031E000B456000820550008305500084455000822
:1031F0006C55000894550008BC550008EC550008B3
:103200000456000810B518B10246013900230CE03D
:10321000074B084A40F2C551074801F00FF8D05C4F
:10322000545CD4545054013301398B42F7D310BD50
:10323000E8560008B0530008B456000808B5FFF778
:103240003DFD034628B10022026042608260C260F8
:103250000261184608BD00002DE9F04F83B00193CC
:103260000C9EBDF83450009090B18A46934611F000
:10327000604F14D1002A7BD00DB1002E7BD0072DDA
:1032800014D94FF080094FF00008444647465BE0F0
:103290003D4B3E4A40F265313D4800F0CFFF3D4B8B
:1032A0003A4A40F266313A4800F0C8FF009F07F101
:1032B0000C00FFF7C3FF044600285FD02A463146C2
:1032C000083001F00FF86B1C23749BF8003003F0FA
:1032D0001F0343F0C00325442B724AF00043636090
:1032E00021463846FFF790FD0127384603B0BDE878
:1032F000F08F002306E0305DCA1810720133DBB294
:103300000134A4B2062B01D8AC42F4D3AC422CD089
:103310004FEA4812D2B242EA09099BF8002002F0B3
:103320001F0249EA0209CA1882F808904AF00042CE
:103330004A6001330B740098FFF766FD01373FB216
:1033400088F001084FF00009AC42CED0009B03F199
:103350000C00FFF773FF014698B1002CC9D1019B07
:1033600003721B0A43720223CCE74FF04009CFE7F8
:103370006FF00107B9E76FF00107B6E76FF00207DA
:10338000B3E76FF00207B0E7EC54000850530008B1
:10339000B45600082056000830B589B004460D46E2
:1033A00020220021684600F0A8FF04952046FFF780
:1033B00085FC054650B16C460FCC28606960AA6058
:1033C000EB600FCC28616961AA61EB61284609B006
:1033D00030BD10B504460C30FFF7DEFF034610B1D8
:1033E000A2690260A061184610BD38B504460D46BA
:1033F000806928B1FFF70DFC034650B1184638BD6F
:1034000004F10C00FFF7C8FF03460028F6D0A061C6
:10341000F4E729462046FFF7DCFF0346EEE700000D
:1034200010B5C8B1044600202060E06020616061F2
:103430002070A360029B6360A061E061039B236234
:103440005209B2F5803F01D34FF6FF7292B204F1F8
:103450000C00FFF721FC10BD024B034A4F2103482B
:1034600000F0ECFEE8540008DC520008B4560008F6
:1034700008B538B102785AB951B111F0800F07D1AF
:10348000017008BD054B064A7321064800F0D6FEC0
:10349000054B034A7D21034800F0D0FEEC540008A0
:1034A000E8520008B45600081C5500080078704720
:1034B0002DE9F04A85B0BDF830409DF838B00F9E38
:1034C000BDF840709EB3BBF11F0F4BD8CDE902236E
:1034D0000546FFF7EBFF814670BB072F45D834F058
:1034E000030345D13A4631464FF6FF70FFF7C8FB5C
:1034F00020F001004004400C400240EA0B6B240223
:1035000004F440744BEA040444EA09094FF6FF73DB
:10351000019700960D9A49462846FFF79DFE0446FE
:103520000D98FFF7ADFC204605B0BDE8F08A002FEE
:10353000C9D06FF00104F6E7240244EA0B6444EAC0
:103540000009072F0BD9DDE902234FF6FF70FFF7C3
:103550007EFB3A463146FFF793FB0346D8E74FF62A
:10356000FF73D5E76FF00104DDE76FF00304DAE7DE
:103570006FF00104D7E72DE9F04F83B09DF8384094
:103580009DF83CA0109EBDF8447086B31F2C3AD81D
:10359000904699468B460546FFF788FFB0B39DF8E5
:1035A00030301B0443EA046444EACA3444EA0B247E
:1035B000044344F08004072F1ED942464B464FF681
:1035C000FF70FFF744FB3A463146FFF759FB0346CD
:1035D000019700960D9A21462846FFF73DFE0446C6
:1035E000BAF1010F0BD0204603B0BDE8F08F002FD9
:1035F000CCD06FF00104F6E74FF6FF73E8E70D98C3
:10360000FFF73EFCEFE76FF00104ECE76FF0030417
:10361000E9E7C06908B1043070470020704708B579
:10362000C1690B68C3610C30FFF742FC08BD0000A4
:103630002DE9F04782B00A9E002800F0228104465E
:10364000002E00F02181551EEDB23F2D00F21F81AA
:10365000012A02D1002B40F01D8120461D46144650
:103660000023009301936B46FFF7B8FC071E40F35D
:10367000D1807B1E9BB23F2B1CD8A7421ADC14F0D2
:10368000070F0AD002AB03EBD40111F8083C6242E9
:1036900002F00702134101F8083C012C18D0082C55
:1036A00047D9102C48D9202C49D9402C09D84FF0A3
:1036B00008080EE0794B7A4A4FF40B71794800F014
:1036C000BDFD794B764A40F24521764800F0B6FDC3
:1036D000A04608F1FF33DBB2072B33D8FFF7A0FA7F
:1036E000002836D19DB1B4EBC80F10D0082C35D8C6
:1036F0009DF80010621E21FA02F212F0010F06D0AE
:103700000123A3405B42DBB20B438DF80030002D58
:1037100000F09280082C7AD9102C7FD9202C40F20E
:103720008180402C00F28180DDE90023C6E900237E
:1037300070E04FF00108CCE74FF00208C9E74FF006
:103740000408C6E7594B564A40F24921554800F053
:1037500075FD41466846FFF755FDC3E7102C0FD8AD
:10376000BDF80020631E22FA03F313F0010FCED040
:103770000123A3405B429BB21343ADF80030C6E780
:10378000202C0CD8009A631E22FA03F313F0010FC9
:10379000BDD00123A3405B421A430092B7E73F2C00
:1037A0002ED8DDE9009A04F1FF3CCCF12008A4F109
:1037B000210E29FA0CF00AFA08F840EA08002AFA61
:1037C0000EFE40EA0E0000F00102002313439ED0DB
:1037D0004FF0010CA4F12008C4F1200E0CFA08F3FC
:1037E0002CFA0EFE43EA0E030CFA04F2524263EB8B
:1037F000430349EA02004AEA0301CDE9000186E7F2
:10380000294B274A40F27721264800F017FD9DF901
:1038100000303370384602B0BDE8F087BDF90030A3
:103820003380F7E7009B3360F4E71F4B1C4A40F2FC
:1038300087211C4800F002FD012C0CD0082C0ED969
:10384000102C10D9202C12D9402C13D8DDE90023DC
:10385000C6E90023DEE79DF800303370DAE79DF813
:1038600000303370D6E7BDF800303380D2E7009BDC
:103870003360CFE70C4B0A4A4FF42571094800F03A
:10388000DDFC6FF00107C5E76FF00107C2E76FF0DD
:103890000107BFE76FF00107BCE700BFCC5300088A
:1038A00014530008B45600081C55000808540008BA
:1038B000F0B585B090B10E4614460546ABB1402A2E
:1038C0001AD802B3002202920392012C22D0082CB3
:1038D0003ED81B788DF8083001271FE0284B294A75
:1038E0004FF42A71284800F0A9FC284B254A40F2E1
:1038F000A921254800F0A2FC254B224A40F2AD2127
:10390000214800F09BFC224B1E4A40F2B3211E4886
:1039100000F094FC1B788DF808302746FFF780F9FB
:1039200048BB14F0070F0AD004AB03EBD40111F825
:10393000083C624202F00702934001F8083C0096FE
:103940002B462246002102A8FFF7FEFA05B0F0BD83
:10395000102C04D81B88ADF808300227DEE7202C95
:1039600003D81B6802930427D8E7D3E90023CDE9E5
:1039700002230827D2E7394602A8FFF743FCD0E725
:103980003854000828530008B4560008545400085E
:103990001C55000870B506460C4605E00D6806F19A
:1039A0000C00FFF785FAE560E1680029F6D10023F5
:1039B000E360A3602361A38270BD00002DE9F04F96
:1039C00093B007460D46CDE902230C682046FFF769
:1039D00003F90646022806D0C4F30628002C05DBAE
:1039E00013B0BDE8F08F4FF00008F7E714F0C04FB8
:1039F000F6D195F80C90B9F1000FF1D0022E04D059
:103A00003846FFF753FD4045EAD1C4F304630493FD
:103A100004F07F0A2046FFF7EBF8059040EA0643E2
:103A200043EA8A4343EA486809F1FF39A94499F80F
:103A300004905FEAD91B45D012A90022002361E956
:103A400008237C68CDF800A0334602463846A047DC
:103A50000028C5D041463846FFF7C7FC0446002879
:103A6000BED0DDE90A234FF6FF70FFF7F0F8A08221
:103A7000002C2FD0D4E90223DDE90201CDE9062391
:103A8000801A61EB0301CDE90801E07D09F01F0810
:103A90004146C0F38400FFF76DF88446DDE9062354
:103AA000134320D0A84A0023DDE908018B4208BF58
:103AB000824246D3BBF1000F45D0BCF1010F10DDAF
:103AC000012311E04146B869FFF7A3F80446002836
:103AD000CED185E79D4B9E4A4FF49D719D4800F0E5
:103AE000ADFB002300E00123002B2ED1BBF1000F22
:103AF00040D019F0400F3DD0DDE90212C4E90212B6
:103B000000230D930E931193CDE90A122B1D0C93F4
:103B10002B7B013BDBB2ADF83C30059BADF83E3072
:103B20008DF840608DF84180049B8DF842308DF80F
:103B300043A0BB680AA9384698472046FFF7E2F938
:103B40004EE70123D0E70023CEE7E37D69F3860348
:103B50006FF3C713E37521463846FFF7BFF9BBF192
:103B6000000FC3D1E37DC3F38402013262F3860305
:103B7000E37535E7C9F34013E27DB3EBD21F7FF461
:103B80002FAFC2F3840398457FF42AAFBBF1000F37
:103B900033D019F0400F30D12B7B032B7FF620AFB1
:103BA000DDE90223C4E90223AE1D2B7B033BDBB21C
:103BB0003246214607F10C00FFF799F8002814DB84
:103BC0002B796A7943EA022323832A7B033AD2B210
:103BD0003146A08AFFF754F8A082E37DDA43C2F3AE
:103BE000C01262F3C713E375FAE621463846FFF7C1
:103BF00075F92046FFF786F9F2E6BBF1000F02D116
:103C000019F0400F09D0297B0139C9B2E28AC2F309
:103C10000902052A63D8002325E02E1D2B7B013BDA
:103C2000DBB23246214607F10C00FFF760F80028AE
:103C300008DB2A7B013AD2B23146A08AFFF720F88E
:103C4000A082CAE721463846FFF748F92046FFF729
:103C500059F9C5E6E81890F804C0A01880F81AC011
:103C600001320133DBB2052A01D88B42F2D3DDE900
:103C700002BCCDE90ABC04F11A020C9262680D92F2
:103C80008B425ED22B4404330E93E38AC3F30903C1
:103C90001944ADF83C10059BADF83E308DF84060FE
:103CA0008DF84180049B8DF842308DF843A00023AD
:103CB00063602A7B013A291DA08AFEF7E1FFA082FA
:103CC000238B984203D1BB680AA9384698470AA9B2
:103CD0003846FFF75FFE2046FFF714F980E660687C
:103CE00010B14FF0060C04E00023C0E70CF11C0CEF
:103CF00018460368002BF9D128B1A2EB0C021B2A4D
:103D000008D8002318E0144B114A4FF4D871114819
:103D100000F094FA114B0E4A40F2B3110D4800F036
:103D20008DFA05EB030C9CF804E000EB020C8CF818
:103D300004E001320133DBB21B2A98D88B42F0D366
:103D400095E70023A0E700BF80841E006C540008A4
:103D500000530008B4560008845400089C5400081E
:103D600010B4034620F0604421F06042C80FB0EB6D
:103D7000D37F10D0002B0ADB00290ADB944203D04A
:103D800094422CBF002001205DF8044B7047A40C26
:103D9000F2E7920CF2E7C3F38073C1F380709442B0
:103DA00004D094422CBF00200120EDE78342EBD1E8
:103DB000F7E7021E06DB500512F0804F01D040F0FD
:103DC00002007047D30043F00400F5E710F0040F41
:103DD00007D1430D10F0020F01D043F08043184685
:103DE0007047C30843F00043F4E7002204E00133C6
:103DF000092BFCDD013292B2B2F57A7F07D243681B
:103E000003F00103DBB28B4203D00023F0E7002074
:103E10007047012070470000104B9B6913F0700F32
:103E20001BD04DF804BD0D4B00229A610C49D1E91D
:103E300002BC1BF101024CF10003C1E90223094B52
:103E40001B7823B9054B9B6913F0040F02D0034B79
:103E5000054A9A605DF804BB7047704700640040F3
:103E6000E8040020E404002080808000022900F2A1
:103E7000B380002800F0B38038B50388002B00F031
:103E8000B180B3F5806F00F2B0800379002B00F0B1
:103E9000AF80042B00F2AF808378002B00F0AE805F
:103EA000102B00F2AE80C378002B00F0AD80082B01
:103EB00000F2AD800C460546564A0023136053605D
:103EC0009360D360022914BF00210121524A11706E
:103ED00052484361036823F002030360036843F020
:103EE000010303600121FFF780FF002857D04B4BEF
:103EF00061221A602B79013B1B0603F04073AA78FC
:103F0000013A120402F470221343EA78013A1205CE
:103F100002F4E00213432A88013AC2F30902134370
:103F2000012C43D0002213433C4AD3615369002B38
:103F30003FD13A48036823F0010303600021FFF7F3
:103F400054FF00283BD0354AD2F8003223F47C538A
:103F500023F00E0343F4606343F00103C2F8003220
:103F6000D2F80032C3F305230E2B2FD12B4B0020A8
:103F7000C3F804026FF07042C3F80C22284AC3F859
:103F80001422C3F84002C3F844020122C3F81C22E1
:103F9000D3F8002222F00102C3F8002238BD1F4BE3
:103FA0004FF400421A606FF47A70F7E74FF0004266
:103FB000B9E71C4B1C4AE9211C4800F03FF9174B9C
:103FC0004FF400421A60A0F2EA30E7E7184B164AB5
:103FD000FF21164800F032F96FF0010070476FF0D2
:103FE000010070476FF00100D8E76FF00100D5E7DE
:103FF0006FF00100D2E76FF00100CFE76FF0010032
:10400000CCE76FF00100C9E76FF00100C6E76FF081
:104010000100C3E7E8040020E4040020006400403D
:10402000AAAAAA0A285700080457000860570008DF
:104030008C570008002875D070B582B0044603681C
:1040400013F0005F71D1FFF7E7FE394B9B6803F077
:10405000E053B3F1E05F63D0354B9A68C2F38062FE
:104060008DF804209A68C2F3C0628DF805209B6821
:10407000C3F300738DF806300025FF2602E02E46BC
:104080000135EDB2022D13D802AB2B4413F8043CDA
:10409000002BF4D105F118031B01254AD058FFF776
:1040A00095FE01462068FFF75BFE0028E8D127E077
:1040B000FF2E27D0022E2CD8350105F1804505F5BD
:1040C000CB45237B6B60E27AA37A1B0443EA02634D
:1040D000627A43EA0223227A1343EB60E279A379FE
:1040E0001B0443EA0263627943EA02232279134301
:1040F000AB602068FFF75DFE40F001002860012002
:1041000002B070BD0B4B0C4A4FF4AF710B4800F07E
:1041100095F80B4B084A4FF4B471084800F08EF83C
:104120000026C9E76FF0010070470648E8E700BFC6
:1041300000640040D8570008145700086057000872
:10414000E857000815FCFFFF002843D02DE9784808
:104150000546FFF761FE0023012B38D81F4C04EB06
:1041600003141F4A52F82360326812F0030F01D182
:104170000133F1E7336813F0100F08D01949D1E982
:1041800000BC1BF101024CF10003C1E900232068CF
:10419000FFF71CFE2860636803F00F032B73A2680F
:1041A000E3682A71C2F307216971C2F30741A9715B
:1041B000120EEA712B72C3F307226A72C3F307422D
:1041C000AA721B0EEB7238233360012000E000203E
:1041D000BDE878886FF00100704700BFB06500400F
:1041E000FC560008E8040020DFF834D0002103E08A
:1041F0000C4B5B58435004310B480C4B42189A420D
:10420000F6D30B4A02E0002342F8043B094B9A42E2
:10421000F9D3FEF77BFC00F041F8FCF7CFFAFEE79C
:1042200000A00020D45800080000002098000020C2
:10423000980000204C060020FEE700001FB51C4639
:10424000094B1B680546D86852B1084B0091CDE96F
:10425000013207492B46224600F00EF800F0EEFB33
:10426000044B1A46F2E700BF34000020F85700085C
:1042700005580008335800080EB403B5014603ABD7
:10428000054853F8042B0068019300F067F802B06A
:104290005DF804EB03B070473400002070B50D4E9C
:1042A0000D4CA41BA4100025A54209D10B4E0C4CAB
:1042B00000F0A4FFA41BA4100025A54205D170BDE9
:1042C00056F8253098470135EEE756F825309847DF
:1042D0000135F2E7CC580008CC580008CC5800084B
:1042E000D058000810B5431E0A44914200D110BDB9
:1042F00011F8014B03F8014FF7E7024403469342DC
:1043000000D1704703F8011BF9E79368013B002BCC
:1043100010B4936008DA9469A34201DB0A2903D13F
:104320005DF8044B00F0CABA1368581C106019708D
:1043300008465DF8044B7047F8B506460F4614462C
:10434000D518AC4201D1002007E03A4614F8011B11
:104350003046FFF7DAFF431CF3D1F8BD2DE9F04FEB
:104360000C469DB017461D46064618B183690BB929
:1043700000F05CFC7C4B9C4258D17468A389180700
:104380005ED52369002B5BD00023099320238DF891
:10439000293030238DF82A3003954FF0010BB846B1
:1043A000454615F8013B0BB1252B54D1B8EB070A54
:1043B0000BD053463A4621463046FFF7BDFF013049
:1043C00000F0C280099B5344099398F80030002BF9
:1043D00000F0BA8000234FF0FF32CDE905230493AB
:1043E00007938DF853301A93A846052218F8011B3D
:1043F0005E48FBF7F5FE049B78BBD90644BF20223C
:104400008DF853201A0744BF2B228DF853202A78A9
:104410002A2A2AD0079AA84600200A25414611F8E0
:10442000013B303B092B69D960B324E0504B9C42DF
:1044300001D1B468A2E74F4B9C4208BFF4689DE7E6
:104440002146304600F08CFA00289DD04FF0FF3016
:104450001DB0BDE8F08FA846A2E7444A801A0BFAC7
:1044600000F0184304904546BEE7039A111D1268F8
:104470000391002A01DB079204E0524243F0020359
:104480000792049398F800302E2B0ED198F8013043
:104490002A2B38D1039B1A1D1B680392002BB8BF2F
:1044A0004FF0FF3308F102080593334D98F80010E0
:1044B00003222846FBF794FE40B14023401B03FA39
:1044C00000F0049B034308F10108049398F80010DE
:1044D0002A488DF82810062208F10107FBF780FE14
:1044E000002837D0264B1BBB039B073323F0070361
:1044F00008330393099B4B44099350E705FB0232B1
:10450000012088468AE7002308F10108059319462F
:104510000A25404610F8012B303A092A03D9002B0E
:10452000C3D00591C1E705FB012101238046F0E7D7
:1045300003AB00932246134B04A93046AFF300802F
:10454000B0F1FF3F8146D5D1A3895B063FF57EAF31
:1045500009987DE703AB009322460A4B04A9304635
:1045600000F088F8ECE700BF8C58000838580008C5
:10457000AC5800086C5800083E5800084258000823
:1045800000000000394300082DE9F04791461F461E
:104590008A680B69DDF820809342B8BF1346C9F8DA
:1045A000003091F8432006460C4612B10133C9F899
:1045B00000302368990642BFD9F800300233C9F8A9
:1045C0000030256815F0060507D104F1190AE368E3
:1045D000D9F800209B1AAB4228DC94F843302268BB
:1045E000003318BF012392062DD404F1430239464B
:1045F0003046C047013020D02368E568D9F8002054
:1046000003F00603042B08BFAD1AA36822690CBF90
:1046100025EAE57500259342C4BF9B1AED184FF0BB
:1046200000091A344D451AD1002008E001235246F2
:1046300039463046C047013003D14FF0FF30BDE866
:10464000F0870135C3E7E1185A1C302081F8430098
:10465000224494F8451082F843100233C5E7012341
:10466000224639463046C0470130E6D009F10109FB
:10467000D8E700002DE9F04301F1430C0C46097E18
:1046800085B06E291746064698460C9A00F0B3800E
:1046900022D8632936D00AD8002900F0B9805829D9
:1046A00000F0838004F1420584F8421032E064296E
:1046B00001D06929F6D120681368050603F10401C9
:1046C0002AD51B681160002B03DA2D225B4284F887
:1046D00043206F480A2239E0732900F09D8008D8F2
:1046E0006F2920D07029DDD1236843F02003236097
:1046F00003E0752917D07829D4D1782384F8453080
:10470000644855E01368191D1B68116004F14205E7
:1047100084F8423001238CE01B68116010F0400FD8
:1047200018BF1BB2CFE713682568181D1060280654
:1047300001D51B6802E06806FBD51B8854486F2929
:1047400014BF0A220822002184F843106568A5607E
:10475000002DC0F29580216821F004012160002B1A
:104760003DD1002D40F08E806546082A0BD123688C
:10477000DB0708D5236962689A42DEBF302305F85B
:10478000013C05F1FF35ACEB05032361CDF800805A
:104790003B4603AA21463046FFF7F6FE01304DD1D5
:1047A0004FF0FF3005B0BDE8F083394884F845107C
:1047B000136821681D1D1B6815600A060BD5CA0702
:1047C00044BF41F0200121601BB9226822F0200281
:1047D00022601022B7E74D0648BF9BB2EFE765465F
:1047E000B3FBF2F102FB1133C35C05F8013D0B464C
:1047F0000029F5D1B9E7136825686169181D1060B3
:1048000028061B6801D5196002E06A06FBD51980ED
:10481000002323616546B9E71368191D11601D68FF
:10482000626800212846FBF7DBFC08B1401B606092
:1048300063682361002384F84330A7E723692A468D
:1048400039463046C0470130AAD023689B0713D4AD
:10485000E068039B9842B8BF1846A3E701234A4685
:1048600039463046C04701309AD00135E368039A93
:104870009B1AAB42F2DCEBE7002504F11909F5E7DE
:10488000002BACD1037884F8423004F142056CE788
:10489000495800085A58000810B56AB101398418FF
:1048A00010F8013B11F8012F934203D1A04201D02F
:1048B000002BF5D1981A10BD1046FCE7F8B50E464E
:1048C0001446054618B183690BB900F0AFF9214BC6
:1048D0009C422AD16C68A369A360A3891A072ED5CC
:1048E000236963B323692068C01A6369F6B28342FF
:1048F000374604DC2146284600F02EF928BBA36881
:10490000013BA36023685A1C22601E70636901305A
:10491000834204D0A389DB0719D50A2E17D121467B
:10492000284600F019F990B10FE00B4B9C4201D1E1
:10493000AC68D0E7094B9C4208BFEC68CBE7214646
:10494000284600F00DF80028CCD04FF0FF3738464D
:10495000F8BD00BF8C580008AC5800086C5800081F
:10496000324B70B51D6806460C4625B1AB6913B9CC
:10497000284600F05BF92E4B9C420FD16C68B4F9CD
:104980000C309AB215072CD4D00611D4092232600B
:1049900043F04003A3814FF0FF303EE0254B9C42A3
:1049A00001D1AC68EBE7244B9C4208BFEC68E6E71A
:1049B000510712D5616B41B104F14403994202D011
:1049C000304600F021FA00236363A38923F0240317
:1049D000A3810023636023692360A38943F0080354
:1049E000A38123694BB9A38903F42073B3F5007F36
:1049F00003D02146304600F0C7F9A28912F0010326
:104A00000CD00023A36063695B42A361236953B99F
:104A1000B4F90C3013F08000BAD170BD920758BFC2
:104A20006369A360F2E70020F7E700BF34000020CD
:104A30008C580008AC5800086C58000808B50620CF
:104A400000F0C2FA012000F0D7FB00008A892DE9AE
:104A5000F041054610070C4658D44B68002B05DC86
:104A60000B6C002B02DC0020BDE8F081E66A002E12
:104A7000F9D0002312F480522F68216A2B6032D0C3
:104A8000606DA3895A0705D56368C01A636B0BB1C3
:104A9000236CC01A00230246E66A216A2846B04702
:104AA000431CA38906D129681D2948D8294ACA4030
:104AB000D60744D500226260D9042269226004D559
:104AC000421C01D12B6803B96065616B2F6000291E
:104AD000C9D004F14403994202D0284600F094F969
:104AE00000206063C0E701232846B047411CC8D1BD
:104AF0002B68002BC5D01D2B01D0162B01D12F60A8
:104B0000B1E7A38943F04003A381ADE70F69002F0C
:104B1000A9D093070E6808BF4B690F6018BF002328
:104B2000A6EB07088B60B8F1000F9CDD43463A46C0
:104B3000216AA66A2846B047002806DCA38943F00C
:104B40004003A3814FF0FF308EE70744A8EB000835
:104B5000E9E700BF0100402038B50B6905460C4667
:104B6000DBB118B183690BB900F060F80C4B9C42C3
:104B700009D16C68B4F90C307BB121462846BDE8F8
:104B80003840FFF763BF074B9C4201D1AC68F1E7A7
:104B9000054B9C4208BFEC68ECE7002038BD00BF25
:104BA0008C580008AC5800086C580008002310B559
:104BB0000446C0E90033836081814366C281C0E955
:104BC00004338361194608225C30FFF796FB054BDE
:104BD0006362054BA362054BE362054B24622363CA
:104BE00010BD00BF01500008235000085B500008B2
:104BF0007F500008014900F085B800BF594B0008FC
:104C000070B54A1E682555430E4605F1740100F043
:104C100049F9044640B10021C0E900160C30A060FB
:104C200005F16802FFF769FB204670BD836910B586
:104C3000044633BBC0E912330365124B124A1B68AA
:104C40008262984204BF0123836100F01FF8606014
:104C5000204600F01BF8A060204600F017F8002264
:104C6000E06004216068FFF7A1FF01220921A0682C
:104C7000FFF79CFF02221221E068FFF797FF012354
:104C8000A36110BD34580008F54B0008F8B51B4B64
:104C90001E68B369074613B93046FFF7C7FF4836A9
:104CA000D6E90134013B03D5336833B13668F7E701
:104CB000B4F90C506DB16834F4E704213846FFF7BD
:104CC0009FFF30600028F1D10C233B600446204652
:104CD000F8BD0B4B6566C4E90055A560C4E9033512
:104CE000C4E905550822294604F15C00FFF705FBDD
:104CF000C4E90D55C4E91255E9E700BF345800086E
:104D00000100FFFF2DE9F8438046894600F1480481
:104D1000002614B93046BDE8F883D4E90175013F97
:104D200001D52468F5E7AB89012B07D9B5F90E3019
:104D3000013303D029464046C84706436835EEE7AD
:104D400070B50E46B1F90E10002996B014461D46F6
:104D500007DA00232B60B3891A0610D44FF480635E
:104D60000EE06A4600F0B2F90028F2DB019A02F484
:104D70007042A2F500535A425A412A60EEE740239E
:104D80000020236016B070BD8B8973B59D07064661
:104D90000C4607D504F147032360236101236361B7
:104DA00002B070BD01AB6A46FFF7CAFF0099054625
:104DB000304600F077F848B9B4F90C309A05EFD4D2
:104DC00023F0030343F00203A381E3E70D4BB36237
:104DD000A389206043F08003A381009B6361019B52
:104DE00020615BB1B4F90E10304600F081F928B1B2
:104DF000A38923F0030343F00103A381A3891D4387
:104E0000A581CDE7F54B000838B50546002945D00A
:104E100051F8043C0C1F002BB8BFE41800F08AF9CD
:104E20001F4A1368104633B9636014602846BDE812
:104E3000384000F080B9A3420CD92168621893422F
:104E400004BF1A685B68636004BF52182260046084
:104E5000ECE713465A680AB1A242FAD91968581801
:104E6000A0420BD120680144581882421960DDD15C
:104E7000106852685A6001441960D7E702D90C23C0
:104E80002B60D3E7206821188A4204BF116852685A
:104E9000626004BF091821605C60C7E738BD00BFCD
:104EA000F804002070B5CD1C25F0030508350C2D45
:104EB00038BF0C25002D064601DBA94203D90C237F
:104EC0003360002070BD00F035F9214A1468214696
:104ED00091B9204C23681BB9304600F03DF82060A2
:104EE0002946304600F038F8431C24D10C233360A7
:104EF000304600F020F9E4E70B685B1B18D40B2B5D
:104F00000FD90B60CD50CC18304600F014F904F1E5
:104F10000B00231D20F00700C31AD3D05A42E250E1
:104F2000D0E78C424B6816BF636013600C46EBE71A
:104F30000C464968CCE7C41C24F00304A04205D009
:104F4000211A304600F008F80130CFD02560DBE7A9
:104F5000F8040020FC04002038B5064C0023054668
:104F60000846236000F032F9431C02D1236803B1E4
:104F70002B6038BD480600201F2938B504460D4671
:104F800004D9162303604FF0FF3038BD426C12B1D4
:104F900052F821304BB9204600F030F82A4601463D
:104FA0002046BDE8384000F017B8012B0AD0591C44
:104FB00003D1162303600120E7E7002442F82540CF
:104FC000284698470020E0E7024B01461868FFF7A3
:104FD000D3BF00BF3400002038B5074C002305467E
:104FE00008461146236000F0D9F8431C02D123681B
:104FF00003B12B6038BD00BF4806002000F0BEB8EA
:1050000010B50C46B1F90E1000F096F80028ABBFB1
:10501000636DA3891B1823F48053ACBF6365A38120
:1050200010BD2DE9F0411F468B89DB0505460C4676
:10503000164605D502230022B1F90E1000F068F8DB
:10504000A389B4F90E1023F48053A38132463B4662
:105050002846BDE8F04100F017B810B50C46B1F98C
:105060000E1000F055F8431CA38915BF606523F4AA
:10507000805343F48053A38118BFA38110BDB1F9BD
:105080000E1000F013B8000038B5074C054608466E
:105090001146002222601A4600F0A6F8431C02D1F5
:1050A000236803B12B6038BD4806002038B5064C94
:1050B000002305460846236000F050F8431C02D147
:1050C000236803B12B6038BD4806002038B5074C73
:1050D0000023054608461146236000F047F8431CAC
:1050E00002D1236803B12B6038BD00BF4806002001
:1050F00038B5064C002305460846236000F046F804
:10510000431C02D1236803B12B6038BD4806002040
:1051100038B5074C054608461146002222601A465B
:1051200000F044F8431C02D1236803B12B6038BD62
:10513000480600207047704738B5074C05460846BA
:105140001146002222601A4600F038F8431C02D1B2
:10515000236803B12B6038BD48060020024B58225B
:105160001A604FF0FF30704748060020024B58226B
:105170001A604FF0FF30704748060020024B58225B
:105180001A604FF0FF30704748060020024B58224B
:105190001A600020704700BF48060020024B5822CA
:1051A0001A604FF0FF30704748060020024B58222B
:1051B0001A604FF0FF30704748060020024B58221B
:1051C0001A604FF0FF30704748060020044A054936
:1051D0001368002B08BF0B46184410601846704730
:1051E0000005002050060020024B58221A604FF0A4
:1051F000FF30704748060020FEE700BFF8B500BF4B
:10520000F8BC08BC9E467047F8B500BFF8BC08BCA7
:045210009E467047FF
:1052140063616E61726453544D3332436F6D7075C4
:10522400746543414E54696D696E677300000000F4
:10523400647269766572730063682E6F6374616E5D
:1052440069732E6F696275732E6D6F736665742D45
:105254006472697665722D6D6F64756C650000000B
:105264006273315F6273325F73756D203E206273C7
:10527400310000004C69622F6C696263616E617277
:10528400642F647269766572732F73746D33322F71
:1052940063616E6172645F73746D33322E680000F3
:1052A40002030405060708090A0B0C0D0E0F101063
:1052B4000102030405060708090A0B0C0D0E0F1062
:1052C40000000000000000000102030406070809B2
:1052D400000000000102030463616E617264496EA0
:1052E4006974000063616E6172645365744C6F632A
:1052F400616C4E6F646549440000000063616E6137
:10530400726448616E646C6552784672616D6500C2
:1053140063616E6172644465636F64655363616C59
:105324006172000063616E617264456E636F6465EF
:105334005363616C61720000696E6372656D656EC2
:10534400745472616E73666572494400656E71755A
:1053540065756554784672616D6573007075736820
:105364005478517565756500707265706172654633
:105374006F724E6578745472616E73666572000064
:10538400636F707942697441727261790000000040
:105394006465736361747465725472616E73666577
:1053A400725061796C6F6164000000007377617002
:1053B400427974654F7264657200000066726565B7
:1053C400426C6F636B00000028726573756C742007
:1053D4003E2030292026262028726573756C74209F
:1053E4003C3D203634292026262028726573756CAE
:1053F40074203C3D206269745F6C656E6774682933
:1054040000000000287374645F627974655F6C65E2
:105414006E677468203E2030292026262028737465
:10542400645F627974655F6C656E677468203C3D87
:105434002038290064657374696E6174696F6E2025
:10544400213D202828766F6964202A29302900000C
:1054540076616C756520213D202828766F6964206B
:105464002A2930290000000072785F737461746522
:1054740020213D202828766F6964202A29302900BC
:10548400626C6F636B20213D202828766F6964204D
:105494002A293029000000006F66667365745F77FF
:1054A400697468696E5F626C6F636B203C2028339B
:1054B4003255202D205F5F6275696C74696E5F6F71
:1054C40066667365746F66202843616E6172644218
:1054D4007566666572426C6F636B2C2064617461DF
:1054E400292900006F75745F696E7320213D20289F
:1054F40028766F6964202A29302900007372635F5B
:105504006C656E203E203055000000007472616EA0
:105514007366657220213D20300000006269745F6B
:105524006C656E677468203E2030000072656D61A2
:10553400696E696E675F62697473203E2030000093
:10554400696E7075745F6269745F6F6666736574A3
:10555400203E3D20626C6F636B5F6269745F6F66AF
:105564006673657400000000626C6F636B5F656E48
:10557400645F6269745F6F6666736574203E20625F
:105584006C6F636B5F6269745F6F666673657400EA
:1055940072656D61696E696E675F6269745F6C657F
:1055A4006E677468203C3D2072656D61696E696E3A
:1055B400675F626974730000696E7075745F626915
:1055C400745F6F6666736574203C3D207472616E0F
:1055D400736665722D3E7061796C6F61645F6C6592
:1055E4006E202A20380000006F75747075745F6235
:1055F40069745F6F6666736574203C3D20363400C1
:1056040072656D61696E696E675F6269745F6C650E
:105614006E677468203D3D20300000002863616E91
:105624005F69642026203078314646464646464621
:105634005529203D3D2063616E5F696400000000D0
:10564400616C6C6F6361746F722D3E737461746905
:1056540073746963732E63757272656E745F7573A8
:105664006167655F626C6F636B73203E203000007E
:105674007472616E736665725F696420213D2028CF
:1056840028766F6964202A293029000073746174B4
:10569400652D3E6275666665725F626C6F636B73DF
:1056A400203D3D202828766F6964202A293029006E
:1056B4004C69622F6C696263616E6172642F63610D
:1056C4006E6172642E6300006974656D2D3E6672AE
:1056D400616D652E646174615F6C656E203E20307F
:1056E400000000006461746120213D202828766F49
:1056F4006964202A293029000C64004010640040A9
:1057040063616E61726453544D3332496E6974003F
:1057140063616E61726453544D33325472616E73BB
:105724006D69740030203D3D202828766F6C6174CB
:10573400696C652043616E61726453544D33324326
:10574400414E547970652A293078343030303634FB
:10575400303055292D3E4945520000004C69622FD6
:105764006C696263616E6172642F647269766572DA
:10577400732F73746D33322F63616E6172645F7360
:10578400746D33322E63000028282828766F6C61EC
:1057940074696C652043616E61726453544D333295
:1057A40043414E547970652A29307834303030368C
:1057B40034303055292D3E464D52203E3E2038553A
:1057C40029202620307833465529203D3D20313488
:1057D40055000000212243414E205052494F204998
:1057E4004E56220074785F6D61696C626F78203C5C
:1057F400203300002C2066756E6374696F6E3A2046
:1058040000617373657274696F6E202225732220A0
:105814006661696C65643A2066696C65202225734B
:10582400222C206C696E65202564257325730A007B
:1058340038000020232D302B2000686C4C00656656
:1058440067454647003031323334353637383941CD
:1058540042434445460030313233343536373839E3
:1058640061626364656600000000000000000000DF
:105874000000000000000000000000000000000024
:105884000000000000000000000000000000000014
:105894000000000000000000000000000000000004
:1058A40000000000000000000000000000000000F4
:1058B40000000000000000000000000000000000E4
:0858C4000000000000000000DC
:0458CC00B50100081A
:0458D000910100083A
:1058D4003452000800000000000000000000000036
:1058E4000000000000000000FF03000000000000B2
:1058F4000000000000000000010000001000000093
:1059040000127A0038000020000000008C580008C3
:10591400AC5800086C5800080000000000000000AB
:105924000000000000000000000000000000000073
:105934000000000000000000000000000000000063
:105944000000000000000000000000000000000053
:105954000000000000000000000000000000000043
:0859640000000000000000003B
:04000005080041E9C5
:00000001FF
