:020000040800F2
:1000000000A00020B1410008B10E0008B30E0008A6
:10001000B50E0008B70E0008B90E00080000000079
:10002000000000000000000000000000BB0E0008FF
:10003000BD0E000800000000BF0E0008C10E000841
:100040000142000801420008014200080142000884
:100050000142000801420008014200080142000874
:100060000142000801420008014200080142000864
:100070000142000801420008014200080142000854
:100080000142000801420008014200080142000844
:100090000142000801420008014200080142000834
:1000A0000142000801420008014200080142000824
:1000B0000142000801420008014200080142000814
:1000C0000142000801420008014200080142000804
:1000D00001420008014200080142000801420008F4
:1000E00001420008014200080142000801420008E4
:1000F00001420008014200080142000801420008D4
:1001000000000000000000000000000001420008A4
:1001100001420008014200080142000801420008B3
:1001200001420008014200080142000801420008A3
:100130000142000801420008000000000000000029
:1001400001420008014200080142000800000000CE
:10015000000000000000000000000000000000009F
:1001600000000000000000000142000801420008F9
:100170000142000800000000000000000000000034
:0801800000000000014200082C
:10019000034613F8012B002AFBD1181A01387047C7
:1001A00001F0FF01102A2BDB10F0070F08D010F828
:1001B000013B013A8B422DD010F0070F42B3F6D12C
:1001C000F0B441EA012141EA014122F007047FF045
:1001D00000070023F0E80256083C85EA010586EA9C
:1001E000010685FA47F5A3FA87F586FA47F6A5FAD8
:1001F00087F68EB9EED1F0BC01F0FF0102F00702E4
:1002000032B110F8013B013A83EA010313B1F8D18E
:100210000020704701387047002D06BF354603386F
:10022000073815F0010F07D1013015F4807F02BFA8
:10023000013015F4C03F0130F0BC0138704700BFF9
:1002400010B5054C227832B9044B13B10448AFF312
:1002500000800123237010BD9800002000000000E2
:10026000BC51000808B5034B1BB103490348AFF369
:10027000008008BD000000009C000020BC51000868
:10028000012B03D0012B0AD000207047012AF9D19D
:1002900009A3D3E90023C1E90023012070470B2AF9
:1002A00001D00020704706A3D3E90023C1E9002351
:1002B00001207047AFF300809E6AC421818A46EE18
:1002C000D5A4D139F922B6A700230F2B03D8C354E4
:1002D0000133DBB2F9E7704730B583B0044600253F
:1002E0008DF807508DF806500560C0F8035001F0F6
:1002F0004DFD0D4BA3FB0030800900906B46202282
:100300002946204603F0D4FA0DF1070302222021EA
:10031000204603F0CDFA0DF10603032222212046E8
:1003200003F0C6FA03B030BDD34D6210F0B583B010
:10033000044640F27912002103F0C6FF2046FFF781
:10034000CBFF0123E371002222726372104B0193F1
:1003500001AB20225021204603F0AAFA04F1180034
:10036000FFF7B2FF0B4D293405F120072E460FCEC3
:1003700020606160A260E36035461034BE42F5D172
:1003800030682060337923714E2003B0F0BD00BF88
:100390001C0173EAFC51000830B5E7B0044607AD14
:1003A00040F279120021284603F08EFF2846FFF71D
:1003B000BDFF0590049500230393A37E029304F1EF
:1003C000190301930123009306A3D3E90023E17EDF
:1003D000034803F0D8F867B030BD00BFAFF300802A
:1003E000B40000209E6AC421818A46EEF0B585B033
:1003F00002F0FEF800230293ADF80C303F4AA2FB56
:100400000032920C09235C1CB2FBF4F104FB1121B5
:1004100021B1022B4DD9013BDBB2F4E7B2FBF4F280
:10042000511EB1F5806F44D2C3EBC306F11C22D438
:10043000C910CDB25F1BFFB2AB421ED9C9B24FF497
:100440007A7401FB044439440131B4FBF1F189B2FF
:10045000B1F5617F05D9751E16D4C5F3C7055B1BC1
:10046000DFB26B1EDBB20F2B10D8002F3BD0082F52
:100470003BD900210BE00731DAE7214B214A40F25A
:100480001511214803F0BEFE0735E6E70021EB1900
:1004900003FB0223B0FBF3F01C4B984227D131B38E
:1004A000ADF8082001238DF80C308DF80A508DF836
:1004B0000B70002102A803F0BFFC002102A803F08A
:1004C000BBFC134C00230193124B0093124B4FF4CF
:1004D00080621249204602F0ABFF0A21204602F05A
:1004E000CFFF05B0F0BD0021D1E70121CFE70C4BD4
:1004F000044A40F22F11044803F084FE83DE1B43BC
:1005000024520008D45100083852000840420F001D
:10051000B400002081020008910A0008D8000020E1
:10052000DC54000808B5084803F07BF802E00648F0
:1005300003F077F838B103F065FD0028F7DD0248D5
:1005400003F075F8F3E708BDB400002000B585B0EE
:10055000684603F0E1FD10B905B05DF804FB01F059
:1005600015FC4FF47A7202FB00F200236946024840
:1005700003F022FAF0E700BFB40000200000000002
:1005800010B588B001F002FC174B1B6803F57A73B5
:10059000984201D208B010BD01F0F8FB124B186070
:1005A00001214FF0904002F04EFA01214FF09040AF
:1005B00002F049FA06AC2046FFF78EFE07230493AB
:1005C000039418230293094B019340F255130093AF
:1005D00003A3D3E90023064802F072FFDAE700BF65
:1005E000F1C6A7C1D068080FD8040020DC040020A1
:1005F000B400002070B582B00C4600238DF807309F
:1006000001238DF80630002865D005460DF107035B
:1006100005220021204603F04BF90DF106030322C9
:100620000521204603F044F905F108034022082182
:10063000204603F03DF90DF107030522482120462D
:1006400003F036F90DF1060303224D21204603F095
:100650002FF905F1200340225021204603F028F90C
:100660000DF1070306229021204603F021F90DF138
:10067000060302229621204603F01AF905F1180319
:1006800040229821204603F013F90DF107030622BA
:10069000D821204603F00CF90DF106030222DE21D9
:1006A000204603F005F905F110034022E021204621
:1006B00003F0FEF824342E683046FFF769FD024649
:1006C0003146204603F0F2FD2868FFF761FD243033
:1006D00080B202B070BD00258DF806500DF1070301
:1006E00005222946204603F0E3F80DF10603032214
:1006F0000521204603F0DCF80DF10703062208214E
:10070000204603F0D5F80DF1060302220E21204603
:1007100003F0CEF80DF1070306221021204603F066
:10072000C7F80DF1060302221621204603F0C0F897
:10073000E5700420CDE730B59FB0002417941994DC
:100740001A940F9410941194129413943C222146FD
:10075000684603F0B9FD012514954FF480331593D5
:100760001695189502221B921C934FF4E0131D93CB
:1007700014A801F025FB0F230F93109511944FF44B
:1007800080631293139421460FA801F05BFE84232B
:10079000009304944FF480730993684601F054FF6A
:1007A0001FB030BD08B5134113F0010F04D0012272
:1007B00089B202F043F908BD002289B202F03EF985
:1007C000F9E7000070B501F0C3FAFFF7B4FF534B2F
:1007D0001B68534AA2FB03239B09013BB3F1807FB3
:1007E00009D2504A5360504BF02183F82310002364
:1007F00093600723136000F063F900F0D3F900F071
:1008000017FA00F0B1FA00F001FB484C00224FF457
:100810008051204602F012F900224FF40051204688
:1008200002F00CF9002408E001214FF0904002F0A2
:100830000AF9322001F0B0FA0134052CF4DDFFF79B
:10084000D5FD60E004EB8402D300394AD558284630
:10085000FFF79EFC02462946364803F073FE10B1AE
:100860000134A4B256E004EB8406F300304C1C447F
:100870002E4DA36800224FF480412846FFF792FFD7
:10088000A36801224FF400412846FFF78BFFA368BD
:1008900002224FF480614FF09040FFF783FFA3687E
:1008A00003224FF400714FF09040FFF77BFFA368E5
:1008B00004224FF480714FF09040FFF773FFA3685C
:1008C00005224FF480514FF09040FFF76BFFA36873
:1008D00006224FF400614FF09040FFF763FFA368DA
:1008E00007224FF400511448FFF75CFFA368082269
:1008F00001212846FFF756FFA368092208214FF07F
:100900009040FFF74FFFFFF70DFEFFF71FFEFFF7C9
:1009100037FE0024002C95D00024A9E730000020E9
:10092000D34D621010E000E000ED00E0000400484C
:1009300000000020F45100080008004800000000FA
:10094000F0B59FB007464FF6FF73ADF87630002440
:100950008DF8754000220023CDE91A230DF17603AE
:10096000009323460D22214602F06AFE0DF1750325
:100970000093234603220D21384602F061FE9DF8C4
:100980007530012B1CD01025BB8A2E46002D21DB93
:10099000F610764213FA86F6B6B20024169417942F
:1009A00018941994A64217DD16AB23440093002334
:1009B00008222946384602F043FE08350134F1E7A3
:1009C0001AAB0093234640221021384602F038FE2D
:1009D0005025D9E7EE1DDBE79DF85830002B43D1B9
:1009E000BDF87630002B49D103EB8303DA00264CA7
:1009F00014441CB19DF87530012B3AD000250695A2
:100A00003C22294607A803F05FFC06AE314620468B
:100A1000FFF7F0FD059004960395BB7E029307F166
:100A2000190301930B23009315A3D3E90023F97E47
:100A3000164802F0A8FD1FB0F0BD04EB8402D300FD
:100A4000114AD5582846FFF7A3FB0246294616A8A7
:100A500003F078FD10B10134A4B206E004EB840683
:100A6000F300094C1C44C4E70024002CE5D000240A
:100A7000BFE7DDE91A23C4E90223BFE70024BDE78D
:100A8000D5A4D139F922B6A700000020B400002077
:100A900010B50C460B7E012B03D0237E012B07D013
:100AA00010BDCB8A012BF8D10846FFF775FCF4E79F
:100AB000E38A0B2BF4D12046FFF742FFF0E77047A3
:100AC000F0B58BB00024059406940794089409941B
:100AD000314B5A6942F400225A615A6902F40022E9
:100AE0000192019A5A6942F480025A615A6902F4E9
:100AF00080020292029A5A6942F400325A615A699B
:100B000002F400320392039A5A6942F480225A6135
:100B10005B6903F480230493049B204F22464FF427
:100B20000051384601F08AFF224641F609714FF024
:100B3000904001F083FF1A4D22464FF207012846EC
:100B400001F07CFF4FF400530593012606960794AD
:100B5000089405A9384601F0A7FE41F609730593EC
:100B600006960794089405A94FF0904001F09CFE6A
:100B70004FF20703059306960794089405A92846A3
:100B800001F092FEF02305930694079405A92846E8
:100B900001F08AFE0BB0F0BD0010024000080048D2
:100BA0000004004800B58BB0002307930893099315
:100BB0000193029303930493059306931B484FF00C
:100BC000A0420260436083600361C36143620363C8
:100BD0000122C262C36002624363042242618361F4
:100BE000836300F0C9F9B8B90023079307A90F4838
:100BF00000F0DCFC98B91023019301230293002339
:100C0000049303930593069301A9084800F0FAFAA8
:100C100040B90BB05DF804FBFFF751FFE4E7FFF7C5
:100C20004EFFE8E7FFF74BFFF3E700BF5805002052
:100C300000B587B0002300930193029303930493BC
:100C400005931648164A0260436083600361C361DE
:100C5000436203630122C262C360026243630422EF
:100C600042618361836300F087F980B904230093B4
:100C70000123019300230393029304930593694690
:100C8000064800F0BFFA28B907B05DF804FBFFF78B
:100C900016FFEBE7FFF713FFF6E700BF04050020A0
:100CA0000001005000B58BB0002305930693079315
:100CB000089309930368B3F1A04F05D0274A9342E4
:100CC00027D00BB05DF804FB254A1368013313608D
:100CD000012B13D0234B5A6942F400325A615B69ED
:100CE00003F400330293029B062305930323069328
:100CF00005A94FF0904001F0D7FDE2E7194B5A6982
:100D000042F080525A615B6903F080530193019B6A
:100D1000E0E7134A136801331360012B13D0114B22
:100D20005A6942F400325A615B6903F40033049358
:100D3000049BF02305930323069305A94FF09040ED
:100D400001F0B2FDBDE7074B5A6942F080525A618B
:100D50005B6903F080530393039BE0E700010050BD
:100D6000E00400200010024008B50B480B4B036064
:100D70001023436000238360C360036143610376F3
:100D800043768376C3760377437700F0BBFC00B9E4
:100D900008BDFFF794FEFBE7AC05002000640040AF
:100DA00000B589B00023039304930593069307933A
:100DB0000268144B9A4202D009B05DF804FB03F5B7
:100DC000D633DA6942F00072DA61DA6902F0007251
:100DD0000192019A5A6942F480225A615B6903F4D4
:100DE00080230293029B4FF44073039302230493E6
:100DF000032306930923079303A9034801F054FD35
:100E0000DAE700BF006400400004004808B50B4862
:100E10000B4B03604FF41643436000238360C360B1
:100E200003610C2242618361C3610362436200F08B
:100E300035FF00B908BDFFF742FEFBE7D4050020EF
:100E40000048004000B589B0002303930493059344
:100E5000069307930268144B9A4202D009B05DF8DA
:100E600004FB03F5E433DA6942F48022DA61DA69DB
:100E700002F480220192019A5A6942F480225A6156
:100E80005B6903F480230293029B4FF44063039356
:100E900002230493032306930723079303A903481C
:100EA00001F002FDDAE700BF0048004000040048FE
:100EB0007047FEE7FEE7FEE7FEE7704770477047C2
:100EC00008B500F057FF08BD82B00A4B9A6942F09E
:100ED00001029A619A6902F001020092009ADA69AD
:100EE00042F08052DA61DB6903F080530193019B89
:100EF00002B070470010024038B50268936803F0F2
:100F00000303012B01D0002038BD136813F0010F3B
:100F10002FD0936803F00D03012B09D0436C43F0ED
:100F200010034364836C43F0010383640120EBE707
:100F30000446936843F002039360036803221A6037
:100F400000F024FF054623689B6813F0010F0ED0C4
:100F500000F01CFF401B0228F5D9636C43F010031E
:100F60006364A36C43F00103A3640120CCE7002079
:100F7000CAE70020C8E7000030B597B0002300930F
:100F8000002800F02D810446436C13F0100F52D15D
:100F9000436CABB1002023689A6812F0805F03D0E5
:100FA0009B6813F0005F47D0636C23F0120343F09B
:100FB00010036364A36C43F00103A36401203BE0CE
:100FC00083640365C36480F84030FFF76BFE2368D9
:100FD0009B6813F0805F01D00020DCE72046FFF71C
:100FE0008BFF636C13F0100FD5D10028D3D1636C45
:100FF00023F4885323F0020343F00203636422685E
:10100000936823F0405393602268936843F08053C1
:101010009360744B1B68744AA2FB03239B0C03EB85
:1010200083035A00009202E0009B013B0093009B67
:10103000002BF9D1AFE70020636C13F0100F40F0E4
:10104000C680002840F0C3802368996811F004012D
:1010500040F0BD80626C22F4817242F00202626450
:10106000B3F1A04F14D0614A93420FD0604DB3F159
:10107000A04F0FD05D4A934265D05E4A934266D03E
:101080005D4A934267D00022019205E05B4DEEE796
:101090005A4DECE7554A01929A6802F00302012A80
:1010A0005DD0019B23B19A6802F00302012A5BD054
:1010B000AB6823F4403362681343AB60E2695303C7
:1010C000A56B012D01D04FF480510B43E1680B4318
:1010D000A1680B43616A01294BD0E26A012A0AD058
:1010E0002168444DA94257D005F58075A94253D0D7
:1010F000216B0A4313432268916811F00C0F0BD146
:10110000D16821F4804121F00201D160A169626BB4
:10111000520042EA813213432168CD68384A2A409E
:101120001343CB602369012B48D02268136B23F053
:101130000F0313630023A364636C23F0030343F0E2
:10114000010363644AE04FF0A0420192A4E702F574
:1011500080720192A0E7A2F5807201929CE71B6861
:1011600013F0010FAAD19CE71B6813F0010FA5D162
:101170009EE732B9A26A013A43EA424343F480331C
:10118000ABE7626C22F0220242F020026264A26CA1
:1011900042F00102A264A0E7B2F5307F08D0B2F5B8
:1011A000807F08D0B2F5E07FA2D14FF480729FE734
:1011B0004FF4E0729CE74FF4307299E721680B6BB3
:1011C00023F00F03226A013A13430B63B2E7636C07
:1011D00023F0120343F010036364012017B030BD05
:1011E0000120FBE73000002083DE1B43000100509C
:1011F000000700500004005000050050000300509C
:1012000007C0F0FF30B496B00022009290F8402062
:10121000012A00F0B8810346012280F840200068CE
:10122000826812F0040F40F0A3814A68042A31D882
:10123000046B02EB420255001F22AA4024EA02027C
:101240000C68AC40224302631868826812F00C0FED
:1012500068D10A68092A4ED9846902EB42021E3A13
:101260000725954024EA05048D6805FA02F2224319
:10127000826148691C68E268C2F3C102520000FA48
:1012800002F208690138032800F29580DFE800F0D7
:1012900040727D88092A0ED8446B02EB4202550049
:1012A0001E3D1F22AA4024EA02020C6804FA05F53A
:1012B0002A434263C8E70E2A0ED8846B02EB42022F
:1012C00055003C3D1F22AA4024EA02020C6804FAA1
:1012D00005F52A438263B7E7C46B02EB420255006F
:1012E0005A3D1F22AA4024EA02020C6804FA05F5BE
:1012F0002A43C263A8E7446902EB420207259540EE
:1013000024EA05048D6805FA02F222434261B0E73F
:10131000206E9E4D0540086842EA8062154345F004
:10132000004525661868826802F00302012A72D01F
:10133000CA68012A75D0D0F8B0200D680124AC40ED
:1013400022EA0402C0F8B0201A68B2F1A04F00F0FF
:1013500093808F48824200F08D808E4C0868102860
:1013600000F08C80112800F09D80122800F09F80F2
:10137000002002E1606E854D0540086842EA806207
:10138000154345F000456566CCE7A06E7F4D0540EE
:10139000086842EA8062154345F00045A566C1E74A
:1013A000E56E7A4828400D6842EA8562024342F0C1
:1013B0000042E266B6E7226E02F0F8420868B2EB3D
:1013C000806F03D1226E22F0004222661A68506EAE
:1013D00000F0F8400C68B0EB846F03D1506E20F041
:1013E000004050661A68906E00F0F8400C68B0EB50
:1013F000846F03D1906E20F0004090661A68D06E22
:1014000000F0F8400C68B0EB846F8BD1D06E20F008
:101410000040D06686E7026812F0010F88D00020F5
:10142000ABE0D0F8B0200D680124AC402243C0F8F6
:10143000B0200A68092A0ED91D68A86902EB420289
:101440001B3A0724944020EA04008C6804FA02F254
:101450000243AA6178E71D686869013202EB420223
:101460000724944020EA04008C6804FA02F2024344
:101470006A6169E7484C71E7474C6FE7A56815F466
:10148000000F7FF46FAFB2F1A04F16D040488242F8
:101490002CD0424882422DD0414882422DD0002299
:1014A00001920DE0A56815F0807FECD05DE7A068A3
:1014B00010F4800FE7D000205FE002F58072019207
:1014C0001868826802F00302012A19D0019A22B139
:1014D000956805F00305012D1CD00A68102A1ED05E
:1014E000112A36D0122A3DD0002046E04FF0A0420B
:1014F0000192E5E72A4A0192E2E7284A0192DFE7F2
:10150000026812F0010FE1D05A6C42F020025A64D6
:10151000012032E0126812F0010FF5D1DDE7B0F1E1
:10152000A04FDDD1A26842F40002A2601D4A1268F9
:101530001D49A1FB0212920C02EB820251000091A4
:1015400002E0009A013A0092009A002AF9D10020A4
:1015500013E0B0F1A04FC5D1A26842F08072A26042
:1015600000200AE0A26842F48002A260002004E0A9
:101570005A6C42F020025A640120002283F8402075
:1015800016B030BC70470220FAE700BF00F0FF83BE
:1015900000010050000700500003005000040050FC
:1015A000000500503000002083DE1B4370B497B06C
:1015B00003460268B2F1A04F0BD04D48824248D09A
:1015C0004C48824249D04C4882424AD00020019087
:1015D00001E0474801900198002800F0848093F8CA
:1015E0004040012C00F08180012483F84040946841
:1015F00014F0040F6CD1846814F0040F68D1B2F1B8
:10160000A04F34D03A4CA2422FD03C4A0C68002C58
:101610003BD0946824F460444D685E6B45EA4635DF
:101620002C4394601D68AC6804F00304012C20D0A6
:10163000846804F00304012C21D0906820F47160C8
:1016400020F00F000C6889680C4320439060002054
:1016500043E04FF0A0400190BDE700F5807001909D
:10166000B9E7A0F580700190B5E7254ACEE7244A96
:10167000CCE72C6814F0010FDAD000202DE00068D0
:1016800010F0010FD9D0002027E0916821F46041CB
:1016900091601C68A16801F0030101290CD08168E8
:1016A00001F0030101290DD0916821F4716121F04D
:1016B0000F019160002010E0216811F0010FEED0C1
:1016C00000200AE0016811F0010FEDD0002004E0D5
:1016D0005A6C42F020025A640120002283F8402014
:1016E00017B070BC70470120FAE70220F8E700BF8E
:1016F0000001005000040050000500500007005099
:1017000000030050002800F0A18038B5044690F88E
:101710002030D3B12268136823F00203136000F075
:1017200035FB054623685A6812F0020F10D000F00E
:101730002DFB401B0A28F5D9636A43F4003363622A
:10174000052384F82030012038BDFFF729FBE1E7AD
:101750001A6842F001021A6000F018FB054623687F
:101760005A6812F0010F0DD100F010FB401B0A283F
:10177000F5D9636A43F400336362052384F82030AB
:101780000120E1E7227E012A3DD01A6822F0800282
:101790001A60637E012B3BD02268136823F040035C
:1017A0001360A37E012B39D02268136823F0200335
:1017B0001360E37E012B37D02268136843F01003D7
:1017C0001360237F012B35D02268136823F00803B0
:1017D0001360637F012B33D02268136823F0040366
:1017E0001360A368E26813432269134362691343D9
:1017F0006268013A21681343CB61002060620123D3
:1018000084F82030A0E71A6842F080021A60C0E72E
:101810002268136843F040031360C2E7226813682C
:1018200043F020031360C4E72268136823F0100319
:101830001360C6E72268136843F008031360C8E723
:101840002268136843F004031360CAE7012070475D
:1018500010B5044683680269134342691343C269A1
:101860001A4301680B6823F4164323F00C03134357
:101870000B600268536823F44053C1680B43536004
:101880008369026A1A4301688B6823F43063134347
:101890008B600268954B9A420DD0954B9A421DD0B1
:1018A000944B9A4243D0944B9A4258D0934B9A42CD
:1018B0006DD0102327E003F558431B6B03F003039F
:1018C000032B09D8DFE803F00204067B01231AE0AA
:1018D000042318E0082316E0102314E003F5E63390
:1018E0001B6B03F44033B3F5803F6AD007D9B3F5DF
:1018F000003F68D0B3F5403F17D1022303E00BB996
:10190000002300E01023E169B1F5004F69D0082BF6
:1019100000F2E980DFE813F0AD00B900C500E70090
:10192000D100E700E700E700DD001023EBE703F557
:10193000E4331B6B03F44023B3F5802F45D007D964
:10194000B3F5002F43D0B3F5402F06D10223DAE7D9
:101950000BB90023D7E71023D5E71023D3E703F50E
:10196000E2331B6B03F44013B3F5801F31D007D96A
:10197000B3F5001F2FD0B3F5401F06D10223C2E7F5
:101980000BB90023BFE71023BDE71023BBE703F526
:10199000E0331B6B03F44003B3F5800F1DD007D970
:1019A000B3F5000F1BD0B3F5400F06D10223AAE711
:1019B0000BB90023A7E71023A5E71023A3E7022311
:1019C000A1E704239FE708239DE704239BE708235F
:1019D00099E7042397E7082395E7042393E708236F
:1019E00091E7082B42D8DFE803F0051722412D418B
:1019F0004141380000F0FCFD6268530803EB4003EE
:101A0000B3FBF2F39BB2002023F00F02C3F34203B7
:101A100013432268D36010BD00F000FE62685308D3
:101A200003EB4003B3FBF2F39BB20020ECE76268E8
:101A3000530803F5740303F51053B3FBF2F39BB2A1
:101A40000020E1E700F0C0FC6268530803EB4003AC
:101A5000B3FBF2F39BB20020D6E76268530803F5AC
:101A60008033B3FBF2F39BB20020CDE701200023CB
:101A7000CAE700F0BDFD636800EB5300B0FBF3F074
:101A8000236880B2D8600020C5E700F0C7FD636816
:101A900000EB5300B0FBF3F0236880B2D860002065
:101AA000B9E761684B0803F5F40303F59053B3FB02
:101AB000F1F39BB2D3600020ADE700F085FC6368D2
:101AC00000EB5300B0FBF3F0236880B2D860002035
:101AD000A1E761684B0803F50043B3FBF1F39BB248
:101AE000D360002097E7012095E700BF0038014050
:101AF0000044004000480040004C004000500040BE
:101B0000436A13F0010F06D00268536823F40033D0
:101B1000816A0B435360436A13F0020F06D00268D8
:101B2000536823F48033C16A0B435360436A13F054
:101B3000040F06D00268536823F48023016B0B4323
:101B40005360436A13F0080F06D00268536823F409
:101B50000043416B0B435360436A13F0100F06D0F0
:101B60000268936823F48053816B0B439360436A4C
:101B700013F0200F06D00268936823F40053C16B62
:101B80000B439360436A13F0400F0AD00268536816
:101B900023F48013016C0B435360036CB3F5801F77
:101BA0000BD0436A13F0800F06D00268536823F409
:101BB0000023816C0B43536070470268536823F421
:101BC000C003416C0B435360EBE72DE9F041054640
:101BD0000F4616469846069C2B68DB6937EA0303D6
:101BE0000CBF01230023B3421DD1B4F1FF3FF3D05A
:101BF0002CB100F0CBF8A0EB0800A042ECD92A6889
:101C0000136823F4D07313602A68936823F00103E8
:101C10009360202385F8693085F86A30002385F8C1
:101C20006830032000E00020BDE8F08130B583B0CB
:101C300004460023C36600F0A9F8054623681B6824
:101C400013F0080F0ED123681B6813F0040F17D18F
:101C5000202384F8693084F86A30002084F8680012
:101C600003B030BD6FF07E430093034600224FF473
:101C700000112046FFF7A9FF0028E4D00320EFE77A
:101C80006FF07E4300932B4600224FF480012046E4
:101C9000FFF79BFF0028DBD00320E1E778B310B506
:101CA000044690F869300BB3242384F86930226825
:101CB000136823F0010313602046FFF7C9FD0128D4
:101CC00013D0636ABBB92268536823F4904353600E
:101CD0002268936823F02A0393602268136843F014
:101CE000010313602046FFF7A1FF10BD80F86830A4
:101CF000FFF7A8F8D8E72046FFF702FFE3E7012047
:101D00007047000010B504460E4B18784FF47A73F4
:101D1000B3FBF0F30C4A1068B0FBF3F000F0DEFE0A
:101D200068B90F2C01D901200AE0002221464FF0AA
:101D3000FF3000F09FFE054B1C60002000E00120FA
:101D400010BD00BF28000020300000202C00002023
:101D500008B5074A136843F010031360032000F02E
:101D600077FE0020FFF7CEFFFFF7AEF8002008BD9A
:101D700000200240034A1168034B1B780B44136098
:101D8000704700BF4406002028000020014B18685F
:101D9000704700BF4406002038B50446FFF7F6FF41
:101DA0000546B4F1FF3F02D0044B1B781C44FFF7FB
:101DB000EDFF401BA042FAD338BD00BF2800002031
:101DC000002800F0EB8270B582B00446036813F07F
:101DD000010F3BD0B54B5B6803F00C03042B1ED006
:101DE000B24B5B6803F00C03082B13D06368B3F5A8
:101DF000803F68D0002B40F0928003F1804303F5D0
:101E000004331A6822F480321A601A6822F480229D
:101E10001A605DE0A54B5B6813F4803FE6D04FF499
:101E2000003393FAA3F3A14B19684FF4003393FAEC
:101E3000A3F3B3FA83F303F01F03012202FA03F3BF
:101E40000B4203D06368002B00F0AA82236813F0D2
:101E5000020F00F0C580954B5B6813F00C0F00F08B
:101E60009C80924B5B6803F00C03082B00F08F8082
:101E70002369002B00F0F280012292FAA2F3B3FA58
:101E800083F303F1845303F584139B001A60FFF777
:101E90007DFF0546022393FAA3F3844B19680223BE
:101EA00093FAA3F3B3FA83F303F01F03012202FAB8
:101EB00003F30B4240F0C380FFF768FF401B02288A
:101EC000E8D9032075E2794A136843F4803313603C
:101ED000764AD36A23F00F03A1680B43D362636889
:101EE000002B36D0FFF752FF05464FF4003393FA2C
:101EF000A3F36E4B19684FF4003393FAA3F3B3FACC
:101F000083F303F01F03012202FA03F319429DD168
:101F1000FFF73CFF401B6428E7D9032049E2B3F5F3
:101F2000A02F09D0614B1A6822F480321A601A6817
:101F300022F480221A60CBE703F18043A3F53C33FF
:101F40001A6842F480221A601A6842F480321A60D9
:101F5000BEE7FFF71BFF05464FF4003393FAA3F3E8
:101F6000524B19684FF4003393FAA3F3B3FA83F397
:101F700003F01F03012202FA03F319423FF466AF94
:101F8000FFF704FF401B6428E6D9032011E2474B0A
:101F90005B6813F4803F7FF46BAF022393FAA3F3E3
:101FA000424B1968022393FAA3F3B3FA83F303F0C5
:101FB0001F03012202FA03F3194203D0236993425B
:101FC00040F0F0813948036823F0F8036169F82292
:101FD00092FAA2F2B2FA82F201FA02F21343036019
:101FE000236813F0080F00F08D80A369002B61D0E7
:101FF000012191FAA1F2B2FA82F22D4B13449B0017
:102000001960FFF7C3FE0546022393FAA3F293FA81
:10201000A3F293FAA3F2254A516A93FAA3F3B3FA0F
:1020200083F303F01F03012202FA03F30B4269D189
:10203000FFF7ACFE401B0228E6D90320B9E11B489C
:10204000036823F0F8036169F82292FAA2F2B2FA67
:1020500082F201FA02F213430360C1E7012393FA0B
:10206000A3F3B3FA83F303F1845303F584139B00C2
:1020700000221A60FFF78AFE0546022393FAA3F3B3
:102080000A4B1968022393FAA3F3B3FA83F303F01C
:102090001F03012202FA03F31942A1D0FFF776FED3
:1020A000401B0228E9D9032083E100BF0010024051
:1020B00020819010012292FAA2F2B2FA82F2BF4B72
:1020C00013449B0000221A60FFF760FE05460223BE
:1020D00093FAA3F293FAA3F293FAA3F2B84A516ADD
:1020E00093FAA3F3B3FA83F303F01F03012202FA76
:1020F00003F30B4206D0FFF749FE401B0228E6D946
:10210000032056E1236813F0040F00F0A980AC4BC4
:10211000DB6913F0805F20D1A94BDA6942F080526D
:10212000DA61DB6903F080530193019B0125A54B24
:102130001B6813F4807F12D0E368012B23D073BB9C
:1021400003F1804303F504331A6A22F001021A6294
:102150001A6A22F004021A621AE00025E7E7994A97
:10216000136843F480731360FFF710FE0646954B27
:102170001B6813F4807FDFD1FFF708FE801B642803
:10218000F5D9032015E18E4A136A43F00103136267
:10219000E368002B3CD0FFF7F9FD06462EE0052B47
:1021A00009D0874B1A6A22F001021A621A6A22F0D9
:1021B00004021A62ECE7824B1A6A42F004021A62C5
:1021C0001A6A42F001021A62E2E7022393FAA3F3C9
:1021D0007B4B596A022393FAA3F3B3FA83F303F018
:1021E0001F03012202FA03F3194238D1FFF7CEFD93
:1021F000801B41F28833984200F2D680022393FA82
:10220000A3F293FAA3F3002BDFD06D4B196AE1E739
:10221000FFF7BCFD064618E0022393FAA3F3684BD0
:10222000596A022393FAA3F3B3FA83F303F01F036B
:10223000012202FA03F3194211D0FFF7A7FD801B18
:1022400041F28833984200F2B180022393FAA3F25C
:1022500093FAA3F3002BDFD0594B196AE1E7B5BB22
:10226000E369002B00F0A480554A526802F00C028A
:10227000082A00F0A080022B2FD04FF0807393FA31
:10228000A3F3B3FA83F303F1845303F584139B00A0
:1022900000221A60FFF77AFD04464FF0007393FAAC
:1022A000A3F3474B19684FF0007393FAA3F3B3FA03
:1022B00083F303F01F03012202FA03F319426BD0E8
:1022C000FFF764FD001B0228E7D9032071E03C4AB8
:1022D000D36923F08053D361C2E74FF0807393FA40
:1022E000A3F3B3FA83F303F1845303F584139B0040
:1022F00000221A60FFF74AFD05464FF0007393FA7B
:10230000A3F32F4B19684FF0007393FAA3F3B3FABA
:1023100083F303F01F03012202FA03F3194206D0EC
:10232000FFF734FD401B0228E7D9032041E0244990
:102330004B6823F47413626A206A024313434B60B0
:102340004FF0807393FAA3F3B3FA83F303F184534A
:1023500003F584139B0001221A60FFF717FD044662
:102360004FF0007393FAA3F3154B19684FF0007305
:1023700093FAA3F3B3FA83F303F01F03012202FAE3
:1023800003F3194206D1FFF701FD001B0228E7D92C
:1023900003200EE000200CE000200AE0012070473E
:1023A000012006E0012004E0032002E0032000E019
:1023B000002002B070BD0120FBE700BF208190101B
:1023C0000010024000700040184B5A6802F00C03E5
:1023D000042B26D0082B26D102F470114FF4701371
:1023E00093FAA3F3B3FA83F321FA03F31049C85C19
:1023F0000E4BDB6A03F00F030F2191FAA1F1B1FA42
:1024000081F1CB400B49C95C12F4803F05D00A4BE7
:10241000B3FBF1F300FB03F07047084B03FB00F044
:102420007047054870470648704700BF00100240DB
:1024300064520008745200080024F40000093D00B2
:1024400000127A00002800F0BD8070B50446614B90
:102450001B6803F007038B420BD25E4A136823F01C
:1024600007030B431360136803F007038B4240F02C
:10247000AB80236813F0020F06D0574A536823F04D
:10248000F003A068034353600D46236813F0010F67
:102490005AD06368012B2DD0022B40D0022292FA31
:1024A000A2F24D4A1068022292FAA2F2B2FA82F225
:1024B00002F01F02012101FA02F2104200F08680B0
:1024C00045494A6822F0030213434B60FFF75EFC64
:1024D0000646414B5B6803F00C036268B3EB820F66
:1024E00032D0FFF753FC801B41F288339842F0D979
:1024F000032066E04FF4003292FAA2F2364A1068E6
:102500004FF4003292FAA2F2B2FA82F202F01F0203
:10251000012101FA02F20242D2D1012051E04FF032
:10252000007292FAA2F22C4A10684FF0007292FAEE
:10253000A2F2B2FA82F202F01F02012101FA02F2C3
:102540001042BDD101203CE0224B1B6803F0070381
:10255000AB420AD91F4A136823F007032B431360C9
:10256000136803F00703AB4232D1236813F0040F62
:1025700006D0194A536823F4E063E1680B435360C3
:10258000236813F0080F07D0134A536823F46053ED
:10259000216943EAC1035360FFF716FF0E4B5B68E6
:1025A00003F0F003F02292FAA2F2B2FA82F2D340E0
:1025B0000A4AD35CD8400A4B18600020FFF7A2FB00
:1025C000002070BD012070470120FAE70120F8E7E4
:1025D0000120F6E70020024000100240845200086B
:1025E00030000020014B1868704700BF3000002009
:1025F00008B5FFF7F7FF074B5B6803F4E0634FF4A0
:10260000E06292FAA2F2B2FA82F2D340024AD35CBA
:10261000D84008BD001002409452000808B5FFF7EA
:10262000E1FF074B5B6803F460534FF4605292FA8A
:10263000A2F2B2FA82F2D340024AD35CD84008BD7B
:102640000010024094520008F0B583B004460368BD
:1026500013F4803F48D0914BDB6913F0805F40F06A
:10266000D5808E4BDA6942F08052DA61DB6903F083
:1026700080530193019B0125894B1B6813F4807FD4
:1026800000F0C680854B1B6A13F4407322D0626849
:1026900002F440729A421DD08048016A21F44076CB
:1026A0004FF4803393FAA3F2B2FA82F27D4F3A44A8
:1026B00092004FF0010CC2F800C093FAA3F3B3FAF2
:1026C00083F33B449B0000221A60066211F0010F65
:1026D00040F0B380714A136A23F4407361680B437E
:1026E0001362002D40F0D080236813F0010F06D054
:1026F0006A4A136B23F00303A1680B431363236837
:1027000013F0020F06D0654A136B23F44033E168DF
:102710000B431363236813F0040F06D05F4A136B57
:1027200023F4402321690B431363236813F0200F24
:1027300006D05A4A136B23F01003E1690B4313636D
:10274000236813F4003F06D0544A536823F48003EF
:10275000A16B0B435360236813F0400F06D04F4A20
:10276000136B23F02003216A0B431363236813F0D8
:10277000080F06D0494A136B23F4401361690B43D9
:102780001363236813F0100F06D0444A136B23F42D
:102790004003A1690B431363236813F4007F06D041
:1027A0003E4A536823F40003E16A0B4353602368F5
:1027B00013F0800F06D0394AD36A23F4F873616AA4
:1027C0000B43D362236813F4807F06D0334AD36A65
:1027D00023F47853A16A0B43D362236813F4805F18
:1027E00006D02E4A136B23F48073216B0B431363C3
:1027F000236813F4005F4ED0284A136B23F4007350
:10280000616B0B431363002003B0F0BD002533E779
:10281000234A136843F480731360FFF7B7FA064640
:102820001F4B1B6813F4807F7FF42CAFFFF7AEFAC9
:10283000801B6428F4D90320E6E7FFF7A7FA0646D1
:1028400015E0164B196A022393FAA3F3B3FA83F344
:1028500003F01F03012202FA03F30B427FF43AAFA5
:10286000FFF794FA801B41F28833984211D8022373
:1028700093FAA3F293FAA3F3002BE2D1022393FA83
:10288000A3F3064B596ADEE7D36923F08053D36183
:102890002AE70320B8E70020B6E700BF0010024097
:1028A0000070004000819010F0B482B0002336E048
:1028B000042400E00024B4403C4302355B4E46F85B
:1028C00025405B4C2568D44304EA05064F6817F49D
:1028D000803F01D042EA0506554D2E606D6804EA3E
:1028E00005064F6817F4003F01D042EA0506504D37
:1028F0006E60AD6804EA05064F6817F4801F01D0CA
:1029000042EA05064A4DAE60ED682C404E6816F46A
:10291000001F01D042EA0504454AD46001330A6829
:1029200032FA03F47ED001249C402240F6D04D6858
:10293000022D01D0122D10D1DE08083650F826C025
:1029400003F00705AF000F25BD402CEA050C0D690B
:10295000BD4045EA0C0540F8265006685F00032597
:10296000BD40ED4305EA060C4E6806F00306BE4086
:1029700046EA0C0606604E6806F1FF3CBCF1010F0A
:1029800003D9112E01D0122E10D1866805EA060C4B
:10299000CE68BE4046EA0C068660466826EA040415
:1029A0004E68C6F300169E4026434660C468254024
:1029B0008C68BC402C43C4604C6814F0805FADD080
:1029C0001C4CA56945F00105A561A46904F001044A
:1029D0000194019C9D08AE1C144C54F8267003F021
:1029E0000304A6000F24B44027EA0407B0F1904F77
:1029F0003FF460AF104CA0420ED004F58064A042BA
:102A00000CD004F58064A0420AD004F58064A04292
:102A10003FF44EAF05244EE701244CE702244AE779
:102A2000032448E702B0F0BC704700BF000001403B
:102A30000004014000100240000400480AB1816116
:102A40007047816270474369594041617047000097
:102A5000074AD36823F4E0631B041B0C000200F454
:102A6000E060184340F0BF6040F40030D060704731
:102A700000ED00E030B4174BDB68C3F30223C3F171
:102A80000704042C28BF04241D1D062D01D9033B77
:102A900000E000234FF0FF3505FA04F421EA0401B9
:102AA000994005FA03F322EA03031943002809DBDE
:102AB0000901C9B200F1604000F5614080F80013DF
:102AC00030BC704700F00F000901C9B2024B195425
:102AD000F6E700BF00ED00E014ED00E00138B0F1D2
:102AE000807F0AD2064B5860064AF02182F82310F4
:102AF0000020986007221A6070470120704700BFCD
:102B000010E000E000ED00E01549D1F8883043F412
:102B10007003C1F88830134B1A6842F001021A6042
:102B20005868114A02405A601A6822F0847222F4EE
:102B300080321A601A6822F480221A605A6822F4DD
:102B4000FE025A60DA6A22F00F02DA62186B074A54
:102B500002401A6300229A604FF000638B60704756
:102B600000ED00E0001002400CC07FF8CCFC00FF3C
:102B7000091A89B208B2002800DB7047203108B278
:102B8000FBE710B421F0604420F06042C30FB3EBC8
:102B9000D17F11D000290BDB00280BDB944203D03E
:102BA00094422CBF0023012318465DF8044B704764
:102BB000A40CF1E7920CF1E7C1F38071C0F38073CC
:102BC000944204D094422CBF00230123ECE79942A5
:102BD000EAD1F7E710F0800F04D010F4004F03D0D3
:102BE00001207047022070470020704710B504464E
:102BF000FFF7F0FF022802D0C4F3074010BDC4F372
:102C00000F2014F07F0FF9D100F00300F6E720B198
:102C100003698B4201D00068F9E7704700207047D4
:102C200080EA0120002307E0400080B280F4815058
:102C300080F001000133DBB2072B05D810F4004F00
:102C4000F2D1400080B2F5E7704770B516461D46D8
:102C5000002410E0C4F12002A4F1200326FA04F1BC
:102C600005FA02F2114325FA03F31943C9B2FFF73B
:102C7000D7FF0834A4B23F2CECD970BD38B50C4650
:102C8000551E2AB114F8011BFFF7CAFF2A46F7E7C1
:102C900038BD30B4054600239A4205D901EB4314F0
:102CA0002C6025460133F7E700232B608280C38028
:102CB000038130BC70470246006850B1036813605E
:102CC000D38801339BB2D38011898B4202D91381FF
:102CD00070470020704708B5FFF7EDFF034608B1C5
:102CE00000220260184608BD2DE9F047CC8AC4F3E3
:102CF0000904062C3BD026462546002409E012F89C
:102D000004E001EB050C8CF81AE00135ADB201349A
:102D1000A4B2052D03D81FFA83FCA445EFD89DB2B9
:102D2000A5421DD91F46164689468246C98AC1F367
:102D300009018A1F93083748A0FB0303C3EBC303B1
:102D40004FEA8308A2EB08021FFA82F8D9F8045070
:102D50007DB101232A68BAB101339BB21546F9E768
:102D60003544CB8A65F30903CB82012046E0002479
:102D7000D8E75046FFF7AFFF0546C9F80400002822
:102D80003ED04FF0000821E07A18063A9208214917
:102D9000A1FB021292B2013292B2934216D2B8F162
:102DA000000F13D15046FFF796FF286058B3054631
:102DB0000CE0315DEA18117101339BB20134A4B209
:102DC0001B2B01D8A042F4D8A04204D8B8B2A0422C
:102DD0000AD94346F4E75046FFF77DFF2860A8B1C3
:102DE00005464FF00008F1E7B9F81630C3F30902C1
:102DF000104460F30903A9F816300120BDE8F087FC
:102E00006FF00200FAE76FF00200F7E76FF00200E0
:102E1000F4E700BF254992242DE9F04190B10D4619
:102E200080460B7CABB1C769D7B13E463C4624B364
:102E300069686068FFF7A5FEA8B923682646DBB17C
:102E40001C46F4E70E4B0F4A4FF46F710E4801F029
:102E5000D9F90E4B0B4A40F2BD310B4801F0D2F9C3
:102E6000C8F81C1009E0A74202D035602C6004E0CD
:102E70002C60C8F81C5000E02560BDE8F08100BF60
:102E8000AC54000820530008745600088C56000803
:102E900008B540B103780133DBB203701F2B01D9B1
:102EA0000023037008BD034B034A40F25531034829
:102EB00001F0A8F934560008FC52000874560008C6
:102EC00008B503680B600160C38813B1013BC38080
:102ED00008BD034B034A40F22F61034801F092F909
:102EE00004560008805300087456000870B5064662
:102EF0000C46616831B10D6806F10C00FFF7E0FF88
:102F00006560F6E7E38A6FF30903E382002000219E
:102F100070BD000008B5436883B9C37DC3F3840264
:102F2000013262F38603C375C38A6FF30903C38258
:102F3000C3F307236FF3C713C37508BD034B044ADC
:102F400040F22641034801F05DF900BF50560008E9
:102F50002C530008745600082DE9F843089FB2B3BB
:102F60004FEAD10C03EBD70301F0070107F0070785
:102F70000A44914232D001F0070807F0070E464696
:102F8000F04538BF7646C6F10806541AA64228BF57
:102F900026464FF47F45F540EDB245FA0EF5CC08D4
:102FA00000EB0C0919F8044004FA08F424FA0EF4B2
:102FB000E4B24FEAD70813F808E08EEA04042C4084
:102FC0008EEA040E03F808E031443744D1E7044B9D
:102FD000044A4FF4A661044801F014F9BDE8F883EF
:102FE000C054000844530008745600082DE9F04FFF
:102FF00087B0059203930490002840D08846049B34
:103000009B8ADA008A4240F2ED80059941448A4267
:1030100005D2D0B25FFA88F3C01AC3B20593059BFC
:10302000002B33D0049BDB68002B36D0B8F12F0F78
:1030300044D8C8F13003059A9A423CD35FFA88F32A
:10304000C3F13003DBB2029300230093039B029C85
:103050002246414604988068FFF77EFFA044059A07
:10306000141BE4B2049B9F8A07F10057063FFF0040
:10307000D3F80CA04FF03009A346544644E05A4B15
:103080005A4A40F252515A4801F0BCF8594B574A3B
:1030900040F25E51564801F0B5F8049B1B69002BC5
:1030A000C4D100230093039B059A4146049880688D
:1030B000FFF752FF6EE0059B0293C5E7059C0023D6
:1030C0000293CFE74C4B494A40F27F51484801F008
:1030D00099F85D46C84530D3029B0093039B2A466E
:1030E000A8EB0901201DFFF737FFA844029B2B44E2
:1030F000DBB20293ABEB050B5FFA8BFBB14523D23E
:10310000A7EB0A072468B1462CB3BBF1000F22D00D
:10311000002FD7D0BA46E02F28BF4FF0E00A0AEBC5
:103120000906B045EAD2A6EB08039B45D1D3F5B218
:103130005FFA88F3ED1AEDB2CCE7304B2B4A4FF42F
:10314000B1612B4801F05EF82D4B284A40F29251B4
:10315000274801F057F85C46BB4520D8049B186906
:1031600078B174B1C84521D3029E0096039B2246D4
:10317000A8EB0901FFF7F0FED8443444E3B2029310
:103180000024049B9B8AB8EBC30F16D8029B402BEC
:103190001AD804BBBDF9140007B0BDE8F08F194B75
:1031A000124A4FF4B361124801F02CF8134B0F4A46
:1031B00040F29D510E4801F025F8134B0B4A4FF495
:1031C000B5610B4801F01EF8104B084A40F2A951B6
:1031D000074801F017F80E4B044A40F2AA51044880
:1031E00001F010F80020D7E7D0540008545300082D
:1031F00074560008E0540008F05400080455000814
:103200002C550008545500087C550008AC550008A2
:10321000C455000810B558B10246013900238B424D
:103220000DD2D05C545CD454505401330139F6E7CC
:10323000034B044A40F2C551034800F0E3FF10BDC0
:10324000A8560008705300087456000808B5FFF728
:1032500032FD034628B10022026042608260C260F3
:103260000261184608BD00002DE9F04F83B00092BE
:1032700001930C9EBDF8345098B18B46824611F0F4
:10328000604F15D1009B002B79D00DB1002E79D065
:10329000072D14D94FF080094FF0000844464746E7
:1032A0004FE03D4B3D4A40F265313D4800F0AAFFFA
:1032B0003C4B3A4A40F26631394800F0A3FF0AF12C
:1032C0000C00FFF7C3FF044600285ED02A463146B3
:1032D000083000F0EBFF6B1C2374009B1B7803F09D
:1032E0001F0343F0C00325442B724BF0004363607F
:1032F00021465046FFF790FD0127384603B0BDE850
:10330000F08F00232CE0AC4236D04FEA4812D2B204
:1033100042EA0909009A127802F01F0249EA0209FA
:10332000CA1882F808904BF000424A6001330B74CF
:103330005046FFF771FD01373FB288F001084FF0AA
:103340000009AC42D9D00AF10C00FFF77FFF01461B
:10335000F0B1002CD5D1019B03721B0A43720223EA
:10336000062BD0D8AC42CED2305DCA1810720133D1
:10337000DBB20134A4B2F3E74FF04009C5E76FF0C8
:103380000107BAE76FF00107B7E76FF00207B4E78C
:103390006FF00207B1E700BFAC54000810530008FB
:1033A00074560008E055000830B589B004460D4653
:1033B00020220021684600F087FF04952046FFF791
:1033C0007AFC054650B16C460FCC28606960AA6053
:1033D000EB600FCC28616961AA61EB61284609B0F6
:1033E00030BD10B504460C30FFF7DEFF034610B1C8
:1033F000A2690260A061184610BD38B504460D46AA
:10340000806928B1FFF703FC034650B1184638BD68
:1034100004F10C00FFF7C8FF03460028F6D0A061B6
:10342000F4E729462046FFF7DCFF0346EEE70000FD
:1034300010B5C8B1044600202060E06020616061E2
:103440002070A360029B6360A061E061039B236224
:103450005309B2F5001F01D34FF6FF739AB204F17E
:103460000C00FFF716FC10BD024B034A4F21034826
:1034700000F0C8FEA85400089C52000874560008CA
:1034800008B538B102785AB951B111F0800F07D19F
:10349000017008BD054B064A7321064800F0B2FED4
:1034A000054B034A7D21034800F0ACFEAC540008F4
:1034B000A852000874560008DC54000800787047D1
:1034C0002DE9F04A85B0BDF830409DF838B00F9E28
:1034D000BDF840709EB3BBF11F0F4BD8CDE902235E
:1034E0000546FFF7EBFF814670BB072F45D834F048
:1034F000030345D13A4631464FF6FF70FFF7BEFB56
:1035000020F001004004400C400240EA0B6B240212
:1035100004F440744BEA040444EA09094FF6FF73CB
:10352000019700960D9A49462846FFF79DFE0446EE
:103530000D98FFF7ADFC204605B0BDE8F08A002FDE
:10354000C9D06FF00104F6E7240244EA0B6444EAB0
:103550000009072F0BD9DDE902234FF6FF70FFF7B3
:1035600074FB3A463146FFF789FB0346D8E74FF62E
:10357000FF73D5E76FF00104DDE76FF00304DAE7CE
:103580006FF00104D7E72DE9F04F83B09DF8384084
:103590009DF83CA0109EBDF8447016B31F2C3AD87D
:1035A000904699468B460546FFF788FFB0B39DF8D5
:1035B00030301B0443EA046444EACA3444EA0B246E
:1035C000044344F08004072F10D942464B464FF67F
:1035D000FF70FFF73AFB3A463146FFF74FFB0346D1
:1035E00006E0002FDAD06FF001040CE04FF6FF7315
:1035F000019700960D9A21462846FFF735FE0446AE
:10360000BAF1010F03D0204603B0BDE8F08F0D984A
:10361000FFF73EFCF7E76FF00104F4E76FF00304F7
:10362000F1E7C06908B1043070470020704708B561
:10363000C1690B68C3610C30FFF742FC08BD000094
:103640002DE9F04182B0089E002800F01B8104465D
:10365000002E00F01A81551EEDB23F2D00F21881A8
:10366000012A02D1002B40F0168120461D46144647
:103670000023009301936B46FFF7B8FC071E54DD4F
:103680007B1E9BB23F2B1CD8A7421ADC14F0070FFD
:103690000AD002AB03EBD40111F8083C624202F0FD
:1036A0000702134101F8083C012C18D0082C40D91E
:1036B000102C41D9202C42D9402C09D84FF00808B1
:1036C0000EE0764B764A4FF40B71764800F09AFD87
:1036D000754B734A40F24521724800F093FDA046B5
:1036E00008F1FF33DBB2072B2CD8FFF797FA80BB2A
:1036F0009DB1B4EBC80F10D0082C2FD89DF8001046
:10370000621E21FA02F212F0010F06D00123A3403B
:103710005B42DBB20B438DF80030002D00F08D8052
:10372000082C71D89DF900303370384602B0BDE8DE
:10373000F0814FF00108D3E74FF00208D0E74FF0D7
:103740000408CDE7594B564A40F24921554800F04C
:1037500059FD41466846FFF75DFDC9E7102C0FD8BB
:10376000BDF80020631E22FA03F313F0010FD4D03A
:103770000123A3405B429BB21343ADF80030CCE77A
:10378000202C0CD8009A631E22FA03F313F0010FC9
:10379000C3D00123A3405B421A430092BDE73F2CF4
:1037A0002BD8DDF800C0019A631EC3F12000A4F1FC
:1037B00021012CFA03F302FA00F0034322FA01F18B
:1037C0000B4303F00100002150EA0103A5D00123BF
:1037D000A4F12008C4F1200E03FA08F123FA0EFE2A
:1037E00041EA0E0103FA04F0404261EB41014CEA68
:1037F00000030A43009301928FE72B4B284A40F2C3
:103800007721284800F0FEFC102C03D8BDF90030C9
:1038100033808AE7202C02D8009B336085E7402C58
:1038200004D8DDE90023C6E900237EE71E4B1C4ACD
:1038300040F287211B4800F0E5FC012C05D0082C44
:1038400007D89DF8003033706FE79DF80030337073
:103850006BE7102C03D8BDF80030338065E7202CCF
:1038600002D8009B336060E7402C04D8DDE90023D8
:10387000C6E9002359E70C4B094A4FF42571094862
:1038800000F0C0FC6FF001074FE76FF001074CE755
:103890006FF0010749E76FF0010746E78C53000816
:1038A000D452000874560008DC540008C8530008BD
:1038B000F0B585B090B10E4614460546ABB1402A2E
:1038C0001AD802B3002202920392012C22D0082CB3
:1038D0003ED81B788DF8083001271FE0284B294A75
:1038E0004FF42A71284800F08DFC284B254A40F2FD
:1038F000A921254800F086FC254B224A40F2AD2143
:10390000214800F07FFC224B1E4A40F2B3211E48A2
:1039100000F078FC1B788DF808302746FFF77EF919
:1039200048BB14F0070F0AD004AB03EBD40111F825
:10393000083C624202F00702934001F8083C0096FE
:103940002B462246002102A8FFF706FB05B0F0BD7A
:10395000102C04D81B88ADF808300227DEE7202C95
:1039600003D81B6802930427D8E7D3E90023CDE9E5
:1039700002230827D2E7394602A8FFF74BFCD0E71D
:10398000F8530008E8520008745600081454000860
:10399000DC54000870B506460C46E16831B10D688C
:1039A00006F10C00FFF78CFAE560F6E70023E36010
:1039B000A3602361A38270BD2DE9F04F93B08046D0
:1039C0000D46029203930C682046FFF703F9064662
:1039D000022835D0C4F3062B002C2EDA14F0C04F89
:1039E0002BD12F7B4FB3022E04D04046FFF766FD4C
:1039F000584522D1C4F30463069304F07F0920469E
:103A0000FFF7F4F8079040EA064343EA894343EAA4
:103A10004B6B013F2F443F795FEAD71A22D0002237
:103A20000023CDE90A23D8F80440CDF800903346AE
:103A300002460AA94046A04728B913B0BDE8F08F56
:103A40004FF0000BC8E759464046FFF7D6FC044646
:103A50000028F2D0DDE90A234FF6FF70FFF7F5F8F2
:103A6000A08207E05946D8F81800FFF7D0F80446BE
:103A70000028E2D03CB3D4E90201029B1B1A049354
:103A8000039BCDE9080163EB01030593E07D07F09B
:103A90001F0B5946C0F38400FFF76AF88446DDE93E
:103AA0000823134318D0A14A0023DDE904018B4207
:103AB00008BF82424AD3BAF1000F49D0BCF1010FCE
:103AC00008DD012309E09A4B9A4A4FF49D719A4808
:103AD00000F098FB002300E00123002B3AD1BAF15B
:103AE000000F02D017F0400F49D1C7F34013E27D19
:103AF000B3EBD21FA1D1C2F384039B459DD1BAF190
:103B0000000F6AD017F0400F67D12B7B032B94D99D
:103B1000029BA360039BE360AE1D2B7B033BDBB2E8
:103B20003246214608F10C00FFF7DEF800284CDB96
:103B30002B796A7943EA022323832A7B033AD2B2A0
:103B40003146A08AFFF79AF8A0826CE00123C4E70F
:103B50000023C2E7E37D67F386036FF3C713E375C2
:103B600021464046FFF7C2F9BAF1000FB7D1E37D15
:103B7000C3F38402013262F38603E3755DE7029AC0
:103B8000A2600399E16000230D930E9311930A92B2
:103B90000B912B1D0C932B7B013BDBB2ADF83C3022
:103BA000079BADF83E308DF840608DF841B0069B24
:103BB0008DF842308DF84390D8F808300AA9404675
:103BC00098472046FFF7A6F937E721464046FFF71A
:103BD0008DF92046FFF79EF92FE7BAF1000F02D1C9
:103BE00017F0400F0BD0297B0139C9B2E28AC2F32A
:103BF0000902052A27D9606898B3062735E02E1DEB
:103C00002B7B013BDBB23246214608F10C00FFF76B
:103C10006BF800280FDB2A7B013AD2B23146A08A2A
:103C2000FFF72CF8A082E37DDA43C2F3C01262F3FF
:103C3000C713E37501E721464046FFF757F92046D1
:103C4000FFF768F9F9E6002306E0E8180779A018FD
:103C5000877601320133DBB2052A2AD88B42F4D3AE
:103C600027E0002325E01C3718460368002BFAD113
:103C700020B1D21B1B2A08D8002316E02F4B2D4A57
:103C80004FF4D8712C4800F0BDFA2D4B294A40F270
:103C9000B311294800F0B6FAEF1897F804C0871856
:103CA00087F804C001320133DBB21B2A01D88B42F2
:103CB000F2D3029A0A92039A0B9204F11A020C921E
:103CC00062680D928B4228D22B4404330E93E38A10
:103CD000C3F309031944ADF83C10079BADF83E301F
:103CE0008DF840608DF841B0069B8DF842308DF81C
:103CF0004390002363602A7B013A291DA08AFEF7C6
:103D0000BDFFA082238B984209D00AA94046FFF745
:103D100041FE2046FFF7FEF88FE60023D6E7D8F8ED
:103D200008300AA940469847EFE700BF80841E008C
:103D30002C540008C052000874560008445400086F
:103D40005C54000810B4034620F0604421F0604247
:103D5000C80FB0EBD37F10D0002B0ADB00290ADBA1
:103D6000944203D094422CBF002001205DF8044B04
:103D70007047A40CF2E7920CF2E7C3F38073C1F32F
:103D80008070944204D094422CBF00200120EDE7C3
:103D90008342EBD1F7E7021E06DB500512F0804F9D
:103DA00001D040F002007047D30043F00400F5E773
:103DB00010F0040F07D1430D10F0020F01D043F0B3
:103DC000804318467047C30843F00043F4E70022DD
:103DD000B2F57A7F08D2436803F00103DBB28B426D
:103DE00004D0013292B2F3E70020704701207047FF
:103DF0000D4B9B6913F0700F15D00B4B00229A618D
:103E00000A4A9368D168013341F100019360D1609F
:103E1000074B1B7823B9044B9B6913F0040F02D0A6
:103E2000014B044A9A60704700640040E804002097
:103E3000E404002080808000022900F2B480002881
:103E400000F0B48038B50388002B00F0B280B3F5E1
:103E5000806F00F2B1800379002B00F0B080042B5A
:103E600000F2B0808378002B00F0AF80102B00F2BE
:103E7000AF80C378002B00F0AE80082B00F2AE803C
:103E80000C460546574A0023136053609360D36085
:103E9000022914BF00210121534A11705348436184
:103EA000036823F002030360036843F00103036027
:103EB0000121FFF78CFF002857D04C4B61221A607C
:103EC0002B79013B1B0603F04073AA78013A1204D8
:103ED00002F470221343EA78013A120502F4E00278
:103EE00013432A88013AC2F309021343012C43D039
:103EF000002213433D4AD3615369002B3FD13B4815
:103F0000036823F0010303600021FFF760FF00282E
:103F10003BD0364AD2F8003223F47C5323F00E0310
:103F200043F4606343F00103C2F80032D2F8003278
:103F3000C3F305230E2B2FD12C4B0020C3F8040212
:103F40006FF07042C3F80C22294AC3F81422C3F858
:103F50004002C3F844020122C3F81C22D3F8002215
:103F600022F00102C3F8002238BD204B4FF400427A
:103F70001A606FF47A70F7E74FF00042B9E71D4B13
:103F80001D4AEA211D4800F03DF9184B4FF400424C
:103F90001A60A0F2EA30E7E7194B174A4FF4807134
:103FA000164800F02FF96FF0010070476FF0010024
:103FB00070476FF00100D7E76FF00100D4E76FF0B2
:103FC0000100D1E76FF00100CEE76FF00100CBE711
:103FD0006FF00100C8E76FF00100C5E76FF0010066
:103FE000C2E700BFE8040020E404002000640040B1
:103FF000AAAAAA0AE8560008C456000820570008D2
:104000004C570008002875D070B582B0044603688C
:1040100013F0005F71D1FFF7EBFE394B9B6803F0A3
:10402000E053B3F1E05F63D0354B9A68C2F380622E
:104030008DF804209A68C2F3C0628DF805209B6851
:10404000C3F300738DF806300025FF2602E02E46EC
:104050000135EDB2022D13D802AB2B4413F8043C0A
:10406000002BF4D105F118031B01254AD058FFF7A6
:104070009FFE01462068FFF765FE0028E8D127E093
:10408000FF2E27D0022E2CD8350105F1804505F5ED
:10409000CB45237B6B60E27AA37A1B0443EA02637D
:1040A000627A43EA0223227A1343EB60E279A3792E
:1040B0001B0443EA0263627943EA02232279134331
:1040C000AB602068FFF767FE40F001002860012028
:1040D00002B070BD0B4B0C4A40F25F110B4800F070
:1040E00091F80B4B084A40F26911084800F08AF831
:1040F0000026C9E76FF0010070470648E8E700BFF7
:104100000064004098570008D45600082057000863
:10411000A857000815FCFFFF002840D070B50646E0
:10412000FFF766FE0023012B37D81E4C04EB031467
:104130001D4A52F823502A6812F0030F01D10133AF
:10414000F1E72B6813F0100F07D0184A1368516875
:10415000013341F10001136051602068FFF728FE30
:104160003060636803F00F033373A268E368327151
:10417000C2F307217171C2F30741B171120EF271DE
:104180003372C3F307227272C3F30742B2721B0E7B
:10419000F37238232B60012000E0002070BD6FF027
:1041A00001007047B0650040BC560008E8040020DC
:1041B000DFF834D0002103E00C4B5B58435004314E
:1041C0000B480C4B42189A42F6D30B4A02E00023EC
:1041D00042F8043B094B9A42F9D3FEF795FC00F0F4
:1041E00041F8FCF7EFFAFEE700A00020985800081D
:1041F0000000002098000020980000204C060020BD
:10420000FEE700001FB51C46094B1B680546D86831
:1042100052B1084B0091CDE9013207492B462246A5
:1042200000F00EF800F060FA044B1A46F2E700BF07
:1042300034000020B8570008C5570008F35700089D
:104240000EB403B5014603AB054853F8042B0068D0
:10425000019300F06BF802B05DF804EB03B0704717
:104260003400002070B50D4D0D4C641BA4100026C9
:10427000A64209D10B4D0C4C00F0A0FF641BA4100A
:104280000026A64205D170BD55F8043B984701367B
:10429000EEE755F8043B98470136F2E790580008DE
:1042A0009058000890580008945800080A44914219
:1042B00000F1FF3300D1704710B511F8014B03F83E
:1042C000014F9142F9D110BD02440346934200D1FF
:1042D000704703F8011BF9E79368013B002B10B40A
:1042E000936008DA9469A34201DB0A2903D15DF8DF
:1042F000044B00F039B91368581C10601970084657
:104300005DF8044B7047F8B506460F461446D518BD
:10431000AC4201D1002007E03A4614F8011B3046B8
:10432000FFF7DAFF431CF3D1F8BD00002DE9F04F91
:104330000D469DB014461E46074618B183690BB959
:1043400000F0CAFA774B9D425AD17D68AB891807B5
:1043500060D52B69002B5DD00023099320238DF8B5
:104360002930DFF8C491039630238DF82A304FF0BE
:10437000010A23461E4613F8012B0AB1252AF9D15A
:10438000B6EB040B0BD05B46224629463846FFF7B6
:10439000BAFF013000F0B880099B5B440993337881
:1043A000002B00F0B18000234FF0FF32CDE9052350
:1043B0000136049307938DF853301A93344605223F
:1043C00014F8011B5848FBF7EBFE049B68BBD906A9
:1043D00044BF20228DF853201A0744BF2B228DF8AA
:1043E000532032782A2A28D0079A344600200A26F9
:1043F000214611F8013B303B092B60D918BB29E05D
:104400004A4B9D4201D1BD68A0E7494B9D4208BF80
:10441000FD689BE72946384600F0F8F800289BD055
:104420004FF0FF301DB0BDE8F08FA0EB09000AFA95
:1044300000F0184304902646C0E7039A111D126845
:104440000391002A01DB079204E0524243F0020389
:104450000792049323782E2B0CD163782A2B33D127
:10446000039B1A1D1B680392002BB8BF4FF0FF334C
:10447000023405932F4E217803223046FBF790FE3D
:1044800038B14023801B03FA00F0049B034301343E
:10449000049314F8011B28488DF828100622FBF716
:1044A0007FFE002835D0254B13BB039B073323F039
:1044B000070308330393099B4344099359E706FB19
:1044C000023201200C4693E700230134059319467C
:1044D0000A26204610F8012B303A092A03D9002B6E
:1044E000C8D00591C6E706FB012101230446F0E789
:1044F00003AB00932A46124B04A93846AFF3008061
:10450000B0F1FF3F8046D6D1AB895B0688D40998CD
:1045100088E703AB00932A46094B04A9384600F00C
:10452000E7FBEDE72C580008F85700084C58000846
:104530000C580008FE570008025800080000000050
:104540000743000810B56AB10139841810F8013B1F
:1045500011F8012F934203D1A04201D0002BF5D1D5
:10456000981A10BD1046FCE7F8B50E4614460546ED
:1045700018B183690BB900F0AFF9214B9C422BD1E4
:104580006C68A369A360A3891A072FD523696BB34D
:1045900023692068C01A6369F6B28342374604DC97
:1045A0002146284600F02EF930BBA368013BA360EA
:1045B00023685A1C22601E7063690130834204D054
:1045C000A389DB0706D50A2E04D12146284600F030
:1045D00019F988B93846F8BD0A4B9C4201D1AC683C
:1045E000CFE7094B9C4208BFEC68CAE72146284642
:1045F00000F00CF80028CBD04FF0FF37EAE700BFFF
:104600002C5800084C5800080C580008324B70B564
:104610001D6806460C4625B1AB6913B9284600F063
:104620005BF92E4B9C420FD16C68B4F90C309AB2F6
:1046300015072CD4D00611D40922326043F0400370
:10464000A3814FF0FF303EE0254B9C4201D1AC6886
:10465000EBE7244B9C4208BFEC68E6E7510712D514
:10466000616B41B104F14403994202D0304600F03D
:1046700021FA00236363A38923F02403A381002389
:10468000636023692360A38943F00803A38123693E
:104690004BB9A38903F42073B3F5007F03D02146FF
:1046A000304600F0C7F9A28912F001030CD00023B4
:1046B000A36063695B42A361236953B9B4F90C3009
:1046C00013F08000BAD170BD920758BF6369A36030
:1046D000F2E70020F7E700BF340000202C58000864
:1046E0004C5800080C58000808B5062000F04CFC97
:1046F000012000F061FD00008A892DE9F0410546A6
:1047000010070C4658D44B68002B05DC0B6C002BB3
:1047100002DC0020BDE8F081E66A002EF9D000231B
:1047200012F480522F682B6032D0606DA3895A0733
:1047300005D56368C01A636B0BB1236CC01A0023E4
:104740000246E66A216A2846B047431CA38906D17F
:1047500029681D2949D82A4ACA40D60745D50022CA
:104760006260D9042269226004D5421C01D12B6801
:1047700003B96065616B2F600029CAD004F144035E
:10478000994202D0284600F095F900206063C1E705
:10479000216A01232846B047411CC7D12B68002B52
:1047A000C4D01D2B01D0162B01D12F60B1E7A389F6
:1047B00043F04003A381ADE70F69002FA9D0930711
:1047C0000E6808BF4B690F6018BF0023A6EB0708EF
:1047D0008B60B8F1000F9CDD43463A46216AA66A19
:1047E0002846B047002806DCA38943F04003A38194
:1047F0004FF0FF308EE70744A8EB0008E9E700BF61
:104800000100402038B50B6905460C46DBB118B1F4
:1048100083690BB900F060F80C4B9C4209D16C68BD
:10482000B4F90C307BB121462846BDE83840FFF78B
:1048300063BF074B9C4201D1AC68F1E7054B9C423A
:1048400008BFEC68ECE7002038BD00BF2C5800081A
:104850004C5800080C580008002310B50446C0E965
:104860000033836081814366C281C0E90433836180
:10487000194608225C30FFF727FD054B6362054BA4
:10488000A362054BE362054B2462236310BD00BFA6
:10489000C14F0008E34F00081B5000083F500008BC
:1048A000014900F085B800BF0548000870B54A1EF0
:1048B000682555430E4605F1740100F049F9044698
:1048C00040B10021C0E900160C30A06005F168027B
:1048D000FFF7FAFC204670BD836910B5044633BB70
:1048E000C0E912330365124B124A1B688262984278
:1048F00004BF0123836100F01FF86060204600F0D0
:104900001BF8A060204600F017F80022E0600421A8
:104910006068FFF7A1FF01220921A068FFF79CFF53
:1049200002221221E068FFF797FF0123A36110BD67
:10493000F4570008A1480008F8B51B4B1E68B3697E
:10494000074613B93046FFF7C7FF4836D6E90134AA
:10495000013B03D53368DBB13668F7E7B4F90C5097
:10496000A5B9124B6566C4E90055A560C4E90335D5
:10497000C4E905550822294604F15C00FFF7A4FCB0
:10498000C4E90D55C4E912552046F8BD6834DFE787
:1049900004213846FFF78AFF30600028DCD10C2361
:1049A0003B600446F0E700BFF45700080100FFFF3A
:1049B0002DE9F8438046894600F14804002614B9E1
:1049C0003046BDE8F883D4E90175013F01D524687C
:1049D000F5E7AB89012B07D9B5F90E30013303D0C8
:1049E00029464046C84706436835EEE770B50E468F
:1049F000B1F90E10002996B014461D4607DA0023BF
:104A00002B60B3891A0610D44FF480630EE06A4617
:104A100000F03CFB0028F2DB019A02F47042A2F5A0
:104A200000535A425A412A60EEE740230020236097
:104A300016B070BD8B8973B59D0706460C4607D529
:104A400004F14703236023610123636102B070BD59
:104A500001AB6A46FFF7CAFF00990546304600F0F1
:104A600077F848B9B4F90C309A05EFD423F0030372
:104A700043F00203A381E3E70D4BB362A3892060F7
:104A800043F08003A381009B6361019B20615BB1C4
:104A9000B4F90E10304600F00BFB28B1A38923F0C7
:104AA000030343F00103A381A3891D43A581CDE73F
:104AB000A148000838B50546002945D051F8043C06
:104AC0000C1F002BB8BFE41800F014FB1F4A13683A
:104AD000104633B9636014602846BDE8384000F0E2
:104AE0000ABBA3420CD921686218934204BF1A681A
:104AF0005B68636004BF521822600460ECE71346F1
:104B00005A680AB1A242FAD919685818A0420BD1C2
:104B100020680144581882421960DDD1106852683B
:104B20005A6001441960D7E702D90C232B60D3E700
:104B3000206821188A4204BF11685268626004BF6D
:104B4000091821605C60C7E738BD00BFF804002089
:104B5000F8B5CD1C25F0030508350C2D38BF0C2504
:104B6000002D064601DBA94203D90C233360002047
:104B7000F8BD00F0BFFA21490A6814469CB9204FDD
:104B80003B6823B92146304600F0C6F93860294613
:104B9000304600F0C1F9431C23D10C23336030466A
:104BA00000F0A9FAE3E723685B1B17D40B2B03D9AA
:104BB00023601C44256004E06368A2420CBF0B60C4
:104BC0005360304600F097FA04F10B00231D20F0EB
:104BD0000700C21ACCD01B1AA350C9E7224664684A
:104BE000CCE7C41C24F00304A042E3D0211A3046D1
:104BF00000F092F90130DDD1CFE700BFF8040020CA
:104C0000FC0400202DE9F04791461F468A680B6995
:104C1000DDF820809342B8BF1346C9F8003091F800
:104C2000432006460C4612B10133C9F80030236810
:104C3000990642BFD9F800300233C9F80030256820
:104C400015F0060507D104F1190AE368D9F8002028
:104C50009B1AAB4228DC94F843302268003318BF1B
:104C6000012392062DD404F1430239463046C04751
:104C7000013020D02368E568D9F8002003F006034E
:104C8000042B08BFAD1AA36822690CBF25EAE5759D
:104C900000259342C4BF9B1AED184FF000091A3447
:104CA0004D451AD1002008E00123524639463046CE
:104CB000C047013003D14FF0FF30BDE8F087013528
:104CC000C3E7E1185A1C302081F84300224494F8CD
:104CD000451082F843100233C5E7012322463946C6
:104CE0003046C0470130E6D009F10109D8E700009D
:104CF0002DE9F04306460C4601F14300097E85B0DC
:104D00006E29984617460C9B00F0BA8024D8632978
:104D100039D00AD8002900F0C380582900F09180CA
:104D200004F1420584F8421035E0642901D0692974
:104D3000F6D125681A6815F0800F02F104012CD015
:104D400012681960002A03DA2D23524284F8433096
:104D5000DFF8BCC10A233FE0732900F0A58008D822
:104D60006F2921D07029DBD1226842F02002226015
:104D700003E0752918D07829D2D1782284F845200B
:104D8000DFF890C161E01A68111D1960136884F89A
:104D9000423004F14205012393E01268196015F0D6
:104DA000400F18BF12B2CDE7D4F800C01A681CF04B
:104DB000800F02F104051D6001D0126803E01CF0B1
:104DC000400FFAD01288DFF848C16F290CBF0823C2
:104DD0000A23002184F843106568A560002DA2BF56
:104DE000216821F0040121600AB9002D46D0054652
:104DF000B2FBF3F103FB112E93421CF80EE005F811
:104E000001ED39D9082B0BD12368DA0708D52369BE
:104E100062689A42DEBF302305F8013C05F1FF3598
:104E2000401B2061CDF800803B4603AA2146304656
:104E3000FFF7E8FE013049D14FF0FF3005B0BDE883
:104E4000F083DFF8CCC084F845101D68216855F860
:104E5000042B1D600D060BD5CD0744BF41F020018A
:104E600021601AB9236823F0200323601023B0E7E0
:104E70004B0648BF92B2EFE70A46B9E70546C1E7DD
:104E80001A68D4F800C06169151D1D601CF0800F00
:104E9000136801D0196003E01CF0400FFAD01980AC
:104EA000002323610546BDE71A68111D19601568C6
:104EB000626800212846FBF773F908B1401B606067
:104EC00063682361002384F84330ABE723692A46F3
:104ED00039463046C0470130AED023689B0713D413
:104EE000E068039B9842B8BF1846A7E701234A46EB
:104EF00039463046C04701309ED00135E368039AF9
:104F00009B1AAB42F2DCEBE7002504F11909F5E747
:104F10006C5800087D58000838B5064C002305463B
:104F20000846236000F032F9431C02D1236803B124
:104F30002B6038BD480600201F2938B504460D46B1
:104F400004D9162303604FF0FF3038BD426C12B114
:104F500052F821304BB9204600F030F82A4601467D
:104F60002046BDE8384000F017B8012B0AD0591C84
:104F700003D1162303600120E7E7002442F825400F
:104F8000284698470020E0E7024B01461868FFF7E3
:104F9000D3BF00BF3400002038B5074C00230546BE
:104FA00008461146236000F0D9F8431C02D123685B
:104FB00003B12B6038BD00BF4806002000F0BEB82A
:104FC00010B50C46B1F90E1000F096F80028ABBFF2
:104FD000636DA3891B1823F48053ACBF6365A38161
:104FE00010BD2DE9F0411F468B89DB0505460C46B7
:104FF000164605D502230022B1F90E1000F068F81C
:10500000A389B4F90E1023F48053A38132463B46A2
:105010002846BDE8F04100F017B810B50C46B1F9CC
:105020000E1000F055F8431CA38915BF606523F4EA
:10503000805343F48053A38118BFA38110BDB1F9FD
:105040000E1000F013B8000038B5074C05460846AE
:105050001146002222601A4600F0A6F8431C02D135
:10506000236803B12B6038BD4806002038B5064CD4
:10507000002305460846236000F050F8431C02D187
:10508000236803B12B6038BD4806002038B5074CB3
:105090000023054608461146236000F047F8431CEC
:1050A00002D1236803B12B6038BD00BF4806002041
:1050B00038B5064C002305460846236000F046F844
:1050C000431C02D1236803B12B6038BD4806002081
:1050D00038B5074C054608461146002222601A469C
:1050E00000F044F8431C02D1236803B12B6038BDA3
:1050F000480600207047704738B5074C05460846FB
:105100001146002222601A4600F038F8431C02D1F2
:10511000236803B12B6038BD48060020024B58229B
:105120001A604FF0FF30704748060020024B5822AB
:105130001A604FF0FF30704748060020024B58229B
:105140001A604FF0FF30704748060020024B58228B
:105150001A600020704700BF48060020024B58220A
:105160001A604FF0FF30704748060020024B58226B
:105170001A604FF0FF30704748060020024B58225B
:105180001A604FF0FF30704748060020044A054976
:105190001368002B08BF0B46184410601846704770
:1051A0000005002050060020024B58221A604FF0E4
:1051B000FF30704748060020FEE700BFF8B500BF8B
:1051C000F8BC08BC9E467047F8B500BFF8BC08BCE8
:0451D0009E46704740
:1051D40063616E61726453544D3332436F6D707505
:1051E400746543414E54696D696E67730000000035
:1051F400647269766572730063682E6F6374616E9E
:1052040069732E6F696275732E6D6F736665742D85
:105214006472697665722D6D6F64756C650000004B
:105224006273315F6273325F73756D203E20627307
:10523400310000004C69622F6C696263616E6172B7
:10524400642F647269766572732F73746D33322FB1
:1052540063616E6172645F73746D33322E68000033
:1052640002030405060708090A0B0C0D0E0F1010A3
:105274000102030405060708090A0B0C0D0E0F10A2
:1052840000000000000000000102030406070809F2
:10529400000000000102030463616E617264496EE0
:1052A4006974000063616E6172645365744C6F636A
:1052B400616C4E6F646549440000000063616E6177
:1052C400726448616E646C6552784672616D650003
:1052D40063616E6172644465636F64655363616C9A
:1052E4006172000063616E617264456E636F646530
:1052F4005363616C61720000696E6372656D656E03
:10530400745472616E73666572494400656E71759A
:1053140065756554784672616D6573007075736860
:105324005478517565756500707265706172654673
:105334006F724E6578745472616E736665720000A4
:10534400636F707942697441727261790000000080
:105354006465736361747465725472616E736665B7
:10536400725061796C6F6164000000007377617042
:10537400427974654F7264657200000066726565F7
:10538400426C6F636B00000028726573756C742047
:105394003E2030292026262028726573756C7420DF
:1053A4003C3D203634292026262028726573756CEE
:1053B40074203C3D206269745F6C656E6774682973
:1053C40000000000287374645F627974655F6C6523
:1053D4006E677468203E20302920262620287374A6
:1053E400645F627974655F6C656E677468203C3DC8
:1053F4002038290064657374696E6174696F6E2066
:10540400213D202828766F6964202A29302900004C
:1054140076616C756520213D202828766F696420AB
:105424002A2930290000000072785F737461746562
:1054340020213D202828766F6964202A29302900FC
:10544400626C6F636B20213D202828766F6964208D
:105454002A293029000000006F66667365745F773F
:10546400697468696E5F626C6F636B203C202833DB
:105474003255202D205F5F6275696C74696E5F6FB1
:1054840066667365746F66202843616E6172644258
:105494007566666572426C6F636B2C20646174611F
:1054A400292900006F75745F696E7320213D2028DF
:1054B40028766F6964202A29302900007372635F9B
:1054C4006C656E203E203055000000007472616EE1
:1054D4007366657220213D20300000006269745FAC
:1054E4006C656E677468203E2030000072656D61E3
:1054F400696E696E675F62697473203E20300000D4
:10550400696E7075745F6269745F6F6666736574E3
:10551400203E3D20626C6F636B5F6269745F6F66EF
:105524006673657400000000626C6F636B5F656E88
:10553400645F6269745F6F6666736574203E20629F
:105544006C6F636B5F6269745F6F6666736574002A
:1055540072656D61696E696E675F6269745F6C65BF
:105564006E677468203C3D2072656D61696E696E7A
:10557400675F626974730000696E7075745F626955
:10558400745F6F6666736574203C3D207472616E4F
:10559400736665722D3E7061796C6F61645F6C65D2
:1055A4006E202A20380000006F75747075745F6275
:1055B40069745F6F6666736574203C3D2036340001
:1055C40072656D61696E696E675F6269745F6C654F
:1055D4006E677468203D3D20300000002863616ED2
:1055E4005F69642026203078314646464646464662
:1055F4005529203D3D2063616E5F69640000000011
:10560400616C6C6F6361746F722D3E737461746945
:1056140073746963732E63757272656E745F7573E8
:105624006167655F626C6F636B73203E20300000BE
:105634007472616E736665725F696420213D20280F
:1056440028766F6964202A293029000073746174F4
:10565400652D3E6275666665725F626C6F636B731F
:10566400203D3D202828766F6964202A29302900AE
:105674004C69622F6C696263616E6172642F63614D
:105684006E6172642E6300006974656D2D3E6672EE
:10569400616D652E646174615F6C656E203E2030BF
:1056A400000000006461746120213D202828766F89
:1056B4006964202A293029000C64004010640040E9
:1056C40063616E61726453544D3332496E69740080
:1056D40063616E61726453544D33325472616E73FC
:1056E4006D69740030203D3D202828766F6C61740C
:1056F400696C652043616E61726453544D33324367
:10570400414E547970652A2930783430303036343B
:10571400303055292D3E4945520000004C69622F16
:105724006C696263616E6172642F6472697665721A
:10573400732F73746D33322F63616E6172645F73A0
:10574400746D33322E63000028282828766F6C612C
:1057540074696C652043616E61726453544D3332D5
:1057640043414E547970652A2930783430303036CC
:1057740034303055292D3E464D52203E3E2038557A
:1057840029202620307833465529203D3D203134C8
:1057940055000000212243414E205052494F2049D8
:1057A4004E56220074785F6D61696C626F78203C9C
:1057B400203300002C2066756E6374696F6E3A2086
:1057C40000617373657274696F6E202225732220E1
:1057D4006661696C65643A2066696C65202225738C
:1057E400222C206C696E65202564257325730A00BC
:1057F40038000020232D302B2000686C4C00656697
:10580400674546470000000000000000000000005B
:105814000000000000000000000000000000000084
:105824000000000000000000000000000000000074
:105834000000000000000000000000000000000064
:105844000000000000000000000000000000000054
:105854000000000000000000000000000000000044
:105864000000000000000000303132333435363798
:1058740038394142434445460030313233343536B9
:0C5884003738396162636465660000001B
:0458900065020008A5
:0458940041020008C5
:10589800F4510008000000000000000000000000B3
:1058A8000000000000000000FF03000000000000EE
:1058B80000000000000000000100000010000000CF
:1058C80000127A0038000020000000002C58000860
:1058D8004C5800080C5800080000000000000000A8
:1058E80000000000000000000000000000000000B0
:1058F80000000000000000000000000000000000A0
:10590800000000000000000000000000000000008F
:10591800000000000000000000000000000000007F
:08592800000000000000000077
:04000005080041B1FD
:00000001FF
