:020000040800F2
:1000000000A00020C5510008DD0D0008DF0D00082C
:10001000E10D0008E30D0008E50D000800000000F8
:10002000000000000000000000000000513800083F
:10003000E70D000800000000F138000855390008FD
:1000400015520008155200081552000815520008F4
:1000500015520008155200081552000815520008E4
:1000600015520008155200081552000815520008D4
:1000700015520008155200081552000815520008C4
:1000800015520008155200081552000815520008B4
:1000900015520008155200081552000815520008A4
:1000A00015520008E90D0008155200081552000805
:1000B0001552000815520008155200081552000884
:1000C0001552000815520008155200081552000874
:1000D0001552000815520008155200081552000864
:1000E0001552000815520008155200081552000854
:1000F0001552000815520008155200081552000844
:100100000000000000000000000000001552000880
:100110001552000815520008155200081552000823
:100120001552000815520008155200081552000813
:1001300015520008155200080000000000000000E1
:100140001552000815520008155200080000000062
:10015000000000000000000000000000000000009F
:1001600000000000000000001552000815520008B1
:100170001552000800000000000000000000000010
:08018000000000001552000808
:1001900010B5054C237833B9044B13B10448AFF3C1
:1001A00000800123237010BD980000200000000093
:1001B000D861000808B5034B1BB103490348AFF3EE
:1001C000008008BD000000009C000020D8610008ED
:1001D000034613F8012B002AFBD1181A0138704787
:1001E00001F0FF01102A2BDB10F0070F08D010F8E8
:1001F000013B013A8B422DD010F0070F42B3F6D1EC
:10020000F0B441EA012141EA014122F007047FF004
:1002100000070023F0E80256083C85EA010586EA5B
:10022000010685FA47F5A3FA87F586FA47F6A5FA97
:1002300087F68EB9EED1F0BC01F0FF0102F00702A3
:1002400032B110F8013B013A83EA010313B1F8D14E
:100250000020704701387047002D06BF354603382F
:10026000073815F0010F07D1013015F4807F02BF68
:10027000013015F4C03F0130F0BC0138704700BFB9
:1002800030B59FB00024179419941A940F941094C9
:100290001194129413943C222146684605F01BF8F1
:1002A000012514954FF48033159316951895022265
:1002B0001B921C934FF4E0131D9314A801F072FEDF
:1002C0000F230F93109511944FF48063129313949E
:1002D00021460FA802F0B0F98423009304944FF450
:1002E00080730993684602F0C7FA1FB030BD08B5A5
:1002F00001F034FEFFF7C4FF00F01CF800F08CF8AA
:1003000000F0D0F800F06AF900F016FD00F0F4FCFF
:1003100003F008F9FEE7000008B50268034B9A42B3
:1003200000D008BD01F02CFEFBE700BF002C01400F
:1003300070470000F0B58BB0002405940694079434
:1003400008940994314B5A6942F400225A615A695F
:1003500002F400220192019A5A6942F480025A6121
:100360005A6902F480020292029A5A6942F40032F7
:100370005A615A6902F400320392039A5A6942F4AC
:1003800080225A615B6903F480230493049B204F0D
:1003900022464FF40051384602F06CFC224641F6EA
:1003A00009714FF0904002F065FC1A4D22464FF261
:1003B0000701284602F05EFC4FF400530593012626
:1003C00006960794089405A9384602F089FB41F681
:1003D0000973059306960794089405A94FF0904079
:1003E00002F07EFB4FF207030593069607940894EC
:1003F00005A9284602F074FBF023059306940794A0
:1004000005A9284602F06CFB0BB0F0BD00100240BD
:10041000000800480004004800B58BB00023079393
:10042000089309930193029303930493059306930E
:100430001B484FF0A0420260436083600361C361C8
:10044000436203630122C262C36002624363042207
:1004500042618361836300F06BFDC0B90AA9002388
:1004600041F80C3D0E4801F081F898B91023019332
:10047000012302930023049303930593069301A998
:10048000074800F09DFE40B90BB05DF804FBFFF794
:100490004FFFE3E7FFF74CFFE8E7FFF749FFF3E71C
:1004A000A812002000B587B00023009301930293A7
:1004B0000393049305931648164A026043608360D1
:1004C0000361C361436203630122C262C3600262CB
:1004D0004363042242618361836300F029FD80B994
:1004E00004230093012301930023039302930493B5
:1004F00005936946064800F063FE28B907B05DF829
:1005000004FBFFF715FFEBE7FFF712FFF6E700BF6D
:10051000541200200001005000B58BB00023059359
:1005200006930793089309930368B3F1A04F05D08E
:10053000274A934227D00BB05DF804FB254A136885
:1005400001331360012B13D0234B5A6942F400325C
:100550005A615B6903F400330293029B06230593FF
:100560000323069305A94FF0904002F0B9FAE2E7A1
:10057000194B5A6942F080525A615B6903F080530B
:100580000193019BE0E7134A136801331360012BC9
:1005900013D0114B5A6942F400325A615B6903F47B
:1005A00000330493049BF02305930323069305A9CA
:1005B0004FF0904002F094FABDE7074B5A6942F0C1
:1005C00080525A615B6903F080530393039BE0E719
:1005D00000010050B40000200010024008B50B4894
:1005E0000B4B03601023436000238360C3600361EF
:1005F0004361037643768376C3760377437701F0CE
:100600005FF800B908BDFFF793FEFBE7FC1200207E
:100610000064004000B589B0002303930493059360
:10062000069307930268144B9A4202D009B05DF812
:1006300004FB03F5D633DA6942F00072DA61DA6955
:1006400002F000720192019A5A6942F480225A61C2
:100650005B6903F480230293029B4FF4407303937E
:1006600002230493032306930923079303A9034852
:1006700002F036FADAE700BF0064004000040048E8
:10068000002302E0C3540133DBB20F2BFAD97047C9
:10069000012B03D0012B0AD000207047012AF9D189
:1006A00009A3D3E90023C1E90023012070470B2AE5
:1006B00001D00020704706A3D3E90023C1E900233D
:1006C00001207047AFF300809E6AC421818A46EE04
:1006D000D5A4D139F922B6A710B582B004460021BD
:1006E0008DF807108DF806100160C0F803100E4B4E
:1006F0001A680E4BA3FB0232920902AB43F8082D95
:10070000202204F0A1F80DF1070302222021204647
:1007100004F09AF80DF1060303222221204604F08A
:1007200093F802B010BD00BFDC040020D34D62106E
:10073000F0B583B0044640F27912002104F0CBFDFD
:100740002046FFF7C9FF0123E37100222272637282
:1007500002AB43F8042D20225021204604F074F807
:1007600004F11800FFF78CFF0A4E293406F1200728
:1007700035460FCD20606160A260E3602E461034E4
:10078000BD42F5D1286820602B7923714E2003B03B
:10079000F0BD00BF3862000830B5E7B0044607ADD1
:1007A00040F279120021284604F095FD2846FFF713
:1007B000BFFFE17E0590049500230393A37E02937F
:1007C000193401940123009304A3D3E900230248C0
:1007D00003F09DFE67B030BDB80000209E6AC421C2
:1007E000818A46EE70B582B00C4600238DF8073042
:1007F00001238DF80630002865D005460DF107036A
:1008000005220021204604F01FF80DF10603032203
:100810000521204604F018F805F1080340220821BC
:10082000204604F011F80DF1070305224821204667
:1008300004F00AF80DF1060303224D21204604F0CE
:1008400003F805F1200340225021204603F0FCFF6D
:100850000DF1070306229021204603F0F5FF0DF16C
:10086000060302229621204603F0EEFF05F118034D
:1008700040229821204603F0E7FF0DF107030622EE
:10088000D821204603F0E0FF0DF106030222DE210D
:10089000204603F0D9FF05F110034022E021204655
:1008A00003F0D2FF24342E683046FFF791FC024655
:1008B0003146204604F004FD2868FFF789FC243007
:1008C00080B202B070BD00258DF806500DF107030F
:1008D00005222946204603F0B7FF0DF10603032247
:1008E0000521204603F0B0FF0DF107030622082181
:1008F000204603F0A9FF0DF1060302220E21204637
:1009000003F0A2FF0DF1070306221021204603F099
:100910009BFF0DF1060302221621204603F094FFEF
:10092000E5700420CDE70000F0B59FB007464FF614
:10093000FF73ADF8763000248DF875400022002357
:10094000CDE91A230DF17603009323460D222146AB
:1009500003F03AFE0DF175030093234603220D21A7
:10096000384603F031FE9DF87530012B0FD010256D
:10097000BB8A2E46002D14DBF610764213FA86F65B
:10098000B6B20024169417941894199416E01AAB72
:100990000093234640221021384603F015FE5025CF
:1009A000E6E7EE1DE8E716AB234400930023082298
:1009B0002946384603F008FE08350134A642F2DC29
:1009C0009DF85830002B42D1BDF87630002B48D12D
:1009D00003EB8303DA00264D15441DB19DF87530F5
:1009E000012B39D0002406943C22214607A804F0AC
:1009F00072FC06AE31462846FFF7F4FEF97E0590FC
:100A000004960394BB7E0293193701970B2300933E
:100A100015A3D3E90023174803F079FD1FB0F0BDFB
:100A200004EB8402D300124AD5582846FFF7D0FBC6
:100A30000246294616A804F01DFF10B10134A4B2E5
:100A400006E004EB8406F300094D1D44C5E70024CD
:100A5000002CE5D00025C0E7DDE91A23C5E9022313
:100A6000C0E70025BEE700BFD5A4D139F922B6A75B
:100A700000000020B800002010B50C460B7E012BB2
:100A800003D0237E012B07D010BDCB8A012BF8D1D8
:100A90000846FFF781FEF4E7E38A0B2BF4D12046EA
:100AA000FFF742FFF0E70000F0B585B04B4C0022A5
:100AB0004FF48051204602F0DDF800224FF400513F
:100AC000204602F0D7F801F08DFE00230293ADF826
:100AD0000C30A4F19C64A4F58424A4F27D54A4FBFE
:100AE0000034A40C0923591CB4FBF1F201FB12429F
:100AF00022B1022B4DD9013BDBB2F4E7B4FBF1F19B
:100B00004A1EB2F5806F44D2C3EBC306F21C22D456
:100B1000D210D5B25F1BFFB2AB421ED9D2B24FF496
:100B20007A7402FB04443A440132B4FBF2F292B20A
:100B3000B2F5617F05D9751E16D4C5F3C7055B1BD9
:100B4000DFB26B1EDBB20F2B10D8002F3BD0082F6B
:100B50003BD900220BE00732DAE7214B214A40F271
:100B60001511214804F058FB0735E6E70022EB1980
:100B700003FB0113B0FBF3F01C4B984227D132B3B7
:100B8000ADF8081001238DF80C308DF80A508DF85F
:100B90000B70002102A804F057F9002102A804F00C
:100BA00053F9134C00230193124B0093124B4FF453
:100BB00080621249204603F0FFFB6F21204603F0BC
:100BC00023FC05B0F0BD0022D1E70122CFE70C4B9A
:100BD000044A40F22F11044804F01EFB00040048B0
:100BE00060620008186200087462000840420F004A
:100BF000B800002091060008790A0008DC000020F7
:100C00005465000800000000134B1860134B1B686C
:100C100003F57A73834200D9704710B588B00F4B43
:100C2000186006AC2046FFF757FD07230493039492
:100C3000182302930A4B019340F25513009304A327
:100C4000D3E90023074803F0FFFB08B010BD00BF45
:100C5000F1C6A7C1D068080FDC040020E004002022
:100C6000E4040020B800002008B5084803F09DFC0B
:100C700002E0064803F099FC38B104F0C9F90028F5
:100C8000F7DD024803F097FCF3E708BDB800002049
:100C900000B585B0684604F045FA10B905B05DF8B6
:100CA00004FB064B1B684FF47A7202FB03F200232D
:100CB0006946034803F04EFEF0E700BFDC04002065
:100CC000B800002008B54FF4FA7002F054FCFAE7BF
:100CD00008B5FFF7E9FE01214FF0904001F0CFFF8A
:100CE000FFF7C2FFFFF7D4FF02F021FCFFF78CFFF4
:100CF000322002F040FCEEE770B58AB00C4C05AD36
:100D000026460FCE0FC533682B60002105A802F0E0
:100D100018FC084B18606D4614340FCC0FC52368BF
:100D20002B600021684602F00CFC0AB070BD00BFC9
:100D3000F06100082413002008B50B480B4B03603A
:100D40004FF41643436000238360C36003610C22A9
:100D500042618361C3610362436201F0CBF800B971
:100D600008BDFFF7E5FAFBE7281300200048004024
:100D700000B589B00023039304930593069307936A
:100D80000268144B9A4202D009B05DF804FB03F5E7
:100D9000E433DA6942F48022DA61DA6902F480220B
:100DA0000192019A5A6942F480225A615B6903F404
:100DB00080230293029B4FF4406303930223049326
:100DC000032306930723079303A9034801F088FE32
:100DD000DAE700BF00480040000400487047FEE723
:100DE000FEE7FEE7FEE7704708B5024800F01FFD8A
:100DF00008BD00BF9813002000B583B00D4B9A6961
:100E000042F001029A619A6902F001020092009A8E
:100E1000DA6942F08052DA61DB6903F080530193B2
:100E2000019B00220F216FF0010001F03FFF03B092
:100E30005DF804FB0010024000B589B000220146B5
:100E4000192001F033FF192001F064FF144B9A6957
:100E500042F400629A619B6903F400630193019B71
:100E600002A903A801F0EAFC01F0D2FC0D4BA3FBA0
:100E700000239B0C013B0C480C4A026040F2E73215
:100E8000C260436000230361836000F0F9FD18B184
:100E9000012009B05DF804FB034800F0B8FCF8E756
:100EA0000010024083DE1B4398130020002C0140F9
:100EB00038B50268936803F00303012B01D00020CA
:100EC00038BD136813F0010F2FD0936803F00D03A2
:100ED000012B09D0436C43F010034364836C43F04F
:100EE000010383640120EBE70446936843F00203A7
:100EF0009360036803221A6001F04EF805462368E8
:100F00009B6813F0010F0ED001F046F8401B022839
:100F1000F5D9636C43F010036364A36C43F00103E1
:100F2000A3640120CCE70020CAE70020C8E7000046
:100F300030B597B000230093002800F02E810446BE
:100F4000436C13F0100F52D1436CABB100202368F7
:100F50009A6812F0805F03D09B6813F0005F47D05F
:100F6000636C23F0120343F010036364A36C43F03B
:100F70000103A36401203BE083640365C36480F83C
:100F80004030FFF7C9FA23689B6813F0805F01D0F7
:100F90000020DCE72046FFF78BFF636C13F0100F97
:100FA000D5D10028D3D1636C23F4885323F00203F6
:100FB00043F0020363642268936823F04053936014
:100FC0002268936843F080539360754B1B68754AA1
:100FD000A2FB03239B0C03EB83035A00009202E065
:100FE000009B013B0093009B002BF9D1AFE7002051
:100FF000636C13F0100F40F0C780002840F0C480ED
:1010000023689A6812F0040240F0BE80616C21F4FB
:10101000817141F002016164B3F1A04F15D06249C2
:101020008B420FD06149B3F1A04F10D05E4DAB425F
:1010300068D05F4DAB4269D05E4DAB4269D00023B2
:10104000019307E001F50071EDE75B49EBE703F57C
:10105000807301932568AB6803F00303012B5BD019
:10106000019B23B19D6805F00305012D59D08B68C4
:1010700023F4403365682B438B60E1694B03A56B18
:10108000012D01D04FF480521343E2681343A2684C
:101090001343626A012A49D0E26A012A0AD0216810
:1010A000434DA94255D005F58075A94251D0216B19
:1010B0000A4313432268916811F00C0F0BD1D168D9
:1010C00021F4804121F00201D160A169626B5200DC
:1010D00042EA813213432168CD68384A2A401343DB
:1010E000CB602369012B46D02268136B23F00F03DA
:1010F00013630023A364636C23F0030343F0010331
:10110000636448E04FF0A0430193A3E7294B0193A8
:10111000A0E7274B01939DE72B6813F0010FACD19B
:101120009EE71B6813F0010FA7D1A0E731B9A26AAF
:10113000013A43EA424343F48033ADE7626C22F064
:10114000220242F020026264A26C42F00102A26418
:10115000A2E7B2F5307F08D0B2F5807F08D0B2F5B3
:10116000E07FA4D14FF48072A1E74FF4E0729EE7D4
:101170004FF430729BE721680B6B23F00F03226A58
:10118000013A13430B63B4E7636C23F0120343F09B
:1011900010036364012017B030BD0120FBE700BFDE
:1011A0002C00002083DE1B4300010050000700508C
:1011B00000040050000500500003005007C0F0FF7D
:1011C00030B496B00022009290F84020012A00F03E
:1011D000BB810346012280F840200068826812F03B
:1011E000040F40F0A6814A68042A31D8046B02EB50
:1011F000420255001F22AA4024EA02020C68AC40B9
:10120000224302631868826812F00C0F68D10A68E2
:10121000092A4ED9846902EB42021E3A07259540FD
:1012200024EA05048D6805FA02F2224382614869C6
:101230001C68E268C2F3C102520000FA02F20869B7
:101240000138032800F29580DFE800F040727D88C5
:10125000092A0ED8446B02EB420255001E3D1F22A4
:10126000AA4024EA02020C6804FA05F52A43426304
:10127000C8E70E2A0ED8846B02EB420255003C3DB3
:101280001F22AA4024EA02020C6804FA05F52A4348
:101290008263B7E7C46B02EB420255005A3D1F223E
:1012A000AA4024EA02020C6804FA05F52A43C26344
:1012B000A8E7446902EB42020725954024EA0504A9
:1012C0008D6805FA02F222434261B0E7206E9F4D1D
:1012D0000540086842EA8062154345F000452566EE
:1012E0001868826802F00302012A75D0CA68012AD0
:1012F00078D0D0F8B0200D680124AC4022EA040276
:10130000C0F8B0201A68B2F1A04F00F09680904863
:10131000824200F090808F4C0868102800F08F8087
:10132000112800F0A080122800F0A280002005E122
:10133000606E864D0540086842EA8062154345F0BC
:1013400000456566CCE7A06E804D0540086842EA1E
:101350008062154345F00045A566C1E7E56E7B4810
:1013600028400D6842EA8562024342F00042E2668C
:10137000B6E7226E02F0F8420868B2EB806F1CD02C
:101380001868426E02F0F8420C68B2EB846F19D014
:101390001868826E02F0F8420C68B2EB846F16D0C7
:1013A0001868C26E02F0F8420C68B2EB846F97D1F5
:1013B000C26E22F00042C26692E7226E22F0004224
:1013C0002266DDE7426E22F000424266E0E7826E6E
:1013D00022F000428266E3E7026812F0010F85D036
:1013E0000020ABE0D0F8B0200D680124AC402243CF
:1013F000C0F8B0200A68092A0ED91D68A86902EB56
:1014000042021B3A0724944020EA04008C6804FA44
:1014100002F20243AA6175E71D686869013202EBB6
:1014200042020724944020EA04008C6804FA02F285
:1014300002436A6166E7484C6EE7474C6CE7A56873
:1014400015F4000F7FF46CAFB2F1A04F16D04048F6
:1014500082422CD0414882422DD0414882422DD038
:10146000002201920DE0A56815F0807FECD05AE7CC
:10147000A06810F4800FE7D000205FE002F58072D2
:1014800001921868826802F00302012A19D0019AB9
:1014900022B1956805F00305012D1CD00A68102AB9
:1014A0001ED0112A36D0122A3DD0002046E04FF03F
:1014B000A0420192E5E72A4A0192E2E7274A019217
:1014C000DFE7026812F0010FE1D05A6C42F020020F
:1014D0005A64012032E0126812F0010FF5D1DDE705
:1014E000B0F1A04FDDD1A26842F40002A2601D4A13
:1014F00012681D49A1FB0212920C02EB82025100FC
:10150000009102E0009A013A0092009A002AF9D173
:10151000002013E0B0F1A04FC5D1A26842F0807264
:10152000A26000200AE0A26842F48002A2600020CB
:1015300004E05A6C42F020025A640120002283F831
:10154000402016B030BC70470220FAE700F0FF835D
:10155000000100500007005000030050000400503C
:10156000000500502C00002083DE1B4370B497B0B0
:1015700003460268B2F1A04F0BD04C48824249D0DA
:101580004B4882424AD04B4882424AD000220192C4
:1015900002E002F580720192019A002A00F0828036
:1015A00093F8400001287FD0012083F8400018689C
:1015B000846814F0040F6AD1946814F0040F66D1A3
:1015C000B0F1A04F32D0394CA0422DD03A480C682F
:1015D000002C39D0846824F460444D685E6B45EA81
:1015E00046352C4384601D68AC6804F00304012C6C
:1015F0001ED0946804F00304012C1FD0826822F4EA
:10160000716222F00F020C68896821430A438260EC
:10161000002041E04FF0A0420192BDE7254A01922F
:10162000BAE7234A0192B7E72448D0E72348CEE738
:101630002C6814F0010FDCD000202DE0126812F0AD
:10164000010FDBD0002027E0816821F46041816038
:101650001C68A16801F0030101290CD0916801F018
:10166000030101290DD0826822F4716222F00F0279
:101670008260002010E0216811F0010FEED0002000
:101680000AE0126812F0010FEDD0002004E05A6C5D
:1016900042F020025A640120002283F8402017B053
:1016A00070BC70470120FAE70220F8E70001005003
:1016B00000040050000500500007005000030050D7
:1016C000002800F0A18038B5044690F82030D3B14E
:1016D0002268136823F00203136000F05DFC0546E6
:1016E00023685A6812F0020F10D000F055FC401B1E
:1016F0000A28F5D9636A43F400336362052384F84A
:101700002030012038BDFEF785FFE1E71A6842F07E
:1017100001021A6000F040FC054623685A6812F086
:10172000010F0DD100F038FC401B0A28F5D9636A7F
:1017300043F400336362052384F820300120E1E79D
:10174000227E012A3DD01A6822F080021A60637E50
:10175000012B3BD02268136823F040031360A37E63
:10176000012B39D02268136823F020031360E37E35
:10177000012B37D02268136843F010031360237FD6
:10178000012B35D02268136823F008031360637FB0
:10179000012B33D02268136823F004031360A3687D
:1017A000E268134322691343626913436268013A92
:1017B00021681343CB6100206062012384F820304C
:1017C000A0E71A6842F080021A60C0E72268136836
:1017D00043F040031360C2E72268136843F020031C
:1017E0001360C4E72268136823F010031360C6E790
:1017F0002268136843F008031360C8E7226813687F
:1018000043F004031360CAE7012070477047026881
:10181000D36843F00103D3600268136843F0010307
:10182000136000207047704770477047704710B5CD
:10183000044603681A6912F0020F11D0DA6812F038
:10184000020F0DD06FF002021A61012303770368C3
:101850009B6913F0030F79D0FFF7E6FF002323778E
:1018600023681A6912F0040F12D0DA6812F0040F1C
:101870000ED06FF004021A610223237723689B695C
:1018800013F4407F68D02046FFF7CEFF0023237774
:1018900023681A6912F0080F12D0DA6812F0080FE4
:1018A0000ED06FF008021A61042323772368DB69E6
:1018B00013F0030F57D02046FFF7B6FF002323771E
:1018C00023681A6912F0100F12D0DA6812F0100FA4
:1018D0000ED06FF010021A61082323772368DB69AA
:1018E00013F4407F46D02046FFF79EFF0023237766
:1018F00023681A6912F0010F03D0DA6812F0010FA1
:101900003FD123681A6912F0800F03D0DA6812F011
:10191000800F3DD123681A6912F4807F03D0DA6802
:1019200012F0800F3BD123681A6912F0400F03D0E8
:10193000DA6812F0400F39D123681A6912F0200FCB
:1019400003D0DA6812F0200F37D110BDFFF76BFF1C
:101950002046FFF76AFF81E72046FFF764FF204635
:10196000FFF763FF92E72046FFF75DFF2046FFF792
:101970005CFFA3E72046FFF756FF2046FFF755FF21
:10198000B4E76FF001021A612046FEF7C5FCB8E724
:101990006FF080021A61204600F08CF8BAE76FF40D
:1019A00080721A61204600F086F8BCE76FF04002B2
:1019B0001A612046FFF73AFFBEE76FF020021A6176
:1019C000204600F076F8C0E703682C4A90420ED01B
:1019D000B0F1804F0BD0A2F59432904207D002F5BF
:1019E0008062904203D002F59632904203D123F0F8
:1019F00070034A681343214A90421AD0B0F1804FD5
:101A000017D0A2F59432904213D002F58062904232
:101A10000FD002F5963290420BD002F54062904210
:101A200007D002F58062904203D002F580629042B6
:101A300003D123F44073CA68134323F080034A6937
:101A4000134303608B68C3620B6883620B4B98423D
:101A50000FD003F5006398420BD003F54063984222
:101A600007D003F58063984203D003F58063984262
:101A700001D10B690363012343617047002C0140CE
:101A8000A8B110B5044690F83D305BB1022384F84C
:101A90003D30211D2068FFF797FF012384F83D307A
:101AA000002010BD80F83C30FFF7B0FEEEE70120CB
:101AB000704770477047704710B5044683680269E5
:101AC000134342691343C2691A4301680B6823F444
:101AD000164323F00C0313430B600268536823F48E
:101AE0004053C1680B4353608369026A1A4301681B
:101AF0008B6823F4306313438B600368914A9342ED
:101B00001FD0914A93422FD0904A934246D0904A98
:101B100093425DD08F4A934274D01022E169B1F5AF
:101B2000004F00F08B80082A00F20A81DFE812F0F3
:101B3000CE00DA00E6000801F20008010801080101
:101B4000FE0002F55842126B02F00302032A09D884
:101B5000DFE802F0020406720122DFE70422DDE77B
:101B60000822DBE71022D9E702F5E632126B02F415
:101B70004032B2F5803F0BD007D9B2F5003F09D013
:101B8000B2F5403F08D10222C8E72AB90022C5E7D2
:101B90000422C3E70822C1E71022BFE702F5E432BE
:101BA000126B02F44022B2F5802F0BD007D9B2F5A8
:101BB000002F09D0B2F5402F08D10222AEE72AB992
:101BC0000022ABE70422A9E70822A7E71022A5E735
:101BD00002F5E232126B02F44012B2F5801F0BD014
:101BE00007D9B2F5001F09D0B2F5401F08D1022273
:101BF00094E72AB9002291E704228FE708228DE7B3
:101C000010228BE702F5E032126B02F44002B2F5CB
:101C1000800F0BD007D9B2F5000F09D0B2F5400FF5
:101C200008D102227AE72AB9002277E7042275E771
:101C3000082273E7102271E702226FE7082A42D8D0
:101C4000DFE802F0051722412D414141380000F044
:101C5000C9FD6268530803EB4003B3FBF2F39BB288
:101C6000002023F00F02C3F3420313432268D36022
:101C700010BD00F0CDFD6268530803EB4003B3FBD9
:101C8000F2F39BB20020ECE76268530803F574039B
:101C900003F51053B3FBF2F39BB20020E1E700F031
:101CA0008DFC6268530803EB4003B3FBF2F39BB275
:101CB0000020D6E76268530803F58033B3FBF2F3E4
:101CC0009BB20020CDE701200023CAE700F08AFD87
:101CD000636800EB5300B0FBF3F0236880B2D86078
:101CE0000020C5E700F094FD636800EB5300B0FBF3
:101CF000F3F0236880B2D8600020B9E761684A0831
:101D000002F5F40202F59052B2FBF1F292B2DA60FF
:101D10000020ADE700F052FC636800EB5300B0FB1D
:101D2000F3F0236880B2D8600020A1E761684A0818
:101D300002F50042B2FBF1F292B2DA60002097E7BE
:101D4000012095E700380140004400400048004071
:101D5000004C004000500040436A13F0010F06D0D1
:101D60000268536823F40033816A0B435360436A6B
:101D700013F0020F06D00268536823F48033C16A5F
:101D80000B435360436A13F0040F06D00268536894
:101D900023F48023016B0B435360436A13F0080F55
:101DA00006D00268536823F40043416B0B43536031
:101DB000436A13F0100F06D00268936823F480532F
:101DC000816B0B439360436A13F0200F06D00268C7
:101DD000936823F40053C16B0B439360436A13F081
:101DE000400F0AD00268536823F48013016C0B4340
:101DF0005360036CB3F5801F0BD0436A13F0800F60
:101E000006D00268536823F40023816C0B435360AF
:101E100070470268536823F4C003416C0B4353605E
:101E2000EBE72DE9F04105460F4616469846069C1D
:101E30002B68DB6937EA03030CBF01230023B3429D
:101E40001DD1B4F1FF3FF3D02CB100F0A5F8A0EB09
:101E50000800A042ECD92A68136823F4D0731360F9
:101E60002A68936823F001039360202385F8693082
:101E700085F86A30002385F86830032000E00020F0
:101E8000BDE8F08130B583B004460023C36600F09E
:101E900083F8054623681B6813F0080F0ED12368EA
:101EA0001B6813F0040F17D1202384F8693084F8DD
:101EB0006A30002084F8680003B030BD6FF07E43C4
:101EC0000093034600224FF400112046FFF7A9FFBC
:101ED0000028E4D00320EFE76FF07E4300932B4609
:101EE00000224FF480012046FFF79BFF0028DBD043
:101EF0000320E1E778B310B5044690F869300BB3DE
:101F0000242384F869302268136823F001031360E6
:101F10002046FFF7D1FD012813D0636ABBB92268C0
:101F2000536823F4904353602268936823F02A0394
:101F300093602268136843F0010313602046FFF7A3
:101F4000A1FF10BD80F86830FEF712FFD8E72046E9
:101F5000FFF702FFE3E701207047000008B5074ADA
:101F6000136843F010031360032000F08DFE00207F
:101F7000FEF762FFFEF740FF002008BD0020024090
:101F8000034A1168034B1B780B441360704700BF72
:101F9000D813002028000020014B1868704700BFAC
:101FA000D8130020002800F0F58270B582B00446F6
:101FB000036813F0010F3BD0B54B5B6803F00C03D3
:101FC000042B1ED0B24B5B6803F00C03082B13D01C
:101FD0006368B3F5803F68D0002B40F0928003F136
:101FE000804303F504331A6822F480321A601A68B9
:101FF00022F480221A605DE0A54B5B6813F4803FF9
:10200000E6D04FF4003393FAA3F3A14B19684FF4D1
:10201000003393FAA3F3B3FA83F303F01F0301220F
:1020200002FA03F30B4203D06368002B00F0B48282
:10203000236813F0020F00F0C680954B5B6813F025
:102040000C0F00F09C80924B5B6803F00C03082B94
:1020500000F08F802369002B00F0F380012292FAB8
:10206000A2F3B3FA83F303F1845303F584139B00C3
:102070001A60FFF791FF0546022393FAA3F3844BFE
:102080001968022393FAA3F3B3FA83F303F01F034F
:10209000012202FA03F30B4240F0C480FFF77CFFF9
:1020A000401B0228E8D9032083E2794A136843F4ED
:1020B00080331360764AD36A23F00F03A1680B4381
:1020C000D3626368002B36D0FFF766FF05464FF4F6
:1020D000003393FAA3F36E4B19684FF4003393FA6D
:1020E000A3F3B3FA83F303F01F03012202FA03F30D
:1020F0000B429DD1FFF750FF401B6428E7D9032016
:1021000057E2B3F5A02F09D0614B1A6822F4803250
:102110001A601A6822F480221A60CBE703F1804328
:10212000A3F53C331A6842F480221A601A6842F41C
:1021300080321A60BEE7FFF72FFF05464FF40033E9
:1021400093FAA3F3524B19684FF4003393FAA3F3B5
:10215000B3FA83F303F01F03012202FA03F30B42E5
:102160003FF466AFFFF718FF401B6428E6D9032051
:102170001FE2474B5B6813F4803F7FF46BAF022391
:1021800093FAA3F3424B1968022393FAA3F3B3FA29
:1021900083F303F01F03012202FA03F30B4204D07E
:1021A0002369934201D0012003E23948036823F0F8
:1021B000F8036169F82292FAA2F2B2FA82F201FA05
:1021C00002F213430360236813F0080F00F08C80C1
:1021D000A369002B60D0012191FAA1F2B2FA82F238
:1021E0002C4B13449B001960FFF7D6FE05460223D3
:1021F00093FAA3F293FAA3F293FAA3F2244A516A50
:1022000093FAA3F3B3FA83F303F01F03012202FA54
:1022100003F30B4268D1FFF7BFFE401B0228E6D94B
:102220000320C6E11A48036823F0F8036169F82225
:1022300092FAA2F2B2FA82F201FA02F213430360B6
:10224000C1E7012393FAA3F3B3FA83F303F18453B1
:1022500003F584139B0000221A60FFF79DFE0546DC
:10226000022393FAA3F30A4B1968022393FAA3F308
:10227000B3FA83F303F01F03012202FA03F30B42C4
:10228000A1D0FFF789FE401B0228E9D9032090E185
:102290000010024020819010012292FAA2F2B2FABC
:1022A00082F2C04B13449B0000221A60FFF774FEB9
:1022B0000546022393FAA3F293FAA3F293FAA3F248
:1022C000B94A516A93FAA3F3B3FA83F303F01F03F5
:1022D000012202FA03F30B4206D0FFF75DFE401B1A
:1022E0000228E6D9032064E1236813F0040F00F00C
:1022F000B380AD4BDB6913F0805F20D1AA4BDA6964
:1023000042F08052DA61DB6903F080530193019B54
:102310000125A64B1B6813F4807F12D0E368012BC4
:1023200023D073BB03F1804303F504331A6A22F010
:1023300001021A621A6A22F004021A621AE00025E7
:10234000E7E79A4A136843F480731360FFF724FEAB
:102350000646964B1B6813F4807FDFD1FFF71CFE07
:10236000801B6428F5D9032023E18F4A136A43F0C8
:1023700001031362E368002B41D0FFF70DFE064610
:102380002BE0052B09D0884B1A6A22F001021A6251
:102390001A6A22F004021A62ECE7834B1A6A42F0CE
:1023A00004021A621A6A42F001021A62E2E77E4BE4
:1023B000196A022393FAA3F3B3FA83F303F01F031A
:1023C000012202FA03F3194245D1FFF7E5FD801B14
:1023D00041F28833984200F2E180022393FAA3F29B
:1023E00093FAA3F3B3FA83F35B0943F00203022BDE
:1023F000DDD0022393FAA3F36B4B596AD9E7FFF7B9
:10240000CBFD064615E0684B196A022393FAA3F345
:10241000B3FA83F303F01F03012202FA03F3194214
:1024200019D0FFF7B9FD801B41F28833984200F2C2
:10243000B780022393FAA3F293FAA3F3B3FA83F3D8
:102440005B0943F00203022BDDD0022393FAA3F3CE
:10245000554B596AD9E7B5BBE369002B00F0A8805A
:10246000514A526802F00C02082A00F0A480022BA4
:102470002FD04FF0807393FAA3F3B3FA83F303F1F1
:10248000845303F584139B0000221A60FFF784FD38
:1024900004464FF0007393FAA3F3434B19684FF0CF
:1024A000007393FAA3F3B3FA83F303F01F0301223B
:1024B00002FA03F319426BD0FFF76EFD001B0228EE
:1024C000E7D9032075E0384AD36923F08053D361FC
:1024D000C2E74FF0807393FAA3F3B3FA83F303F1E7
:1024E000845303F584139B0000221A60FFF754FD08
:1024F00005464FF0007393FAA3F32B4B19684FF086
:10250000007393FAA3F3B3FA83F303F01F030122DA
:1025100002FA03F3194206D0FFF73EFD401B0228E2
:10252000E7D9032045E020494B6823F47413626A1D
:10253000206A024313434B604FF0807393FAA3F376
:10254000B3FA83F303F1845303F584139B00012250
:102550001A60FFF721FD04464FF0007393FAA3F3CE
:10256000114B19684FF0007393FAA3F3B3FA83F396
:1025700003F01F03012202FA03F3194206D1FFF709
:102580000BFD001B0228E7D9032012E0002010E019
:1025900000200EE00120704701200AE0032008E03F
:1025A000032006E0208190100010024000700040DF
:1025B000002002B070BD0120FBE700BF184B5B6834
:1025C00003F00C02042A03D0082A03D015487047F0
:1025D0001548704703F470114FF4701292FAA2F28A
:1025E000B2FA82F221FA02F21049885C0C4AD26AED
:1025F00002F00F020F2191FAA1F1B1FA81F1CA4064
:102600000B498A5C13F4803F05D0074BB3FBF2F310
:1026100000FB03F07047074B03FB00F0704700BF5F
:102620000010024000127A000024F400D462000876
:10263000E462000800093D00002800F0C08070B589
:102640000446614B1B6803F007038B420CD25E4AC1
:10265000136823F007030B431360136803F00703A9
:102660008B4201D0012070BD236813F0020F06D009
:10267000564A536823F0F003A068034353600D46A5
:10268000236813F0010F5AD06368012B2DD0022B61
:1026900040D0022292FAA2F24C4A1068022292FA28
:1026A000A2F2B2FA82F202F01F02012101FA02F252
:1026B000104200F0868045494A6822F00302134325
:1026C0004B60FFF769FC0646404B5B6803F00C0368
:1026D0006268B3EB820F32D0FFF75EFC801B41F2E1
:1026E00088339842F0D90320BDE74FF4003292FAC4
:1026F000A2F2364A10684FF4003292FAA2F2B2FA0D
:1027000082F202F01F02012101FA02F20242D2D14A
:102710000120A8E74FF0007292FAA2F22B4A10684B
:102720004FF0007292FAA2F2B2FA82F202F01F02A5
:10273000012101FA02F21042BDD1012093E7224BA0
:102740001B6803F00703AB420CD91F4A136823F040
:1027500007032B431360136803F00703AB4201D058
:10276000012080E7236813F0040F06D0174A53684E
:1027700023F4E063E1680B435360236813F0080F10
:1027800007D0124A536823F46053216943EAC10316
:102790005360FFF713FF0D4B5B6803F0F003F0226B
:1027A00092FAA2F2B2FA82F2D340094AD35CD8403C
:1027B000084B18600020FEF73FFB002053E7012084
:1027C000704701204FE700BF002002400010024088
:1027D000F46200082C000020014B1868704700BF0D
:1027E0002C00002008B5FFF7F7FF074B5B6803F4E8
:1027F000E0634FF4E06292FAA2F2B2FA82F2D340BE
:10280000024AD35CD84008BD0010024004630008AF
:1028100008B5FFF7E1FF074B5B6803F460534FF423
:10282000605292FAA2F2B2FA82F2D340024AD35C28
:10283000D84008BD00100240046300080F23036065
:102840000B4B5A6802F0030242605A6802F0F00231
:1028500082605A6802F4E062C2605B68DB0803F4DD
:10286000E0630361034B1B6803F007030B607047D1
:102870000010024000200240F0B583B00446036817
:1028800013F4803F48D0934BDB6913F0805F40F036
:10289000D580904BDA6942F08052DA61DB6903F04F
:1028A00080530193019B01258B4B1B6813F4807FA0
:1028B00000F0C680874B1B6A13F4407322D0626815
:1028C00002F440729A421DD08248016A21F4407697
:1028D0004FF4803393FAA3F2B2FA82F27F4F3A4474
:1028E00092004FF0010CC2F800C093FAA3F3B3FAC0
:1028F00083F33B449B0000221A60066211F0010F33
:1029000040F0B380734A136A23F4407361680B4349
:102910001362002D40F0D580236813F0010F06D01C
:102920006C4A136B23F00303A1680B431363236802
:1029300013F0020F06D0674A136B23F44033E168AB
:102940000B431363236813F0040F06D0614A136B23
:1029500023F4402321690B431363236813F0200FF2
:1029600006D05C4A136B23F01003E1690B43136339
:10297000236813F4003F06D0564A536823F48003BB
:10298000A16B0B435360236813F0400F06D0514AEC
:10299000136B23F02003216A0B431363236813F0A6
:1029A000080F06D04B4A136B23F4401361690B43A5
:1029B0001363236813F0100F06D0464A136B23F4F9
:1029C0004003A1690B431363236813F4007F06D00F
:1029D000404A536823F40003E16A0B4353602368C1
:1029E00013F0800F06D03B4AD36A23F4F873616A70
:1029F0000B43D362236813F4807F06D0354AD36A31
:102A000023F47853A16A0B43D362236813F4805FE5
:102A100006D0304A136B23F48073216B0B4313638E
:102A2000236813F4005F53D02A4A136B23F4007316
:102A3000616B0B431363002003B0F0BD002533E747
:102A4000254A136843F480731360FFF7A5FA06461E
:102A5000214B1B6813F4807F7FF42CAFFFF79CFAA7
:102A6000801B6428F4D90320E6E7FFF795FA0646B1
:102A700015E0184B196A022393FAA3F3B3FA83F310
:102A800003F01F03012202FA03F30B427FF43AAF73
:102A9000FFF782FA801B41F28833984216D802234E
:102AA00093FAA3F293FAA3F3B3FA83F35B0943F027
:102AB0000203022BDDD0022393FAA3F3054B596ADC
:102AC000D9E7D36923F08053D36125E70320B3E727
:102AD0000020B1E70010024000700040008190101B
:102AE000F0B482B0002336E0042400E00024B440B7
:102AF0003C4302355B4E46F825405B4C2568D44389
:102B000004EA05064F6817F4803F01D042EA050643
:102B1000554D2E606D6804EA05064F6817F4003FB6
:102B200001D042EA0506504D6E60AD6804EA050624
:102B30004F6817F4801F01D042EA05064A4DAE6087
:102B4000ED682C404E6816F4001F01D042EA0504DF
:102B5000454AD46001330A6832FA03F47ED0012476
:102B60009C402240F6D04D68022D01D0122D10D18C
:102B7000DE08083650F826C003F00705AF000F2521
:102B8000BD402CEA050C0D69BD4045EA0C0540F836
:102B9000265006685F000325BD40ED4305EA060C9C
:102BA0004E6806F00306BE4046EA0C0606604E6814
:102BB00006F1FF3CBCF1010F03D9112E01D0122EFA
:102BC00010D1866805EA060CCE68BE4046EA0C06BF
:102BD0008660466826EA04044E68C6F300169E40E6
:102BE00026434660C46825408C68BC402C43C460C2
:102BF0004C6814F0805FADD01C4CA56945F0010510
:102C0000A561A46904F001040194019C9D08AE1C17
:102C1000144C54F8267003F00304A6000F24B440AB
:102C200027EA0407B0F1904F3FF460AF104CA04288
:102C30000ED004F58064A0420CD004F58064A0425C
:102C40000AD004F58064A0423FF44EAF05244EE75D
:102C500001244CE702244AE7032448E702B0F0BC11
:102C6000704700BF00000140000401400010024016
:102C7000000400480AB98162704781617047436966
:102C80005940416170470000074AD36823F4E0636C
:102C90001B041B0C000200F4E060184340F0BF600E
:102CA00040F40030D060704700ED00E030B4174BC6
:102CB000DB68C3F30223C3F10704042C28BF0424F8
:102CC0001D1D062D18D9033B4FF0FF3505FA04F4FE
:102CD00021EA0401994005FA03F322EA03031943A8
:102CE00000280BDB0901C9B200F1604000F561402A
:102CF00080F8001330BC70470023E5E700F00F00B8
:102D00000901C9B2024B1954F4E700BF00ED00E01D
:102D100014ED00E000F01F02400901239340024A35
:102D200042F82030704700BF00E100E01549D1F8BB
:102D3000883043F47003C1F88830134B1A6842F0AE
:102D400001021A605868114A02405A601A6822F05B
:102D5000847222F480321A601A6822F480221A6087
:102D60005A6822F4FE025A60DA6A22F00F02DA622E
:102D7000186B074A02401A6300229A604FF0006302
:102D80008B60704700ED00E0001002400CC07FF83F
:102D9000CCFC00FF00F1080343604FF0FF3282607B
:102DA000C360036100230360704700230361704721
:102DB00043684B609A688A609A68516099600861BC
:102DC000036801330360704730B40D68B5F1FF3F0D
:102DD00002D000F1080202E0026904E01A465368DA
:102DE0001C68AC42FAD953684B6099608A605160A4
:102DF000086103680133036030BC704703694268AF
:102E0000816891608268416851605A68824205D049
:102E100000220261186801381860704782685A60A1
:102E2000F6E70000084B1B681B683BB1064B1B68AC
:102E3000DB68DB685A68054B1A607047034B4FF03C
:102E4000FF321A60704700BFEC040020C405002068
:102E500010B50446006B00F079FC204600F076FCCB
:102E600010BD2DE9F04780469946089D099F0A9CB0
:102E7000266B02F18042013A06EB820626F0070635
:102E800000230F2B07D8C85CE21882F83400CA5C14
:102E90000AB10133F5E7002384F84330062D00D949
:102EA0000625E56265644FF0000AC4F848A0201DBD
:102EB000FFF77BFF04F11800FFF777FF2461C5F1EE
:102EC0000705A5616462C4F84CA084F850A04A4686
:102ED0004146304600F0A6FC206007B13C60BDE8EA
:102EE000F087000038B5002407E004EB840293006B
:102EF0000E481844FFF74EFF0134062CF5D90C4D4F
:102F00002846FFF747FF0B4C2046FFF743FF0A48D0
:102F1000FFF740FF0948FFF73DFF0948FFF73AFF79
:102F2000084B1D60084B1C6038BD00BFF404002036
:102F300098050020AC050020CC050020F8050020F5
:102F4000E4050020EC040020F004002010B5044645
:102F500000F090FC204A1368013313601F4B1B687C
:102F60005BB11F4B1B686BB91C4B1B68DA6AE36AC9
:102F70009A4207D8194B1C6004E0184B1C60136878
:102F8000012B26D0174A136801331360E36A01222C
:102F90009A401549086802430A6003EB83039A00CC
:102FA000211D12481044FFF703FF00F085FC0C4B75
:102FB0001B686BB1094B1B68DA6AE36A9A4207D255
:102FC0000B4B4FF080521A60BFF34F8FBFF36F8FE0
:102FD00010BDFFF787FFD5E780050020E80400203B
:102FE000E00500209005002094050020F404002056
:102FF00004ED00E070B504460E461D4B1D681D4BE8
:1030000018680430FFF7FAFE50B91A4B1B68DA6AE9
:10301000012303FA02F218490B6823EA02030B604A
:10302000B4F1FF3F13D02C44124B1B685C60A542E7
:1030300016D8124B18680F4B19680431FFF7C4FEFD
:103040000F4B1B68A34212D90D4B1C600FE0002EE2
:10305000E9D0084B196804310A48FFF7A9FE06E0D9
:10306000094B1868034B19680431FFF7ADFE70BDBA
:103070000C060020E804002094050020EC04002049
:10308000C4050020E4050020F00400202DE9F043F1
:1030900085B00746884615469946900000F0D2FA5A
:1030A000F8B10646542000F0CDFA0446A8B10663F4
:1030B000D4B10023039302940D9B01930C9B0093C6
:1030C0004B462A4641463846FFF7CBFE2046FFF7DF
:1030D0003DFF012005B0BDE8F083304600F036FB2F
:1030E000E6E74FF0FF30F5E74FF0FF30F2E7000082
:1030F00000B583B0174B019300230093802216493B
:103100001648FFF7C3FF012805D0B0F1FF3F17D0E5
:1031100003B05DF804FB4FF0500383F31188BFF355
:103120006F8FBFF34F8F0E4B4FF0FF321A600D4B76
:1031300001221A600C4B00221A6000F037FCE7E70E
:103140004FF0500383F31188BFF36F8FBFF34F8F9E
:10315000FEE700BFC00500200C6300084D340008E6
:10316000C4050020E00500200C060020024A136878
:1031700001331360704700BF8C050020014B1868B5
:10318000704700BF0C06002008B500F085FC014B1D
:10319000186808BD0C060020F8B53A4B1B68002BD8
:1031A00064D1394B1D6801351D60C5B9374B1B68AB
:1031B0001B6843B14FF0500383F31188BFF36F8F47
:1031C000BFF34F8FFEE7314A1168314B186810602A
:1031D0001960304A136801331360FFF723FE2E4B4A
:1031E0001B68AB4238D900242C4B1B68DB6A03EB0D
:1031F00083039A002A4B9B58012B3CD901243AE0C7
:103200000124224B1B681B6843B3204B1B68DB68FF
:10321000DE6873689D4226D3371D3846FFF7EEFD02
:10322000B36A1BB106F11800FFF7E8FDF36A01224B
:103230009A401C49086802430A6003EB83039A0022
:10324000394617481044FFF7B3FDF26A134B1B6869
:10325000DB6A9A42D4D2D4E70024D2E70E4B4FF077
:10326000FF321A60C0E70C4A1360BDE70E4A1368CC
:103270000133136000240D4B1B6803B10124204669
:10328000F8BD00BF8C0500200C060020EC040020D7
:10329000F0040020C8050020C4050020E804002038
:1032A000F40400209405002088050020100600206A
:1032B00038B5334B1B6843B94FF0500383F3118883
:1032C000BFF36F8FBFF34F8FFEE700F0D3FA2C4BA5
:1032D0001A68013A1A601B68002B4DD1294B1B68F4
:1032E00023B9002400F0E8FA204638BD0024264B1C
:1032F0001B681BB3244BDB68DC6804F11800FFF784
:103300007DFD251D2846FFF779FDE36A01229A40DD
:103310001E49086802430A6003EB83039A002946AA
:103320001B481044FFF744FDE26A1A4B1B68DB6A36
:103330009A42DCD3184B01221A60D8E70CB1FFF790
:1033400071FD164B1C6854B1FFF726FF10B1124BEC
:1033500001221A60013CF7D1104B00221A600E4B7B
:103360001B685BB10E4B4FF080521A60BFF34F8F5A
:10337000BFF36F8F0124B5E70024B3E70024B1E762
:103380008C05002080050020CC050020940500203D
:10339000F4040020E8040020100600208805002026
:1033A00004ED00E010B5A8B104460F4B1B6843B113
:1033B0004FF0500383F31188BFF36F8FBFF34F8F2C
:1033C000FEE7FFF7D3FE00212046FFF713FEFFF7CD
:1033D0006FFF38B9054B4FF080521A60BFF34F8F23
:1033E000BFF36F8F10BD00BF8C05002004ED00E01F
:1033F000134B1B6813B310B5FFF7B8FE114B1C68D5
:10340000FFF756FF24B90E4B1B68002BF4D110BDFB
:1034100000F030FA0B4BDB68DC68201DFFF7EEFC98
:10342000094A1368013B1360054A1368013B1360A6
:1034300000F042FA2046FFF70BFDE4E7704700BFBB
:1034400084050020F80500208005002008B5FFF75E
:10345000CFFF064B1B68012BF9D9054B4FF080526B
:103460001A60BFF34F8FBFF36F8FF0E7F4040020B3
:1034700004ED00E0204B1B681BB1204B01221A60B9
:1034800070471E4B00221A601D4B1B68B3FA83F372
:10349000DBB2C3F11F0303EB83018A0019498A5889
:1034A00042B94FF0500383F31188BFF36F8FBFF31E
:1034B0004F8FFEE710B413489A00D418A1000144BE
:1034C0004C6864684C601A44910008310844844296
:1034D0000BD003EB83039A000A4B13445B68DA6852
:1034E000094B1A605DF8044B704761680548142267
:1034F00002FB03025160ECE78C050020100600205F
:1035000094050020F4040020E8040020842801D061
:103510000330704700207047EFF30580003018BF7C
:103520000120704708B5FFF7E3FD002008BD08B58E
:10353000FFF7F2FF10B9FFF721FE08BDFFF724FEE9
:10354000FBE7F0B585B00F46446805680669B0F939
:103550000800FFF7DBFF03AB019300903B46B2B2DC
:1035600029462046FFF792FD012802D1039805B0B5
:10357000F0BD0020FBE708B5034600B9012318465B
:10358000FFF710FF002008BD124A12F0070F1ED0EF
:10359000D11D21F00701C1F5406313440A460E48CE
:1035A0000260002141601344083B23F007030B48ED
:1035B000036059601960991A51601360084B1960D3
:1035C000084B1960084B4FF000421A6070474FF4E7
:1035D0004063E4E7180600202412002014060020AF
:1035E000201200201C1200201812002010B4134BCF
:1035F0001A6882421BD359685C18844203D1406820
:1036000001445960184641684418A24213D10C4C39
:103610002468A2420DD05268114441601A681268B1
:103620000260984200D018605DF8044B7047134662
:10363000DEE70460F5E70260F3E700BF2412002034
:103640001406002070B50446FFF790FD3A4B1B6846
:10365000BBB13A4B1B681C4263D1ACB1083414F0C7
:10366000070F11D024F00704083404F007035BB1FE
:103670004FF0500383F31188BFF36F8FBFF34F8F69
:10368000FEE7FFF781FFE4E7002C4CD02C4B1B68D2
:10369000A3424AD32B4B1D6801E02B4615466A68AE
:1036A000A24202D22A68002AF7D1234A1268AA420B
:1036B0003DD01E6808362A681A606B681B1B102BE9
:1036C00010D9281910F0070F08D04FF0500383F3DA
:1036D0001188BFF36F8FBFF34F8FFEE743606C60BD
:1036E000FFF784FF6A6816490B689B1A0B6016493E
:1036F00009688B4201D214490B60104B1B681343BD
:103700006B6000232B60FFF7D3FD16F0070F10D07E
:103710004FF0500383F31188BFF36F8FBFF34F8FC8
:10372000FEE70026EFE70026EDE70026EBE70026A0
:10373000E9E7304670BD00BF1406002018120020D3
:103740001C120020241200202012002080B338B563
:103750000446A0F1080550F8042C164909680A42ED
:1037600008D14FF0500383F31188BFF36F8FBFF37D
:103770004F8FFEE750F8080C40B14FF0500383F331
:103780001188BFF36F8FBFF34F8FFEE722EA01026C
:1037900044F8042CFFF7EAFC54F8041C064A1368AA
:1037A0000B4413602846FFF721FFFFF781FD38BD6A
:1037B000704700BF181200201C1200200B4B1B6822
:1037C000B3F1FF3F08D04FF0500383F31188BFF3EC
:1037D0006F8FBFF34F8FFEE74FF0500383F31188D5
:1037E000BFF36F8FBFF34F8FFEE700BF30000020A5
:1037F00006480068006880F3088862B661B6BFF3C7
:103800004F8FBFF36F8F00DF00BF000008ED00E0B7
:10381000DFF80C00016841F470010160704700009E
:1038200088ED00E04FF0807340F8043C21F0010186
:1038300040F8081C054B40F80C3C40F8202C6FF079
:10384000020340F8243C4438704700BFBD370008ED
:10385000074B19680868B0E8F04F80F30988BFF398
:103860006F8F4FF0000080F311887047AFF3008036
:10387000E80400204FF0500383F31188BFF36F8FEB
:10388000BFF34F8F0A4A136801331360012B00D036
:103890007047084B1B6813F0FF0FF9D04FF050032F
:1038A00083F31188BFF36F8FBFF34F8FFEE700BF25
:1038B0003000002004ED00E0094B1B6843B94FF0D5
:1038C000500383F31188BFF36F8FBFF34F8FFEE771
:1038D000013B034A13600BB983F31188704700BFA3
:1038E0003000002000000000000000000000000088
:1038F000EFF30980BFF36F8F154B1A681EF0100F9E
:1039000008BF20ED108A20E9F04F10604DF8043D0B
:103910004FF0500080F31188BFF34F8FBFF36F8FCC
:10392000FFF7A8FD4FF0000080F3118808BC19686C
:103930000868B0E8F04F1EF0100F08BFB0EC108A16
:1039400080F30988BFF36F8F704700BFAFF300802B
:10395000E804002008B54FF0500383F31188BFF34B
:103960006F8FBFF34F8FFFF717FC18B1034B4FF06A
:1039700080521A60002383F3118808BD04ED00E033
:10398000064B1B68064AA2FB03239B09013B054A21
:103990001360054B07221A60704700BF2C000020FF
:1039A000D34D621014E000E010E000E0314B1A68E3
:1039B000314B9A420DD02F4B1A68304B9A4211D19D
:1039C0004FF0500383F31188BFF36F8FBFF34F8F16
:1039D000FEE74FF0500383F31188BFF36F8FBFF3FF
:1039E0004F8FFEE700B583B0254B1A78D2B2019213
:1039F000FF221A701B78DBB28DF803309DF803307C
:103A000003F050031F4A13701F4B07221A609DF8E2
:103A1000033013F0800F0AD01B4A1368013B136078
:103A20009DF803305B00DBB28DF80330EFE7164AF8
:103A300013681B0203F4E0631360019BDBB2104ABE
:103A40001370124B1A6842F470021A601A6842F03E
:103A500070421A60FFF794FF0D4B00221A60FFF7C7
:103A6000D7FE0C4A136843F040431360FFF7C0FED3
:103A7000FFF7A4FE00ED00E071C20F4170C20F41DC
:103A800000E400E02C1200203012002020ED00E0C5
:103A90003000002034EF00E0EFF305830F2B0FD947
:103AA000104A9B5CDBB2104A12789A4208D94FF058
:103AB000500383F31188BFF36F8FBFF34F8FFEE77F
:103AC0000A4B1B6803F4E063094A1268934208D961
:103AD0004FF0500383F31188BFF36F8FBFF34F8F05
:103AE000FEE77047F0E300E02C1200200CED00E050
:103AF00030120020091A89B208B2002800DB704792
:103B0000203108B2FBE710B421F0604420F060429D
:103B1000C30FB3EBD17F11D000290BDB00280BDBE7
:103B2000944203D094422CBF0023012318465DF831
:103B3000044B7047A40CF1E7920CF1E7C1F38071DC
:103B4000C0F38073944204D094422CBF002301231D
:103B5000ECE79942EAD1F7E710F0800F06D010F4B5
:103B6000004F01D1002070470120704702207047AC
:103B700010B50446FFF7F0FF022802D0C4F3074057
:103B800010BDC4F30F2014F07F0FF9D100F0030033
:103B9000F6E720B103698B4201D00068F9E770476E
:103BA0000020704780EA0120002307E0400080B237
:103BB00080F4815080F001000133DBB2072B05D87F
:103BC00010F4004FF2D1400080B2F5E7704770B5B5
:103BD00016461D46002410E0C4F12002A4F1200383
:103BE00026FA04F105FA02F2114325FA03F3194308
:103BF000C9B2FFF7D7FF0834A4B23F2CECD970BD8F
:103C000038B505E04D1C0978FFF7CCFF2246294660
:103C1000541E002AF6D138BD30B40546002304E016
:103C200001EB43142C60254601339A42F8D8002357
:103C30002B608280C380038130BC704702460068DD
:103C400050B103681360D38801339BB2D3801189CC
:103C50008B4202D9138170470020704708B5FFF7E7
:103C6000EDFF034608B100220260184608BD0000BF
:103C70002DE9F84FCC8AC4F30904062C34D027462A
:103C80002546002408E012F804C04E1986F81AC030
:103C90000135ADB20134A4B2052D02D89EB2A642C0
:103CA000F1D89DB2A54218D9984617468A46834650
:103CB000CA8AC2F30902911F8B083848A0FB03038C
:103CC000C3EBC3034FEA8309A1EB09011FFA81F992
:103CD000DAF8046056B1012316E03D44CB8A65F35F
:103CE0000903CB8201204DE00024DDE75846FFF7B1
:103CF000B5FF0646CAF80400002845D04FF0000979
:103D000027E001339BB20E4631680029F9D14244C5
:103D1000063A92082149A1FB021292B2013292B2F4
:103D2000934216D2B9F1000F13D15846FFF796FF10
:103D3000306060B306460CE03A5D73191A710135C4
:103D4000ADB20134A4B21B2D01D8A142F4D8A142D6
:103D500005D81FFA88F1A1420AD94D46F3E7584623
:103D6000FFF77CFF3060A8B106464FF00009F0E78E
:103D7000BAF81630C3F30902114461F30903AAF833
:103D800016300120BDE8F88F6FF00200FAE76FF0FF
:103D90000200F7E76FF00200F4E700BF2549922424
:103DA0002DE9F04190B10D4680460B7CABB1C7695F
:103DB000D7B13E463C46CCB169686068FFF7A3FEC8
:103DC000B0B923682646E3B11C46F4E70E4B0F4A10
:103DD00040F2C5310E4801F01FFA0E4B0B4A40F27B
:103DE000C6310B4801F018FAC8F81C10BDE8F08184
:103DF000A74202D035602C60F8E72C60C8F81C5050
:103E0000F4E72560F2E700BF246500089863000826
:103E1000EC6600081867000808B540B10378013364
:103E2000DBB203701F2B01D90023037008BD034BC5
:103E3000034A40F25E31034801F0EEF9AC66000837
:103E400074630008EC66000808B503680B60016045
:103E5000C38813B1013BC38008BD034B034A4FF431
:103E6000C761034801F0D8F97C660008F8630008D0
:103E7000EC66000870B506460C4605E00D6806F1D4
:103E80000C00FFF7E1FF656061680029F6D1E38A65
:103E90006FF30903E3820020002170BD08B5436879
:103EA00083B9C37DC3F38402013262F38603C37511
:103EB000C38A6FF30903C382C3F307236FF3C713E6
:103EC000C37508BD034B044A40F22F41034801F07B
:103ED000A3F900BFC8660008A4630008EC660008E8
:103EE0002DE9F843089F4AB14FEAD10C03EBD70301
:103EF00001F0070107F007070A4431E01A4B1B4A9B
:103F000040F239511A4801F087F901F0070807F02B
:103F1000070E4646F04538BF7646C6F10806541AE5
:103F2000A64228BF26464FF47F45F540EDB245FA3C
:103F30000EF5CC0800EB0C0919F8044004FA08F45B
:103F400024FA0EF4E4B24FEAD70813F808E08EEA38
:103F500004042C408EEA040E03F808E03144374490
:103F60009142D2D1BDE8F88338650008BC630008EF
:103F7000EC6600082DE9F04F87B00592039304909A
:103F8000002840D08846049B9B8ADA008A4240F28F
:103F9000ED80059941448A4205D2D0B25FFA88F398
:103FA000C01AC3B20593059B002B33D0049BDB687A
:103FB000002B36D0B8F12F0F44D8C8F13003059A42
:103FC0009A423CD35FFA88F3C3F13003DBB2029329
:103FD000049B986800230093039B029C2246414661
:103FE000FFF77EFFA044059A141BE4B2049B9F8A4E
:103FF00007F10057063FFF00D3F80CA04FF030093F
:10400000A346544644E05A4B5A4A40F25B515A4840
:1040100001F002F9594B574A40F26751564801F0F6
:10402000FBF8049B1B69002BC4D1049B98680023F8
:104030000093039B059A4146FFF752FF6EE0059BF4
:104040000293C5E7059C00230293CFE74C4B494AF6
:104050004FF4B161484801F0DFF85D46C84530D300
:10406000029B0093039B2A46A8EB0901201DFFF742
:1040700037FFA844029B2B44DBB20293ABEB050B4A
:104080005FFA8BFBB14523D2A7EB0A072468B14640
:104090002CB3BBF1000F22D0002FD7D0BA46E02FAF
:1040A00028BF4FF0E00A0AEB0906B045EAD2A6EBBA
:1040B00008039B45D1D3F5B25FFA88F3ED1AEDB250
:1040C000CCE7304B2B4A40F291512B4801F0A4F839
:1040D0002D4B284A40F29B51274801F09DF85C4641
:1040E000BB4520D8049B186978B174B1C84521D369
:1040F000029E0096039B2246A8EB0901FFF7F0FE03
:10410000D8443444E3B202930024049B9B8AB8EB66
:10411000C30F16D8029B402B1AD804BBBDF914005C
:1041200007B0BDE8F08F194B124A40F2A151124876
:1041300001F072F8134B0F4A40F2A6510E4801F0FD
:104140006BF8134B0B4A40F2B1510B4801F064F885
:10415000104B084A40F2B251074801F05DF80E4B8F
:10416000044A40F2B351044801F056F80020D7E762
:1041700048650008CC630008EC6600085865000834
:10418000686500087C650008A4650008CC65000827
:10419000F4650008246600083C66000810B518B1F4
:1041A0000246013900230CE0074B084A40F2CE5189
:1041B000074801F031F8D05C545CD45450540133BA
:1041C00001398B42F7D310BD34670008E86300085B
:1041D000EC66000808B5FFF731FD034628B1002260
:1041E000026042608260C2600261184608BD000041
:1041F0002DE9F04F83B001930C9EBDF83450009030
:1042000090B18A46934611F0604F14D1002A7BD0BA
:104210000DB1002E7BD0072D14D94FF080094FF03F
:104220000008444647465BE03D4B3E4A40F26E3153
:104230003D4800F0F1FF3D4B3A4A40F26F313A48B9
:1042400000F0EAFF009F07F10C00FFF7C3FF0446F0
:1042500000285FD02A463146083001F031F86B1C47
:1042600023749BF8003003F01F0343F0C003254480
:104270002B724AF00043636021463846FFF790FDF9
:104280000127384603B0BDE8F08F002306E0305D1B
:10429000CA1810720133DBB20134A4B2062B01D864
:1042A000AC42F4D3AC422CD04FEA4812D2B242EA2C
:1042B00009099BF8002002F01F0249EA0209CA1806
:1042C00082F808904AF000424A6001330B7400986B
:1042D000FFF766FD01373FB288F001084FF0000993
:1042E000AC42CED0009B03F10C00FFF773FF0146F8
:1042F00098B1002CC9D1019B03721B0A437202239F
:10430000CCE74FF04009CFE76FF00107B9E76FF056
:104310000107B6E76FF00207B3E76FF00207B0E7F7
:104320002465000888630008EC66000858660008E9
:1043300030B589B004460D4620220021684600F0C1
:10434000CAFF04952046FFF779FC054650B16C463C
:104350000FCC28606960AA60EB600FCC28616961AE
:10436000AA61EB61284609B030BD10B504460C3097
:10437000FFF7DEFF034610B1A2690260A061184694
:1043800010BD38B504460D46806928B1FFF701FC21
:10439000034650B1184638BD04F10C00FFF7C8FFC2
:1043A00003460028F6D0A061F4E729462046FFF72F
:1043B000DCFF0346EEE7000010B5C8B1044600205C
:1043C0002060E060206160612070A360029B6360F8
:1043D000A061E061039B23625209B2F5803F01D3E3
:1043E0004FF6FF7292B204F10C00FFF715FC10BDFE
:1043F000024B034A4F21034800F00EFF20650008DE
:1044000014630008EC66000808B538B102785AB9A0
:1044100051B111F0800F07D1017008BD054B064A5C
:104420007321064800F0F8FE054B034A7D2103483E
:1044300000F0F2FE2465000820630008EC66000826
:1044400054650008007870472DE9F04A85B0BDF842
:1044500030409DF838B00F9EBDF840709EB3BBF160
:104460001F0F4BD8CDE902230546FFF7EBFF81462E
:1044700070BB072F45D834F0030345D13A46314687
:104480004FF6FF70FFF7BCFB20F001004004400C2A
:10449000400240EA0B6B240204F440744BEA04042B
:1044A00044EA09094FF6FF73019700960D9A4946B1
:1044B0002846FFF79DFE04460D98FFF7ADFC204609
:1044C00005B0BDE8F08A002FC9D06FF00104F6E70F
:1044D000240244EA0B6444EA0009072F0BD9DDE902
:1044E00002234FF6FF70FFF772FB3A463146FFF7A3
:1044F00087FB0346D8E74FF6FF73D5E76FF001045B
:10450000DDE76FF00304DAE76FF00104D7E72DE988
:10451000F04F83B09DF838409DF83CA0109EBDF848
:10452000447086B31F2C3AD8904699468B46054670
:10453000FFF788FFB0B39DF830301B0443EA0464F2
:1045400044EACA3444EA0B24044344F08004072FAD
:104550001ED942464B464FF6FF70FFF738FB3A46EE
:104560003146FFF74DFB0346019700960D9A214611
:104570002846FFF73DFE0446BAF1010F0BD0204656
:1045800003B0BDE8F08F002FCCD06FF00104F6E748
:104590004FF6FF73E8E70D98FFF73EFCEFE76FF08B
:1045A0000104ECE76FF00304E9E7C06908B10430E7
:1045B00070470020704708B5C1690B68C3610C30B3
:1045C000FFF742FC08BD00002DE9F04782B00A9ECB
:1045D000002800F022810446002E00F02181551EA3
:1045E000EDB23F2D00F21F81012A02D1002B40F0D5
:1045F0001D8120461D4614460023009301936B46FF
:10460000FFF7B8FC071E40F3D1807B1E9BB23F2B07
:104610001CD8A7421ADC14F0070F0AD002AB03EB38
:10462000D40111F8083C624202F00702134101F87C
:10463000083C012C18D0082C47D9102C48D9202C24
:1046400049D9402C09D84FF008080EE0794B7A4A36
:1046500040F23521794800F0DFFD794B764A40F28F
:104660004E21764800F0D8FDA04608F1FF33DBB2BA
:10467000072B33D8FFF794FA002836D19DB1B4EB5D
:10468000C80F10D0082C35D89DF80010621E21FAF2
:1046900002F212F0010F06D00123A3405B42DBB20D
:1046A0000B438DF80030002D00F09280082C7AD951
:1046B000102C7FD9202C40F28180402C00F2818088
:1046C000DDE90023C6E9002370E04FF00108CCE7E4
:1046D0004FF00208C9E74FF00408C6E7594B564AA5
:1046E00040F25221554800F097FD41466846FFF7D9
:1046F00055FDC3E7102C0FD8BDF80020631E22FA29
:1047000003F313F0010FCED00123A3405B429BB211
:104710001343ADF80030C6E7202C0CD8009A631E76
:1047200022FA03F313F0010FBDD00123A3405B4233
:104730001A430092B7E73F2C2ED8DDE9009A04F126
:10474000FF3CCCF12008A4F1210E29FA0CF00AFA62
:1047500008F840EA08002AFA0EFE40EA0E0000F0CF
:104760000102002313439ED04FF0010CA4F1200856
:10477000C4F1200E0CFA08F32CFA0EFE43EA0E03E5
:104780000CFA04F2524263EB430349EA02004AEA9C
:104790000301CDE9000186E7294B274A4FF4207138
:1047A000264800F039FD9DF900303370384602B0DC
:1047B000BDE8F087BDF900303380F7E7009B336038
:1047C000F4E71F4B1C4A4FF424711C4800F024FDF1
:1047D000012C0CD0082C0ED9102C10D9202C12D959
:1047E000402C13D8DDE90023C6E90023DEE79DF85D
:1047F00000303370DAE79DF800303370D6E7BDF84B
:1048000000303380D2E7009B3360CFE70C4B0A4A7D
:1048100040F29D21094800F0FFFC6FF00107C5E759
:104820006FF00107C2E76FF00107BFE76FF0010704
:10483000BCE700BF046400084C630008EC66000895
:104840005465000840640008F0B585B090B10E468C
:1048500014460546ABB1402A1AD802B30022029290
:104860000392012C22D0082C3ED81B788DF80830FA
:1048700001271FE0284B294A40F2B121284800F0C7
:10488000CBFC284B254A40F2B221254800F0C4FC5D
:10489000254B224A40F2B621214800F0BDFC224BB4
:1048A0001E4A4FF42F711E4800F0B6FC1B788DF89D
:1048B00008302746FFF774F948BB14F0070F0AD0F9
:1048C00004AB03EBD40111F8083C624202F007028A
:1048D000934001F8083C00962B462246002102A88E
:1048E000FFF7FEFA05B0F0BD102C04D81B88ADF818
:1048F00008300227DEE7202C03D81B680293042728
:10490000D8E7D3E90023CDE902230827D2E73946C7
:1049100002A8FFF743FCD0E770640008606300085A
:10492000EC6600088C6400085465000870B5064603
:104930000C4605E00D6806F10C00FFF785FAE5600E
:10494000E1680029F6D10023E360A3602361A3821C
:1049500070BD00002DE9F04F95B080460C46CDE9C2
:1049600002230D682846FFF7F7F8064602283DD0D7
:10497000C5F30629002D80F2BD8115F0C04F40F02F
:10498000BC81277B002F00F0BB81022E05D0404662
:10499000FFF758FD484540F0B681C5F30463059321
:1049A00005F07F0A2846FFF7E3F8069040EA06453F
:1049B00045EA8A4545EA496B013F274497F8049048
:1049C0005FEAD9174ED014A90022002361E9082319
:1049D000CDF800A0334602464046D8F80450A84718
:1049E00038B96FF00B0015B0BDE8F08F4FF000093B
:1049F000C0E759464046FFF7C4FC054600282ED0C4
:104A0000DDE90C234FF6FF70FFF7E1F8A882002DD7
:104A100033D0D5E90223DDE90201CDE90823801A6C
:104A200061EB0301CDE90A01E87D09F01F0307935B
:104A30001946C0F38400FFF75DF8DDE9082313434E
:104A400024D0B44A0023DDE90ABC634508BF5A45B7
:104A50004CD3002F4CD0012816DD012317E06FF056
:104A60000200C0E75946D8F81800FFF792F805464B
:104A70000028CCD16FF00C00B5E7A74BA74A4FF444
:104A80009D71A74800F0C8FB002300E00123002B24
:104A900030D1002F44D019F0400F41D0DDE902237E
:104AA000C5E9022300270F9710971397CDE90C2330
:104AB000231D0E93237B013BDBB2ADF84430069BF4
:104AC000ADF846308DF84860079B8DF84930059B5E
:104AD0008DF84A308DF84BA0D8F808300CA9404624
:104AE00098472846FFF7DAF938467CE70123CEE7F6
:104AF0000023CCE7EB7D69F386036FF3C713EB75F7
:104B000029464046FFF7B6F9002FC2D1EB7DC3F32B
:104B10008402013262F38603EB756FF00C0062E7EA
:104B2000C9F34013EA7DB3EBD21F40F0EF80C2F32C
:104B30008403079A9A4240F0F980002F35D019F08B
:104B4000400F32D1237B032B40F2F380DDE90223B7
:104B5000C5E90223A61D237B033BDBB2324629466F
:104B600008F10C00FFF784F8002815DB237962793F
:104B700043EA02232B83227B033AD2B23146A88A2E
:104B8000FFF73EF8A882EB7DDA43C2F3C01262F36E
:104B9000C713EB75002026E729464046FFF76AF960
:104BA0002846FFF77BF903201DE717B919F0400FDE
:104BB00014D0217B0139C9B2EA8AC2F30902052A5D
:104BC0002AD80023052A2CD88B422AD2E01807794C
:104BD000A818877601320133DBB2F3E7261D237B69
:104BE000013BDBB23246294608F10C00FFF740F8E2
:104BF000002808DB227B013AD2B23146A88AFEF7B0
:104C0000FFFFA882BFE729464046FFF733F9284651
:104C1000FFF744F90320E6E6686808B1062741E09B
:104C20000023DDE902BCCDE90CBC05F11A020E92AD
:104C30006A680F928B4259D2234404331093EB8A53
:104C4000C3F309031944ADF84410069BADF8463090
:104C50008DF84860079B8DF84930059B8DF84A30E8
:104C60008DF84BA000236B60227B013A211DA88A9E
:104C7000FEF7C6FFA8822B8B984204D1D8F80830E3
:104C80000CA9404698470CA94046FFF74FFE28461E
:104C9000FFF704F9AA8A2B8B9A4229D01120A2E6A9
:104CA0001C3718460368002BFAD188B1D21B1B2A87
:104CB00015D800231B2AB4D88B42B2D2E71897F834
:104CC00004C0871887F804C001320133DBB2F1E772
:104CD000144B124A4FF4D871114800F09DFA124B50
:104CE0000E4A40F2B3110E4800F096FA0023A5E7F1
:104CF000002078E66FF0090075E66FF0090072E6B3
:104D00006FF009006FE66FF00A006CE66FF00D00BF
:104D100069E600BF80841E00A464000838630008B0
:104D2000EC660008BC640008D46400086FF00E0054
:104D300059E66FF00F0056E610B4034620F06044C9
:104D400021F06042C80FB0EBD37F10D0002B0ADBFC
:104D500000290ADB944203D094422CBF002001209A
:104D60005DF8044B7047A40CF2E7920CF2E7C3F332
:104D70008073C1F38070944204D094422CBF002011
:104D80000120EDE78342EBD1F7E7021E06DB500579
:104D900012F0804F01D040F002007047D30043F082
:104DA0000400F5E710F0040F07D1430D10F0020FD7
:104DB00001D043F0804318467047C30843F00043D6
:104DC000F4E70000104B9B6913F0700F1BD04DF8F7
:104DD00004BD0D4B00229A610C49D1E902BC1BF1C4
:104DE00001024CF10003C1E90223094B1B7823B9EE
:104DF000054B9B6913F0040F02D0034B054A9A60E0
:104E00005DF804BB70477047006400403812002012
:104E1000341200208080800070B506460D460024C4
:104E2000B4F57A7F0BD2736803F00103DBB2AB42B7
:104E300007D00120FEF79FFB0134A4B2F0E7002069
:104E400000E0012070BD0000022900F2B3800028BC
:104E500000F0B38038B50388002B00F0B180B3F5C3
:104E6000806F00F2B0800379002B00F0AF80042B3C
:104E700000F2AF808378002B00F0AE80102B00F2A0
:104E8000AE80C378002B00F0AD80082B00F2AD801F
:104E90000C460546564A0023136053609360D36066
:104EA000022914BF00210121524A11705248436166
:104EB000036823F002030360036843F00103036007
:104EC0000121FFF7A9FF002857D04B4B61221A6040
:104ED0002B79013B1B0603F04073AA78013A1204B8
:104EE00002F470221343EA78013A120502F4E00258
:104EF00013432A88013AC2F309021343012C43D019
:104F0000002213433C4AD3615369002B3FD13A48F6
:104F1000036823F0010303600021FFF77DFF0028F1
:104F20003BD0354AD2F8003223F47C5323F00E03F1
:104F300043F4606343F00103C2F80032D2F8003258
:104F4000C3F305230E2B2FD12B4B0020C3F80402F3
:104F50006FF07042C3F80C22284AC3F81422C3F839
:104F60004002C3F844020122C3F81C22D3F80022F5
:104F700022F00102C3F8002238BD1F4B4FF400425B
:104F80001A606FF47A70F7E74FF00042B9E71C4BF4
:104F90001C4AE9211C4800F03FF9174B4FF400422E
:104FA0001A60A0F2EA30E7E7184B164AFF211648CC
:104FB00000F032F96FF0010070476FF001007047A8
:104FC0006FF00100D8E76FF00100D5E76FF0010046
:104FD000D2E76FF00100CFE76FF00100CCE76FF090
:104FE0000100C9E76FF00100C6E76FF00100C3E7F9
:104FF000381200203412002000640040AAAAAA0A35
:105000007467000850670008AC670008EC67000888
:10501000002875D070B582B00446036813F0005FB5
:1050200071D1FFF7CFFE394B9B6803F0E053B3F12A
:10503000E05F63D0354B9A68C2F380628DF804203C
:105040009A68C2F3C0628DF805209B68C3F30073B1
:105050008DF806300025FF2602E02E460135EDB220
:10506000022D13D802AB2B4413F8043C002BF4D1CF
:1050700005F118031B01254AD058FFF793FE01469E
:105080002068FFF759FE0028E8D127E0FF2E27D03F
:10509000022E2CD8350105F1804505F5CB45237B43
:1050A0006B60E27AA37A1B0443EA0263627A43EA02
:1050B0000223227A1343EB60E279A3791B0443EACB
:1050C0000263627943EA022322791343AB602068CA
:1050D000FFF75BFE40F001002860012002B070BDC8
:1050E0000B4B0C4A4FF4AF710B4800F095F80B4B8B
:1050F000084A4FF4B471084800F08EF80026C9E75A
:105100006FF0010070470648E8E700BF0064004008
:105110003868000860670008AC6700084868000845
:1051200015FCFFFF002843D02DE978480546FFF71E
:1051300049FE0023012B38D81F4C04EB03141F4AEF
:1051400052F82360326812F0030F01D10133F1E706
:10515000336813F0100F08D01949D1E900BC1BF1D6
:1051600001024CF10003C1E900232068FFF71AFE99
:105170002860636803F00F032B73A268E3682A7149
:10518000C2F307216971C2F30741A971120EEA71D6
:105190002B72C3F307226A72C3F30742AA721B0E73
:1051A000EB7238233360012000E00020BDE87888EE
:1051B0006FF00100704700BFB0650040486700080D
:1051C00038120020DFF834D0002103E00C4B5B588C
:1051D000435004310B480C4B42189A42F6D30B4A09
:1051E00002E0002342F8043B094B9A42F9D3FDF751
:1051F0009DFD00F041F8FBF77AF8FEE700A00020E3
:105200003469000800000020980000209800002069
:10521000E0130020FEE700001FB51C46094B1B6889
:105220000546D86852B1084B0091CDE901320749D3
:105230002B46224600F00EF800F0EEFB044B1A4617
:10524000F2E700BF340000205868000865680008D5
:10525000936800080EB403B5014603AB054853F844
:10526000042B0068019300F067F802B05DF804EBCE
:1052700003B070473400002070B50D4E0D4CA41BD8
:10528000A4100025A54209D10B4E0C4C00F0A4FF40
:10529000A41BA4100025A54205D170BD56F82530E9
:1052A00098470135EEE756F8253098470135F2E783
:1052B0002C6900082C6900082C6900083069000876
:1052C00010B5431E0A44914200D110BD11F8014BA4
:1052D00003F8014FF7E702440346934200D17047B9
:1052E00003F8011BF9E79368013B002B10B49360AE
:1052F00008DA9469A34201DB0A2903D15DF8044B63
:1053000000F0CABA1368581C1060197008465DF89E
:10531000044B7047F8B506460F461446D518AC4204
:1053200001D1002007E03A4614F8011B3046FFF790
:10533000DAFF431CF3D1F8BD2DE9F04F0C469DB0C8
:1053400017461D46064618B183690BB900F05CFC90
:105350007C4B9C4258D17468A38918075ED5236999
:10536000002B5BD00023099320238DF829303023B4
:105370008DF82A3003954FF0010BB846454615F8D5
:10538000013B0BB1252B54D1B8EB070A0BD0534688
:105390003A4621463046FFF7BDFF013000F0C2809B
:1053A000099B5344099398F80030002B00F0BA8011
:1053B00000234FF0FF32CDE90523049307938DF8C6
:1053C00053301A93A846052218F8011B5E48FAF7D5
:1053D00007FF049B78BBD90644BF20228DF85320D9
:1053E0001A0744BF2B228DF853202A782A2A2AD064
:1053F000079AA84600200A25414611F8013B303B98
:10540000092B69D960B324E0504B9C4201D1B468A8
:10541000A2E74F4B9C4208BFF4689DE72146304607
:1054200000F08CFA00289DD04FF0FF301DB0BDE891
:10543000F08FA846A2E7444A801A0BFA00F01843FE
:1054400004904546BEE7039A111D12680391002A95
:1054500001DB079204E0524243F0020307920493F7
:1054600098F800302E2B0ED198F801302A2B38D125
:10547000039B1A1D1B680392002BB8BF4FF0FF332C
:1054800008F102080593334D98F8001003222846CE
:10549000FAF7A6FE40B14023401B03FA00F0049B3C
:1054A000034308F10108049398F800102A488DF886
:1054B0002810062208F10107FAF792FE002837D0DB
:1054C000264B1BBB039B073323F0070308330393CF
:1054D000099B4B44099350E705FB023201208846A3
:1054E0008AE7002308F10108059319460A2540467A
:1054F00010F8012B303A092A03D9002BC3D00591AB
:10550000C1E705FB012101238046F0E703AB0093CF
:105510002246134B04A93046AFF30080B0F1FF3FA1
:105520008146D5D1A3895B063FF57EAF09987DE71B
:1055300003AB009322460A4B04A9304600F088F8DA
:10554000ECE700BFEC680008986800080C690008E8
:10555000CC6800089E680008A268000800000000EF
:10556000155300082DE9F04791461F468A680B69DC
:10557000DDF820809342B8BF1346C9F8003091F897
:10558000432006460C4612B10133C9F800302368A7
:10559000990642BFD9F800300233C9F800302568B7
:1055A00015F0060507D104F1190AE368D9F80020BF
:1055B0009B1AAB4228DC94F843302268003318BFB2
:1055C000012392062DD404F1430239463046C047E8
:1055D000013020D02368E568D9F8002003F00603E5
:1055E000042B08BFAD1AA36822690CBF25EAE57534
:1055F00000259342C4BF9B1AED184FF000091A34DE
:105600004D451AD1002008E0012352463946304664
:10561000C047013003D14FF0FF30BDE8F0870135BE
:10562000C3E7E1185A1C302081F84300224494F863
:10563000451082F843100233C5E70123224639465C
:105640003046C0470130E6D009F10109D8E7000033
:105650002DE9F04301F1430C0C46097E85B06E291B
:105660001746064698460C9A00F0B38022D8632964
:1056700036D00AD8002900F0B980582900F083807C
:1056800004F1420584F8421032E0642901D069290E
:10569000F6D120681368050603F104012AD51B68BA
:1056A0001160002B03DA2D225B4284F843206F48FF
:1056B0000A2239E0732900F09D8008D86F2920D094
:1056C0007029DDD1236843F02003236003E07529AE
:1056D00017D07829D4D1782384F84530644855E030
:1056E0001368191D1B68116004F1420584F84230EB
:1056F00001238CE01B68116010F0400F18BF1BB233
:10570000CFE713682568181D1060280601D51B68AF
:1057100002E06806FBD51B8854486F2914BF0A2293
:105720000822002184F843106568A560002DC0F2AE
:105730009580216821F004012160002B3DD1002DCE
:1057400040F08E806546082A0BD12368DB0708D518
:10575000236962689A42DEBF302305F8013C05F1F7
:10576000FF35ACEB05032361CDF800803B4603AA6F
:1057700021463046FFF7F6FE01304DD14FF0FF30A5
:1057800005B0BDE8F083394884F8451013682168F6
:105790001D1D1B6815600A060BD5CA0744BF41F0E2
:1057A000200121601BB9226822F020022260102211
:1057B000B7E74D0648BF9BB2EFE76546B3FBF2F192
:1057C00002FB1133C35C05F8013D0B460029F5D1FE
:1057D000B9E7136825686169181D106028061B6801
:1057E00001D5196002E06A06FBD519800023236108
:1057F0006546B9E71368191D11601D6862680021CC
:105800002846FAF7EDFC08B1401B6060636823612D
:10581000002384F84330A7E723692A4639463046F7
:10582000C0470130AAD023689B0713D4E068039BCC
:105830009842B8BF1846A3E701234A463946304686
:10584000C04701309AD00135E368039A9B1AAB42F6
:10585000F2DCEBE7002504F11909F5E7002BACD1E8
:10586000037884F8423004F142056CE7A968000827
:10587000BA68000810B56AB10139841810F8013B04
:1058800011F8012F934203D1A04201D0002BF5D192
:10589000981A10BD1046FCE7F8B50E4614460546AA
:1058A00018B183690BB900F0AFF9214B9C422AD1A2
:1058B0006C68A369A360A3891A072ED5236963B313
:1058C00023692068C01A6369F6B28342374604DC54
:1058D0002146284600F02EF928BBA368013BA360AF
:1058E00023685A1C22601E7063690130834204D011
:1058F000A389DB0719D50A2E17D12146284600F0C7
:1059000019F990B10FE00B4B9C4201D1AC68D0E784
:10591000094B9C4208BFEC68CBE72146284600F0C3
:105920000DF80028CCD04FF0FF373846F8BD00BF47
:10593000EC6800080C690008CC680008324B70B5B0
:105940001D6806460C4625B1AB6913B9284600F020
:105950005BF92E4B9C420FD16C68B4F90C309AB2B3
:1059600015072CD4D00611D40922326043F040032D
:10597000A3814FF0FF303EE0254B9C4201D1AC6843
:10598000EBE7244B9C4208BFEC68E6E7510712D5D1
:10599000616B41B104F14403994202D0304600F0FA
:1059A00021FA00236363A38923F02403A381002346
:1059B000636023692360A38943F00803A3812369FB
:1059C0004BB9A38903F42073B3F5007F03D02146BC
:1059D000304600F0C7F9A28912F001030CD0002371
:1059E000A36063695B42A361236953B9B4F90C30C6
:1059F00013F08000BAD170BD920758BF6369A360ED
:105A0000F2E70020F7E700BF34000020EC68000850
:105A10000C690008CC68000808B5062000F0C2FA3E
:105A2000012000F0D7FB00008A892DE9F0410546EE
:105A300010070C4658D44B68002B05DC0B6C002B70
:105A400002DC0020BDE8F081E66A002EF9D00023D8
:105A500012F480522F68216A2B6032D0606DA389C6
:105A60005A0705D56368C01A636B0BB1236CC01A63
:105A700000230246E66A216A2846B047431CA389F0
:105A800006D129681D2948D8294ACA40D60744D5D5
:105A900000226260D9042269226004D5421C01D12F
:105AA0002B6803B96065616B2F600029C9D004F1D0
:105AB0004403994202D0284600F094F90020606324
:105AC000C0E701232846B047411CC8D12B68002BF2
:105AD000C5D01D2B01D0162B01D12F60B1E7A389B2
